:020000040800F2
:1000000000000520995E00081D5E00081F5E0008C4
:10001000215E0008235E0008255E00080000000045
:10002000000000000000000000000000A14F0008D8
:10003000275E00080000000041500008A55000089D
:10004000E95E0008E95E0008E95E0008E95E000874
:10005000E95E0008E95E0008E95E0008E95E000864
:10006000E95E0008E95E0008E95E0008E95E000854
:10007000E95E0008E95E0008E95E0008E95E000844
:10008000E95E0008E95E0008E95E0008E95E000834
:10009000E95E0008E95E0008E95E0008E95E000824
:1000A000E95E0008295E0008E95E0008E95E0008D4
:1000B000E95E0008E95E0008E95E0008E95E000804
:1000C000E95E0008E95E0008E95E0008695E000874
:1000D000795E0008E95E0008395E0008495E0008A4
:1000E000E95E0008E95E0008E95E0008E95E0008D4
:1000F000E95E0008E95E0008E95E0008E95E0008C4
:10010000E95E0008E95E0008E95E0008895E000813
:10011000E95E0008595E0008E95E0008E95E000833
:10012000E95E0008E95E0008E95E0008E95E000893
:10013000E95E0008E95E0008E95E0008E95E000883
:10014000E95E0008E95E0008E95E0008E95E000873
:10015000E95E0008E95E0008E95E0008E95E000863
:10016000E95E0008E95E0008E95E0008E95E000853
:10017000E95E0008E95E0008E95E00080000000092
:10018000E95E0008E95E0008E95E0008E95E000833
:10019000E95E0008E95E0008E95E0008E95E000823
:1001A000E95E0008E95E00080000000000000000B1
:1001B000044B05481B1A062B02D9044B03B1184700
:1001C000704700BF73000020700000200000000096
:1001D00005490648091A891001EBD171491002D06E
:1001E000034B03B1184770477000002070000020D7
:1001F0000000000010B5064C237843B9FFF7D8FF84
:10020000044B13B10448AFF300800123237010BDE9
:100210007000002000000000EC5E000808B5084BEC
:100220001BB108490848AFF300800848036813B9B8
:10023000BDE80840CCE7064B002BF9D09847F7E71C
:100240000000000074000020EC5E00087000002038
:100250000000000070B50F4E0F4D761BB61018BF92
:10026000002405D0013455F8043B9847A642F9D143
:100270000A4E0B4D761B05F039FEB61018BF002450
:1002800006D0013455F8043B9847A642F9D170BD19
:1002900070BD00BF68600008686000086C600008FE
:1002A00068600008844641EA000313F003036DD13F
:1002B000403A41D351F8043B40F8043B51F8043B29
:1002C00040F8043B51F8043B40F8043B51F8043B30
:1002D00040F8043B51F8043B40F8043B51F8043B20
:1002E00040F8043B51F8043B40F8043B51F8043B10
:1002F00040F8043B51F8043B40F8043B51F8043B00
:1003000040F8043B51F8043B40F8043B51F8043BEF
:1003100040F8043B51F8043B40F8043B51F8043BDF
:1003200040F8043B51F8043B40F8043B51F8043BCF
:1003300040F8043B403ABDD2303211D351F8043B6F
:1003400040F8043B51F8043B40F8043B51F8043BAF
:1003500040F8043B51F8043B40F8043B103AEDD21E
:100360000C3205D351F8043B40F8043B043AF9D26F
:10037000043208D0D2071CBF11F8013B00F8013B42
:1003800001D30B8803806046704700BF082A13D34F
:100390008B078DD010F003038AD0C3F10403D21A67
:1003A000DB071CBF11F8013B00F8013B80D331F89B
:1003B000023B20F8023B7BE7043AD9D3013A11F81B
:1003C000013B00F8013BF9D20B7803704B78437086
:1003D0008B7883706046704770B4860746D0541E91
:1003E000002A41D0CAB2034602E014F1FF343BD3E5
:1003F00003F8012B9D07F8D1032C2ED9CDB245EA85
:1004000005250F2C45EA054519D903F110022646AA
:10041000103E0F2E42F8105C42F80C5C42F8085C6B
:1004200042F8045C02F11002F2D8A4F1100222F0AA
:100430000F0204F00F041032032C13440DD91E4692
:100440002246043A032A46F8045BFAD8221F22F017
:1004500003020432134404F003042CB1C9B21C4457
:1004600003F8011B9C42FBD170BC70471446034645
:10047000C2E700BF2DE9F0410E46804600283ED07D
:100480008369002B39D084682F4B9C4243D02F4B7B
:100490009C4256D02E4B9C4208BFD8F80C40A389F2
:1004A0001B073DD52369002B3AD0013EA36816F8FF
:1004B000015F013BA360B5B1002B04DB23685A1C2C
:1004C00022601D70F2E7A769BB42224629464046DA
:1004D00001DB0A2DF2D100F045F80130E6D14FF0F2
:1004E000FF30BDE8F081002B21DB23680A22591C74
:1004F00021601A701046BDE8F08100F0DFFAD8F8EC
:100500001830D8F80840002BBED1404600F0D6FA8B
:100510000D4B9C42BBD1D8F80440A3891B07C1D422
:100520002146404600F080F80028BED0D7E722469A
:1005300040460A2100F016F80130D0D00A20BDE86C
:10054000F081D8F80840AAE7605F0008405F000823
:10055000205F0008024B01461868FFF78BBF00BF01
:1005600000000020F8B50D461446064610B1836918
:10057000002B42D0254B9C4244D0254B9C4243D07B
:10058000244B9C4208BFF468A389A269A2601A07A1
:1005900022D5236903B322686169D31AEDB28B4275
:1005A0002F4621DA0133A168501C0139A160206077
:1005B000157062699A4206D0A389DB0701D50A2D1E
:1005C00001D03846F8BD2146304600F03BF90028FE
:1005D000F7D04FF0FF37F4E72146304600F024F81B
:1005E0000028F6D12369D6E72146304600F02AF9E3
:1005F0000028EED122680123D5E700F05FFA034B13
:100600009C42BAD17468BFE7B468BDE7605F000878
:10061000405F0008205F0008024B0A460146186848
:10062000FFF7A0BF00000020384B70B51D680646DC
:100630000C4615B1AB69002B42D0354B9C4245D0DE
:10064000344B9C4258D0344B9C4208BFEC68B4F900
:100650000C2093B219070CD52069A8B113F0010240
:100660001ED0636900225B42A361A260F0B100204A
:1006700070BDDD0642D558072AD4206942F0080330
:10068000A3819BB20028E9D103F42072B2F5007F68
:10069000E4D03046214600F0AFFAA3892069DDE7B7
:1006A000990758BF6269A2600028E0D1B4F90C3004
:1006B0001A06DDD543F04003A3814FF0FF3070BD33
:1006C000284600F0FBF9124B9C42B9D16C68BEE79A
:1006D000616B51B104F14403994204D0304600F0FB
:1006E000CFFAB4F90C200023636300232069636010
:1006F00022F024022060C1E7AC68A8E742F0400283
:10070000092333604FF0FF30A28170BD000000204C
:10071000605F0008405F0008205F00088B891A07AF
:100720002DE9F0410D46804633D44A68002A67DD42
:10073000EC6A002C45D00022D8F80060C8F80020F0
:1007400013F4805260D06A6D5F0705D569686B6BE2
:10075000521A0BB12B6CD21A0023296A4046A047CB
:10076000441C39D0AB892A692A60DB044FF00002AF
:100770006A6043D4696BC8F8006011B305F14403A3
:10078000994202D0404600F07BFA00206863BDE841
:10079000F0810E69AEB10C680E6098070CBF4B6912
:1007A0000023A41B8B600AE023463246AF6A296A05
:1007B0004046B8470028A4EB0004064404DD002CA2
:1007C000F2DC0020BDE8F081AB8943F04003AB814F
:1007D0004FF0FF30BDE8F081D8F800201D2AF3D893
:1007E000174BD340DB4313F00103EDD1A9892C69EA
:1007F0006B60C9042C60BDD5002ABBD16865B9E720
:100800000A6C002A94DCDCE70123296A4046A047F1
:10081000431C024602D0AB89EC6A95E7D8F8003059
:10082000002BF8D01D2B01D0162B02D1C8F8006088
:10083000C7E7AB8943F04003AB81BDE8F08100BF5F
:10084000010040200B6933B310B5044682B008B1F3
:100850008369ABB1114B994219D0114B994218D011
:10086000104B994208BFE168B1F90C3013B9002070
:1008700002B010BD204602B0BDE81040FFF74EBFE9
:10088000019100F01BF90199044B9942E5D161688F
:10089000EAE7A168E8E70020704700BF605F000852
:1008A000405F0008205F000820B1054B0146186832
:1008B000FFF7C8BF034B0449186800F045B900BFF3
:1008C000000000201C5F0008450800080020704759
:1008D000014900F039B900BF450800080020704701
:1008E00070B54A1E682505FB02F50E4605F1740138
:1008F00000F00EFA044640B100210C30666005F1AC
:1009000068022160A060FFF767FD204670BD00BF50
:10091000204B70B51D68AB6906465BB348356B6804
:10092000AC68013B05D521E0013B5A1C04F1680489
:100930001CD0B4F90C20002AF6D100254FF6FF7226
:100940000123E281A38165662560A560656025615C
:100950006561A5612946082204F15C00FFF73CFDB2
:100960006563A563A564E564204670BD286828B169
:100970000546D4E7284600F00FF8CFE704213046BB
:10098000FFF7AEFF28600028F2D10C230446336045
:10099000EAE700BF1C5F00083D4B3E491A682DE99D
:1009A000F04F90424FF000038364C364036508BFB7
:1009B000012383B008BF836181620746FFF7A8FF68
:1009C00078603846FFF7A4FFB8603846FFF7A0FF0D
:1009D0007D68F86000240423AB812C606C60AC60FF
:1009E0006C66EC812C616C61AC61214605F15C00A8
:1009F0000822FFF7F1FCBE68DFF89CB0DFF89CA08E
:100A0000DFF89C90DFF89C80C5F824B00123092210
:100A1000C5F828A0C5F82C90C5F830802D62214675
:100A2000F381B28134607460B4607466346174615F
:100A3000B46106F15C0008220193FFF7CDFCFD686C
:100A4000366212200222C6F824B0C6F828A0C6F8E2
:100A50002C90C6F830802146A881EA812C606C6019
:100A6000AC606C662C616C61AC6105F15C000822C5
:100A7000FFF7B2FC019B2D62C5F824B0C5F828A091
:100A8000C5F82C90C5F83080BB6103B0BDE8F08F8D
:100A90001C5F0008D1080008F10D0008190E0008BD
:100AA000550E0008750E0008024B0349186800F047
:100AB0004BB800BF1C5F000845080008836903B9F4
:100AC0006AE77047704700BF704700BF704700BFBC
:100AD000704700BF024B0349186800F00FB800BF11
:100AE00000000020DD080008024B0349186800F0F0
:100AF00005B800BF00000020CD0800082DE9F04136
:100B000010F148071BD0884600267D68BC68013D6F
:100B10000FD4A389012B05F1FF3506D9B4F90E30A6
:100B20000133204601D0C04706436B1C04F1680422
:100B3000EFD13F68002FE8D13046BDE8F0813E4656
:100B40003046BDE8F08100BF2DE9F84310F14807B9
:100B50001FD0884606464FF000097D68BC68013DFD
:100B600011D4A389012B05F1FF3508D9B4F90E3052
:100B700001332146304602D0C04749EA00096B1CC8
:100B800004F16804EDD13F68002FE6D14846BDE886
:100B9000F883B9464846BDE8F88300BF70B50C46F7
:100BA000B1F90E10002990B015461E4613DB01AABC
:100BB00000F08CF900280EDB029A02F47042A2F5D4
:100BC0000052B2FA82F252094FF480630020326080
:100BD0002B6010B070BDA38900221B06326004D5C3
:100BE000402300202B6010B070BD4FF480630020C4
:100BF0002B6010B070BD00BF8A8992070B4606D5E6
:100C000001F1470201211A601A6159617047F0B57C
:100C100083B001AB6A460C460546FFF7BFFF00995B
:100C20000646284600F074F8B4F90C30D0B1019AA9
:100C3000124F0099AF6243F08003A38120602061CE
:100C400061611AB93343A38103B0F0BD2846B4F9FA
:100C50000E1000F04FF9B4F90C300028F2D043F038
:100C60000103EFE79A05EFD404F1470243F00203D2
:100C70000121A381226022616161E5E7D1080008BA
:100C800091B151F8043C0439002BB8BFC9181F4B6F
:100C90001A68FAB18A4230B40AD908680C18A2421C
:100CA00026D04A60196030BC70478B4203D81A4680
:100CB0005368002BF9D1146815198D420DD006D850
:100CC00008680C189C4219D04B605160EBE70C236C
:100CD0000360E8E74A601960704709680C4411191D
:100CE00099421460DFD10ACB0C4453601460DAE7F8
:100CF000146852684A6020440860D3E71C685B6847
:100D00004B60204408605160CDE700BF8C0000209C
:100D100070B5CC1C24F0030408340C2C38BF0C2410
:100D2000002C06463BDBA14239D8274D296851B13A
:100D30000A68121B04D436E01A68121B1AD5194629
:100D40004B68002BF8D16968002937D0214630461E
:100D500000F03CF8431C22D0C31C23F00305A8423A
:100D600005D0291A304600F031F8013017D02C6038
:100D70002B4604E00B2A0DD91A6013441C6003F1C2
:100D80000B0020F007001A1D821A02D05142995020
:100D900070BD70BD8B420ED05A684A60EFE70C23DD
:100DA0003360002070BD0B2A03D84A680B462A60C6
:100DB000E5E70B46E0E70A460B46F8E7304600F069
:100DC00005F86860C2E700BF8C00002038B5074C0A
:100DD000002305460846236000F0F2F8431C00D0CB
:100DE00038BD2368002BFBD02B6038BDE8480220BB
:100DF00010B50C46B1F90E1000F0A4F8002803DB82
:100E0000636D0344636510BDA38923F48053A381FC
:100E100010BD00BF002070472DE9F0411646B1F922
:100E20000C201F46D3050C46054607D50022022399
:100E3000B1F90E1000F070F8B4F90C20B4F90E10EE
:100E400022F48052A2813B4632462846BDE8F0415A
:100E500000F014B810B50C46B1F90E1000F05CF8B3
:100E6000A389421C0EBF23F4805343F48053606572
:100E7000A38110BDB1F90E1000F016B870B50D4683
:100E8000084C114606461A4628460023236004F003
:100E9000D7FA431C00D070BD2368002BFBD0336011
:100EA00070BD00BFE848022038B5074C0023054656
:100EB0000846236000F05CF8431C00D038BD23686E
:100EC000002BFBD02B6038BDE848022038B50B461C
:100ED000074C0546114618460023236000F050F8E1
:100EE000431C00D038BD2368002BFBD02B6038BDDD
:100EF000E848022038B5074C002305460846236021
:100F000000F046F8431C00D038BD2368002BFBD00E
:100F10002B6038BDE848022070B50D46084C1146DC
:100F200006461A4628460023236000F039F8431C81
:100F300000D070BD2368002BFBD0336070BD00BFB4
:100F4000E848022070B50D46084C114606461A4680
:100F500028460023236000F02BF8431C00D070BD0E
:100F60002368002BFBD0336070BD00BFE84802202F
:100F7000024B58221A604FF0FF307047E8480220B9
:100F8000024B58221A604FF0FF307047E8480220A9
:100F9000024B58221A600020704700BFE848022028
:100FA000024B58221A604FF0FF307047E848022089
:100FB000024B58221A604FF0FF307047E848022079
:100FC000044A05491368002B08BF0B4618441060FB
:100FD0001846704794000020F048022053B94AB9DF
:100FE000002908BF00281CBF4FF0FF314FF0FF3031
:100FF00000F07AB9ADF1080C6DE904CE00F006F806
:10100000DDF804E0DDE9022304B070472DE9F04784
:101010008C460D460446089E002B51D18A42174645
:101020006DD9B2FA82FEBEF1000F0BD0CEF1200CCA
:1010300001FA0EF520FA0CFC02FA0EF74CEA050C48
:1010400000FA0EF44FEA174A250CBCFBFAF81FFA17
:1010500087F90AFB18CC45EA0C4508FB09F3AB42BB
:101060000AD9ED1908F1FF3280F02381AB4240F23A
:101070002081A8F102083D44ED1AA4B2B5FBFAF0B4
:101080000AFB105544EA054400FB09F9A14509D9BA
:10109000E41900F1FF3380F00A81A14540F2078195
:1010A00002383C44A4EB090440EA08400021002E29
:1010B00061D024FA0EF4002334607360BDE8F08739
:1010C0008B4207D9002E54D0002186E82100084623
:1010D000BDE8F087B3FA83F1002940F08E80AB427F
:1010E00002D3824200F2FA80841A65EB03050120E4
:1010F000AC46002E3FD086E81010BDE8F08712B94C
:101100000127B7FBF2F7B7FA87FEBEF1000F34D123
:10111000EB1B3A0C1FFA87FC0121B3FBF2F8250CFC
:1011200002FB183345EA03450CFB08F3AB4207D931
:10113000ED1908F1FF3002D2AB4200F2D1808046B7
:10114000ED1AA3B2B5FBF2F002FB105543EA0544D9
:101150000CFB00FCA44507D9E41900F1FF3302D2CF
:10116000A44500F2B8801846A4EB0C0440EA0840FD
:101170009DE731463046BDE8F087CEF1200405FA00
:101180000EF307FA0EF720FA04F83A0C25FA04F4E5
:1011900048EA0308B4FBF2F14FEA184502FB114498
:1011A0001FFA87FC45EA044501FB0CF3AB4200FA49
:1011B0000EF409D9ED1901F1FF3080F08A80AB42BD
:1011C00040F2878002393D44EB1A1FFA88F5B3FBE1
:1011D000F2F002FB103345EA034500FB0CF3AB428F
:1011E00007D9ED1900F1FF386FD2AB426DD9023843
:1011F0003D44EB1A40EA01418FE7C1F1200722FA92
:1012000007F88B4005FA01F448EA030320FA07FEC9
:101210004FEA134CFD404EEA040EB5FBFCF94FEAD1
:101220001E440CFB19551FFA83F844EA054509FBD7
:1012300008F4AC4202FA01F200FA01FA08D9ED18FA
:1012400009F1FF3043D2AC4241D9A9F102091D4452
:101250002D1B1FFA8EFEB5FBFCF00CFB10554EEA61
:10126000054400FB08F8A04507D9E41800F1FF3554
:1012700029D2A04527D902381C4440EA0940A4EBF2
:101280000804A0FB02894C45C6464D4615D312D032
:1012900056B1BAEB0E0364EB050404FA07F7CB4032
:1012A0001F43CC40376074600021BDE8F0871846CA
:1012B000F8E69046E0E6C245EAD2B8EB020E69EBEA
:1012C00003050138E4E72846D7E7404691E7814621
:1012D000BEE7014678E702383C4445E7084608E7A0
:1012E000A8F102083D442BE7704700BF08B5012074
:1012F00003F091FCFBE7000038B5104C2046FFF7E7
:1013000029F90F4D2846FFF725F90E48FFF722F976
:101310002846FFF71FF92046FFF71CF90A4C4FF447
:101320000041204602F01BF94FF4FA6001F002F888
:101330004FF40041204602F012F938BDB05F0008BA
:10134000B45F0008E05F0008000C004800B587B0FB
:1013500000F0D2FF04F070FA00F03DF8FFF7CCFF88
:101360001148FFF7F7F801AC104D0FCD0FC42B68F3
:101370002360002101A803F034FC0D4B186000200D
:1013800004F0D4F806A80B4B40F8183D00220121C8
:1013900003F04AFC084B186041F2883103F058FC16
:1013A00003F01AFCFEE700BF805F0008085F00083A
:1013B000284202202D5500080448022008B5026882
:1013C000034B9A4200D008BD00F0A6FFFBE700BF28
:1013D000002C0140704708B503F0FCFF08BD002851
:1013E00059D010B5044690F84130002B43D0242347
:1013F00084F841302268136823F0010313602268E7
:10140000636823F0706313612268936823F40043D8
:101410009360E368012B33D02268A36843F404434C
:101420009360E368022B31D02268536843F0007365
:1014300043F4004353602268D36823F40043D3602D
:101440002268236961690B43A16943EA0123D360E0
:101450002268E369216A0B4313602268136843F032
:101460000103136000206064202384F8413020636E
:1014700084F8420010BD80F8403004F059FAB6E715
:101480002268A36843F400439360CAE723684FF4DB
:1014900000625A60C8E70120704790F84130DBB223
:1014A000202B01D00220704790F84030012B20D033
:1014B000012380F84030242380F84130026813680B
:1014C00023F0010313600268136823F48053136050
:1014D00002681368194311600268136843F001033E
:1014E0001360202380F84130002380F840301846F4
:1014F00070470220704790F84130DBB2202B01D0BA
:101500000220704790F84030012B1ED0012380F854
:101510004030242380F841300268136823F001032F
:1015200013600268136823F4706343EA01211160B9
:101530000268136843F001031360202380F84130F0
:10154000002380F84030184670470220704700287A
:1015500053D010B504460023836290F85D30002B11
:1015600040D0022384F85D302268136823F04003E2
:101570001360E368B3F5E06F39D90021B3F5706FFC
:1015800004D0B3F5E06F01D00022A262226B22B931
:10159000B3F5E06F2ED90223236322686368A06845
:1015A00003432069034360690343A06900F40070AA
:1015B0000343E0690343206A0343A06A03431360C3
:1015C0002268638B03F00403606A0343606B034388
:1015D000E06803430B43536000202066012384F836
:1015E0005D3010BD80F85C3004F02CFBB9E74FF49F
:1015F0008051C3E701232363CFE701207047704781
:1016000010B584B0044602685168936803F0410045
:10161000012867D013F0020F02D011F0800F68D1BB
:1016200013F4B07F68D011F0200F65D013F0400F95
:101630000FD094F85D00C0B203285FD0206E40F058
:101640000400206600200090D06800909068009010
:10165000009813F0200F0CD0206E40F0010020669F
:101660000020029090680290106820F04000106006
:10167000029A13F4807F09D0236E43F00803236697
:101680000023039323689B680393039B236E002B23
:1016900032D02268536823F0E0035360012384F8BA
:1016A0005D3011F0030F31D02268536823F003033B
:1016B0005360A36D4BB1174A9A63A06D01F053FFBD
:1016C00018B1236E43F040032366636DA3B1114A42
:1016D0009A63606D01F047FF70B1236E43F04003E1
:1016E000236609E011F0400F94D0E36C2046984740
:1016F00002E0236D2046984704B010BD00230193FB
:10170000D368019393680193019BF5E72046FFF7A7
:1017100076FFF1E71917000808B5806A0023A0F8E2
:101720004630C387FFF76BFF08BD40B338B50446AA
:1017300003684CF6CC421A60036845F255521A60B1
:10174000036842685A60036882689A6000F0ECFDA2
:1017500005462368DA6832B100F0E6FD401B302808
:10176000F7D9032038BD1969E268914202D01A61A5
:10177000002038BD4AF6AA221A60002038BD012098
:1017800070470268136823F49073136002689368CB
:1017900023F001039360202380F872300023036656
:1017A0007047704708B501680A6822F040020A6075
:1017B000202280F8712000224266FFF7F2FF08BD68
:1017C0007047000038B504460268D3691168906814
:1017D00013F00F050CD113F0200F09D011F0200FDA
:1017E00006D0236E002B00F093802046984738BD2A
:1017F000002D6FD010F0010502D111F4907F69D057
:1018000013F0010F07D011F4807F04D00120106283
:10181000626F0243626713F0020F07D035B122688E
:1018200002201062626F42F00402626713F0040F3C
:1018300007D035B1226804201062626F42F00202C4
:10184000626713F0080F09D011F0200F00D12DB1FD
:10185000226808201062626F02436267626F002A8A
:1018600056D013F0200F06D011F0200F03D0236EB6
:101870000BB120469847636F13F0080F04D123681B
:101880009B6813F0400F1FD02046FFF77AFF2368B4
:101890009A6812F0400F13D09A6822F040029A60C2
:1018A000E36E4BB11D4A9A63E06E01F05CFE78B3C3
:1018B000E06E836B984738BD2046FFF781FF38BD47
:1018C0002046FFF77DFF38BD2046FFF779FF002354
:1018D000636738BD13F4801F02D010F4800F0AD163
:1018E00013F0800F0ED011F0800F0BD0636E7BB120
:1018F0002046984738BD4FF480131362204600F00D
:101900008CFB38BD13F0400F02D011F0400F00D116
:1019100038BD2046FFF746FFFAE700BF211900084F
:1019200008B5806A0023A0F85A30A0F85230FFF7BB
:1019300047FF08BD2DE9784B0446016883680269BA
:10194000134342691343C269134308689F4A024024
:1019500013430B602268536823F44053E1680B4340
:101960005360A36922689A498A4201D0216A0B43D5
:10197000916821F430610B4393602368954A934248
:1019800027D0954A934238D0944A93424ED0944AF5
:10199000934261D0934A934274D08D4A934200F0AF
:1019A0008A8010258A4A934200F0AA80E369B3F541
:1019B000004F00F02C81082D00F2B781DFE815F010
:1019C00076018D019701B501A201B501B501B501FF
:1019D000AC0102F55842D2F8882002F00302032A33
:1019E00009D8DFE802F0020481060125DAE70425C0
:1019F000D8E70825D6E71025D4E702F5E632D2F875
:101A0000882002F00C020C2A0ED8DFE802F0070D45
:101A10000D0D090D0D0D6F0D0D0D0B000025C1E70E
:101A20000425BFE70825BDE71025BBE702F5E43232
:101A3000D2F8882002F03002102A09D005D9202AD5
:101A400056D0302A06D10825ACE71AB90025A9E7F7
:101A50000425A7E71025A5E702F5E232D2F8882091
:101A600002F0C002402A09D005D9802A42D0C02AFB
:101A700006D1082596E71AB9002593E7042591E7D2
:101A800010258FE702F5E032D2F8882002F4407288
:101A9000B2F5807F0BD007D9B2F5007F2CD0B2F51C
:101AA000407F06D108257DE71AB900257AE704258D
:101AB00078E7102576E702F5C832D2F8882002F4DC
:101AC0004062B2F5806F0BD007D9B2F5006F15D028
:101AD000B2F5406F06D1082564E71AB9002561E721
:101AE00004255FE710255DE702255BE7022559E73E
:101AF000022557E7022555E7022553E7022551E75E
:101B0000082D11D8DFE805F0081005100C10101092
:101B10001300354800260DE001F05AF8002609E0D0
:101B200000F060FC002605E00020012602E04FF4F2
:101B300000400026002800F0CA80626802EB4203E1
:101B40009842C0F0F580B0EB023F00F2F380082D20
:101B50005AD8DFE805F005591F59295959594F003E
:101B600001F036F800234FEA10694FEA0028626856
:101B7000500818EB000B49F1000C58466146FFF77E
:101B80002DFAA0F54072194B9A4200F2D5802368D5
:101B9000D8609CE05508002315480021401941F108
:101BA0000001FFF71BFAECE700F01CFC00234FEAF2
:101BB00010694FEA00286268500818EB000B49F1E1
:101BC000000C58466146FFF709FADAE7F369FFEFC0
:101BD00000800040003801400044004000480040C0
:101BE000004C0040005000400024F400FFFC0F00B7
:101BF000000024F450080021002310F5000041F1FA
:101C00000001FFF7EBF9BCE701260020B9E7082D3A
:101C100049D8DFE805F0051E2948344848483F0008
:101C200000F0D6FF6268530803EB4003B3FBF2F306
:101C30009BB20026A3F110014FF6EF7291427DD8BE
:101C40009AB222F00F02C3F3420313432268D36017
:101C50003DE000F0CFFF6268530803EB4003B3FBA5
:101C6000F2F39BB20026E5E76268530803F1F473D0
:101C700003F59043B3FBF2F39BB20026DAE700F0E2
:101C8000B1FB6268530803EB4003B3FBF2F39BB272
:101C90000026CFE76268530803F58033B3FBF2F305
:101CA0009BB20026C6E701260023C3E700F090FFA1
:101CB000636800EB5300B0FBF3F080B20026A0F1A4
:101CC00010024FF6EF739A423AD82368D860002387
:101CD000236663663046BDE8788B00F08BFF63684F
:101CE00000EB5300B0FBF3F080B20026E7E7636837
:101CF000580800F5740000F51050B0FBF3F080B206
:101D00000026DCE700F06EFB636800EB5300B0FBDD
:101D1000F3F080B20026D2E76368580800F500406F
:101D2000B0FBF3F080B20026C9E701260020C6E729
:101D30000126CCE70126CAE70126C8E70126C6E747
:101D40000126C4E7436A13F0010F06D00268536806
:101D500023F40033816A0B435360436A13F0020F8C
:101D600006D00268536823F48033C16A0B43536082
:101D7000436A13F0040F06D00268536823F48023EB
:101D8000016B0B435360436A13F0080F06D00268DF
:101D9000536823F40043416B0B435360436A13F0D1
:101DA000100F06D00268936823F48053816B0B43B5
:101DB0009360436A13F0200F06D00268936823F4FF
:101DC0000053C16B0B439360436A13F0400F0AD07A
:101DD0000268536823F48013016C0B435360036C57
:101DE000B3F5801F0BD0436A13F0800F06D0026852
:101DF000536823F40023816C0B43536070470268DF
:101E0000536823F4C003416C0B435360EBE72DE9A7
:101E1000F04105460F4616469846069C2B68DB693E
:101E200037EA03030CBF01230023B3421ED1B4F1F0
:101E3000FF3FF3D02CB100F077FAA0EB080084420A
:101E4000ECD22A68136823F4D07313602A6893686D
:101E500023F001039360202385F8713085F87230F8
:101E6000002385F870300320BDE8F0810020BDE834
:101E7000F0812DE9F04182B01E4690F87130DBB25E
:101E8000202B04D00223184602B0BDE8F08104469E
:101E90000D46904600294ED0002A4ED090F8703062
:101EA000012B01D10223EEE7012380F870300023DB
:101EB0004367212380F8713000F036FA0746A4F812
:101EC0005080A4F852800AE023682A781A850135E8
:101ED000B4F852309BB2013B9BB2A4F85230B4F834
:101EE00052309BB2ABB100963B4600228021204687
:101EF000FFF78DFF18BBA368B3F5805FE4D12369BA
:101F0000002BE1D1226835F8023BC3F308031385A7
:101F1000DEE700963B46002240212046FFF777FF90
:101F2000034608B10323AEE7202284F87120002283
:101F300084F87020A7E70123A5E70123A3E7032383
:101F4000A1E730B583B004460023436700F0ECF905
:101F5000054623681B6813F0080F0ED123681B6821
:101F600013F0040F17D1202384F8713084F87230F5
:101F7000002084F8700003B030BD6FF07E43009302
:101F8000034600224FF400112046FFF740FF0028CF
:101F9000E4D00320EFE76FF07E4300932B4600224E
:101FA0004FF480012046FFF732FF0028DBD00320EA
:101FB000E1E778B310B5044690F871300BB32423F1
:101FC00084F871302268136823F0010313602046FF
:101FD000FFF7B0FC01281FD0636ABBB922685368C1
:101FE00023F4904353602268936823F02A0393609C
:101FF0002268136843F0010313602046FFF7A1FF36
:1020000010BD80F8703003F059FDD8E72046FFF787
:1020100099FEE3E70120704710BD7047704700004C
:102020000268D36843F00103D36003689968084AE3
:102030000A40062A09D09968054A0A40B2F5803F4D
:1020400003D01A6842F001021A600020704700BFF6
:1020500007000100704770477047704710B504468D
:1020600003681A6912F0020F11D0DA6812F0020F39
:102070000DD06FF002021A610123037703689B6998
:1020800013F0030F79D0FFF7E6FF002323772368CF
:102090001A6912F0040F12D0DA6812F0040F0ED091
:1020A0006FF004021A610223237723689B6913F4FB
:1020B000407F68D02046FFF7CEFF002323772368B8
:1020C0001A6912F0080F12D0DA6812F0080F0ED059
:1020D0006FF008021A61042323772368DB6913F089
:1020E000030F57D02046FFF7B6FF0023237723685E
:1020F0001A6912F0100F12D0DA6812F0100F0ED019
:102100006FF010021A61082323772368DB6913F448
:10211000407F46D02046FFF79EFF002323772368A9
:102120001A6912F0010F03D0DA6812F0010F3FD1E3
:1021300023681A6912F0800F03D0DA6812F0800F5A
:102140003DD123681A6912F4807F03D0DA6812F057
:10215000800F3BD123681A6912F0400F03D0DA6870
:1021600012F0400F39D123681A6912F0200F03D002
:10217000DA6812F0200F37D110BDFFF76BFF204651
:10218000FFF76AFF81E72046FFF764FF2046FFF76D
:1021900063FF92E72046FFF75DFF2046FFF75CFFF5
:1021A000A3E72046FFF756FF2046FFF755FFB4E7A9
:1021B0006FF001021A612046FFF700F9B8E76FF0EF
:1021C00080021A61204600F095F8BAE76FF4807239
:1021D0001A61204600F08FF8BCE76FF040021A61E8
:1021E0002046FFF73AFFBEE76FF020021A61204653
:1021F00000F07FF8C0E700000368304A904212D038
:10220000B0F1804F0FD0A2F5943290420BD002F57E
:102210008062904207D002F58062904203D002F5BE
:102220009432904203D123F070034A681343234A47
:1022300090421ED0B0F1804F1BD0A2F59432904254
:1022400017D002F58062904213D002F5806290426E
:102250000FD002F5943290420BD002F540629042CA
:1022600007D002F58062904203D002F5806290426E
:1022700003D123F44073CA68134323F080034A69EF
:10228000134303608B68C3620B6883620B4B9842F5
:102290000FD003F5006398420BD003F540639842DA
:1022A00007D003F58063984203D003F5806398421A
:1022B00001D10B690363012343617047002C014086
:1022C000A8B110B5044690F83D305BB1022384F804
:1022D0003D30211D2068FFF78FFF012384F83D303A
:1022E000002010BD80F83C30FFF798FEEEE701209B
:1022F000704770477047704710B5032001F0B4F97C
:10230000002003F04FFD10B10124204610BD04460B
:1023100003F0EEFAF9E70000024A13680133136094
:10232000704700BF64480220014B1868704700BF27
:102330006448022038B50446FFF7F6FF0546B4F1BD
:10234000FF3F00D00134FFF7EFFF401B8442FAD873
:1023500038BD000030B583B00546204B9B6D13F0AF
:10236000805F0BD001F028F9B0F5007F17D0802DE9
:102370001FD82DD0702D2DD000211BE0174CA36D40
:1023800043F08053A365A36D03F080530193019B39
:1023900001F012F9A36D23F08053A365E4E7802DCB
:1023A00003D9A02D03D9022104E0002102E001217C
:1023B00000E003210A4A136823F007030B4313606C
:1023C000136803F00703994206D0012003B030BD23
:1023D0000221EFE70121EDE70020F7E700100240BE
:1023E00000200240314A9368D26802F0030213F0E1
:1023F0000C030AD00C2B06D0042B1FD0082B20D0A6
:102400000020014610E0012AF6D1284A126812F095
:10241000080F0CD1254AD2F89420C2F30322244994
:1024200051F8221043B100200C2B0DD070471F4AE9
:102430001268C2F30312F2E70846F5E71D480021CF
:10244000F2E71D480021EFE7184BDA6802F00302BB
:10245000DB68C3F302130133022A0AD0032A1AD01D
:10246000B1FBF3F3114AD068C0F3062000FB03F080
:1024700008E01048B0FBF3F30C4AD068C0F3062024
:1024800000FB03F0094BDB68C3F3416301335B00DE
:10249000B0FBF3F0CAE70848B0FBF3F3034AD06897
:1024A000C0F3062000FB03F0ECE700BF0010024081
:1024B0002C6000080024F40000127A00002800F0CC
:1024C000C082F0B583B00446AB4B9D6805F00C05A7
:1024D000DE6806F00306036813F0100F7DD0E5B147
:1024E0000C2D18D0A369002B00F0B480A24A136809
:1024F00043F001031360FFF717FF07469E4B1B686D
:1025000013F0020F40F09380FFF70EFFC01B02286C
:10251000F4D90323A3E2012EE4D1974B1B6813F0F7
:10252000020F03D0A369002B00F08E82206A924B29
:102530001B6813F0080F1DD08F4B1B6803F0F003CE
:1025400083421ED2FFF706FF002840F07F828A4BAD
:102550001A6842F008021A601A6822F0F002216A32
:102560000A431A605A6822F47F42E16942EA012272
:102570005A601EE0804BD3F894301B0903F0F0033F
:10258000DEE77D4B1A6842F008021A601A6822F0F2
:10259000F002216A0A431A605A6822F47F42E16914
:1025A00042EA01225A60206AFFF7D4FE002840F078
:1025B0004F82FFF717FF704B9B68C3F303136F4AFB
:1025C000D35C03F01F03D8406D4B1860002003F06C
:1025D000E9FB0346002840F04282236813F0010F14
:1025E00057D0082D4CD00C2D48D06368B3F5803FF0
:1025F0006ED0B3F5A02F71D05F4B1A6822F48032F1
:102600001A601A6822F480221A606368002B72D064
:10261000FFF78AFE0746584B1B6813F4003F38D17A
:10262000FFF782FEC01B6428F5D9032317E2524B43
:102630001A6842F008021A601A6822F0F002216A51
:102640000A431A605A6822F47F42E16942EA012291
:102650005A60C2E7484A136823F001031360FFF78A
:1026600063FE0746444B1B6813F0020FB5D0FFF71B
:102670005BFEC01B0228F5D90323F0E1032EB4D181
:102680003D4B1B6813F4003F03D06368002B00F040
:10269000E181236813F0020F4FD0042D3CD00C2DA4
:1026A00038D0E368002B76D0334A136843F4807344
:1026B0001360FFF739FE06462F4B1B6813F4806F3B
:1026C00060D1FFF731FE801B0228F5D90323C6E154
:1026D000294A136843F48033136096E703F180437B
:1026E000A3F53C331A6842F480221A601A6842F457
:1026F00080321A6089E7FFF717FE07461E4B1B68FA
:1027000013F4003FC5D0FFF70FFEC01B6428F5D9B6
:102710000323A4E1022EC4D1174B1B6813F4806F6E
:1027200003D0E368002B00F09781134A536823F02D
:10273000FE43216943EA01635360236813F0080FE5
:1027400054D06369002B3AD00B4AD2F8943043F04E
:102750000103C2F89430FFF7E7FD0646064BD3F8B5
:10276000943013F0020F41D1FFF7DEFD801B0228E9
:10277000F4D9032373E100BF001002401460000885
:1027800068000020B74A536823F0FE43216943EAFA
:1027900001635360D1E7B34A136823F48073136075
:1027A000FFF7C2FD0646AF4B1B6813F4806FC4D021
:1027B000FFF7BAFD801B0228F5D903234FE1A94A90
:1027C000D2F8943023F00103C2F89430FFF7ACFD47
:1027D0000646A44BD3F8943013F0020F06D0FFF74F
:1027E000A3FD801B0228F4D9032338E1236813F0EA
:1027F000040F7AD09B4B9B6D13F0805F36D1994BC1
:102800009A6D42F080529A659B6D03F0805301935C
:10281000019B0126944B1B6813F4807F28D0A3688A
:10282000012B39D0052B3FD08E4BD3F8902022F0CE
:102830000102C3F89020D3F8902022F00402C3F8DC
:102840009020A368002B3DD0FFF76EFD0746854B17
:10285000D3F8903013F0020F46D1FFF765FDC01B8F
:1028600041F288339842F2D90323F8E00026D1E7F9
:102870007D4A136843F480731360FFF755FD0746E4
:10288000794B1B6813F4807FC9D1FFF74DFDC01B46
:102890000228F5D90323E2E0724AD2F8903043F0DF
:1028A0000103C2F89030CCE76E4BD3F8902042F091
:1028B0000402C3F89020D3F8902042F00102C3F83C
:1028C0009020BEE7FFF730FD0746664BD3F8903007
:1028D00013F0020F08D0FFF727FDC01B41F2883329
:1028E0009842F2D90323BAE0E6B9236813F0200F27
:1028F00035D0636AE3B15B4AD2F8983043F0010304
:10290000C2F89830FFF710FD0646564BD3F89830C2
:1029100013F0020F23D1FFF707FD801B0228F4D923
:1029200003239CE04F4A936D23F080539365DCE7CB
:102930004C4AD2F8983023F00103C2F89830FFF7E0
:10294000F3FC0646474BD3F8983013F0020F06D03D
:10295000FFF7EAFC801B0228F4D903237FE0A36A77
:10296000002B7BD00C2D00F08180022B23D03D4B1F
:102970001A6822F080721A601B6813F0205F04D17D
:10298000384AD36823F00303D360364AD36823F070
:10299000887323F48033D360FFF7C6FC0446314BC1
:1029A0001B6813F0007F4AD0FFF7BEFC001B022813
:1029B000F5D9032353E02B4A136823F08073136087
:1029C000FFF7B2FC0546274B1B6813F0007F06D0CB
:1029D000FFF7AAFC401B0228F5D903233FE0236B35
:1029E0005A1E636B1B0243EA0213E26A1343E26B53
:1029F0005208013A43EA4253226C5208013A43EA30
:102A00004263A26B43EAC263164AD360136843F081
:102A100080731360D36843F08073D360FFF784FC46
:102A20000446104B1B6813F0007F06D1FFF77CFCB7
:102A3000001B0228F5D9032311E000230FE0002337
:102A40000DE0012318467047012308E0012306E04A
:102A5000012304E0012302E0012300E000231846E3
:102A600003B0F0BD00100240007000400123F6E703
:102A7000002800F09A8070B504464E4B1B6803F0A6
:102A800007038B420CD24B4A136823F007030B4316
:102A90001360136803F00703994201D0012070BD51
:102AA0000D46236813F0010F39D06368032B09D05A
:102AB000022B26D063BB404A126812F0020F06D1E7
:102AC000012070BD3C4A126812F0007F6FD03A4975
:102AD0008A6822F0030213438B60FFF725FC064649
:102AE000354B9B6803F00C036268B3EB820F16D082
:102AF000FFF71AFC801B41F288339842F0D903207B
:102B000070BD2D4A126812F4003FE0D1012070BD63
:102B1000294A126812F4806FD9D1012070BD236850
:102B200013F0020F06D0244A936823F0F003A16843
:102B30000B4393601F4B1B6803F007039D420CD2AD
:102B40001C4A136823F007032B431360136803F038
:102B500007039D4201D0012070BD236813F0040FCC
:102B600006D0154A936823F4E063E1680B43936051
:102B7000236813F0080F07D00F4A936823F46053BB
:102B8000216943EAC1039360FFF72CFC0A4B9B6861
:102B9000C3F30313094AD35C03F01F03D840084B67
:102BA0001860002003F0FEF870BD0120704701207E
:102BB00070BD00BF002002400010024014600008F9
:102BC00068000020014B1868704700BF68000020B3
:102BD00008B5FFF7F7FF054B9B68C3F30223044AD0
:102BE000D35C03F01F03D84008BD00BF00100240B3
:102BF0002460000808B5FFF7E5FF054B9B68C3F3A9
:102C0000C223044AD35C03F01F03D84008BD00BFB1
:102C100000100240246000080F2303600B4B9A68E9
:102C200002F0030242609A6802F0F00282609A6841
:102C300002F4E062C2609B68DB0803F4E0630361B6
:102C4000034B1B6803F007030B6070470010024042
:102C500000200240F8B55D4BDB6813F0030F19D07C
:102C60005A4BDB6803F003030268934204D001244B
:102C7000002C48D02046F8BD002A42D0534BDB68D8
:102C8000C3F3021301334268934201D00124EFE7FA
:102C90000024EDE70368022B18D0032B1DD0012B75
:102CA0000DD00124002CE3D1484EF26822F07302CB
:102CB0004568013D43EA05131343F360D8E7434AEF
:102CC000126812F0020F14D00024EBE73F4A12689A
:102CD00012F4806F0FD00024E4E73C4A126812F42B
:102CE000003F0AD1394A126812F4802F07D000241D
:102CF000D8E70124D6E70124D4E70024D2E7012451
:102D0000D0E70124B4E70F460546304A136823F0A4
:102D100080631360FFF708FB06462C4B1B6813F01B
:102D2000006F05D0FFF700FB801B0228F5D90324B4
:102D3000002C9FD147BB25490B6923F0784323F42E
:102D4000FE43A868EA68D20642EA002213430B61F8
:102D50001E4A136843F080631360FFF7E5FA0646E6
:102D60001A4B1B6813F0006F05D1FFF7DDFA801BCB
:102D70000228F5D90324002C7FF47CAF134A136991
:102D8000A9690B43136175E7012F0FD00F48026942
:102D900022F0C06222F4FE42A9686B695B08013B25
:102DA0005B0643EA012313430361D1E70748026945
:102DB00022F4C00222F4FE42A9682B695B08013BA1
:102DC0005B0543EA012313430361C1E7001002409E
:102DD000F8B5544BDB6813F0030F19D0514BDB6887
:102DE00003F003030268934204D00124002C48D06E
:102DF0002046F8BD002A42D04A4BDB68C3F30213D9
:102E000001334268934201D00124EFE70024EDE74B
:102E10000368022B18D0032B1DD0012B0DD00124E9
:102E2000002CE3D13F4EF26822F073024568013D69
:102E300043EA05131343F360D8E73A4A126812F0E5
:102E4000020F14D00024EBE7364A126812F4806FA8
:102E50000FD00024E4E7334A126812F4003F0AD18D
:102E6000304A126812F4802F07D00024D8E70124DA
:102E7000D6E70124D4E70024D2E70124D0E70124D7
:102E8000B4E70F460546274A136823F080531360C2
:102E9000FFF74AFA0646234B1B6813F0005F05D084
:102EA000FFF742FA801B0228F5D90324002C9FD19A
:102EB00047BB1C494B6923F0784323F4FE43A868C1
:102EC000EA68D20642EA002213434B61154A1368AE
:102ED00043F080531360FFF727FA0646114B1B6837
:102EE00013F0005F05D1FFF71FFA801B0228F5D908
:102EF0000324002C7FF47CAF0A4A536969690B43B1
:102F0000536175E70748426922F0C06222F4FE422D
:102F1000A9682B695B08013B5B0643EA0123134365
:102F20004361D3E7001002402DE9F04182B004462E
:102F3000036813F4006F2FD0836EB3F5800F23D096
:102F400014D9B3F5000F18D0B3F5400F22D10026E5
:102F5000002E40F09980654AD2F8883023F440036F
:102F6000A16E0B43C2F88830374617E093B90021B1
:102F70000430FFF76FFE0646EAE75C4AD36843F485
:102F80008033D3600026E3E700212030FFF720FFE5
:102F90000646DDE70126DBE700273E46236813F4FB
:102FA000805F15D0E36EB3F1807F7CD06ED9B3F132
:102FB000007F72D0B3F1407F7CD1002E7CD14B4A90
:102FC000D2F8883023F04073E16E0B43C2F88830AA
:102FD000236813F4003F00F09280444B9B6D13F084
:102FE000805F6BD10123002B6AD0404B9A6D42F079
:102FF00080529A659B6D03F080530193019B4FF0C3
:1030000001083B4A136843F480731360FFF78CF99F
:103010000546374B1B6813F4807F05D1FFF784F911
:10302000401B0228F5D90326002E63D12F4BD3F87D
:10303000903013F4407316D0D4F88820934212D005
:103040002A4AD2F8903023F44073D2F8901041F419
:103050008031C2F89010D2F8901021F48031C2F87B
:103060009010C2F8903013F0010F2CD1002E40F0D8
:1030700052811E4AD2F8903023F44073D4F888105D
:103080000B43C2F8903036E0374687E793B900210A
:10309000201DFFF7DFFD06468FE7144AD36843F48F
:1030A0008033D36089E7002104F12000FFF790FE10
:1030B000064682E7012680E7374689E7002392E744
:1030C0004FF000089DE7FFF72FF90546074BD3F8AF
:1030D000903013F0020FC9D1FFF726F9401B41F2DF
:1030E00088339842F2D90326C0E700BF001002409F
:1030F000007000403746B8F1000F40F00E812368A1
:1031000013F0010F08D0A44AD2F8883023F003034B
:10311000A16B0B43C2F88830236813F0020F08D06C
:103120009D4AD2F8883023F00C03E16B0B43C2F8C0
:103130008830236813F0040F08D0974AD2F88830FB
:1031400023F03003216C0B43C2F88830236813F05E
:10315000080F08D0904AD2F8883023F0C003616C81
:103160000B43C2F88830236813F0100F08D08A4A46
:10317000D2F8883023F44073A16C0B43C2F8883036
:10318000236813F0200F08D0834AD2F8883023F444
:103190004063E16C0B43C2F88830236813F4007F6E
:1031A00008D07D4AD2F8883023F44023216E0B43A7
:1031B000C2F88830236813F4806F08D0764AD2F8BA
:1031C000883023F44013616E0B43C2F888302368C3
:1031D00013F0400F08D0704AD2F8883023F44053DF
:1031E000216D0B43C2F88830236813F0800F08D09C
:1031F000694AD2F8883023F44043616D0B43C2F82A
:103200008830236813F4807F08D0634AD2F888306E
:1032100023F44033A16D0B43C2F88830236813F4C4
:10322000801F08D05C4AD2F89C3023F00303E16D84
:103230000B43C2F89C30236813F4005F0FD0564A4A
:10324000D2F8883023F04063216F0B43C2F88830F6
:10325000236FB3F1006F66D0B3F1806F68D023683D
:1032600013F4002F0FD04C4AD2F8883023F040637B
:10327000616F0B43C2F88830636FB3F1006F5FD0AA
:10328000B3F1806F61D0236813F4802F0FD0424ACE
:10329000D2F8883023F04063A16F0B43C2F8883026
:1032A000A36FB3F1006F58D0B3F1806F5AD0236889
:1032B00013F4804F0FD0384AD2F8883023F04053AF
:1032C000E16F0B43C2F88830E36FB3F1805F51D0F8
:1032D000B3F1005F56D0236813F4004F09D02E4A93
:1032E000D2F8883023F08043D4F880100B43C2F822
:1032F0008830236813F4803F09D0274AD2F88830F9
:1033000023F00043D4F884100B43C2F888303846C9
:1033100002B0BDE8F0813746EDE61F4A936D23F019
:1033200080539365EBE6D36843F48013D36096E74C
:103330000121201DFFF78EFC002890D007468EE764
:10334000D36843F48013D3609DE70121201DFFF76C
:1033500081FC002897D0074695E7D36843F4801393
:10336000D360A4E70121201DFFF774FC00289ED044
:1033700007469CE70221201DFFF76CFC0028AAD01D
:103380000746A8E7022104F12000FFF721FD0028ED
:10339000A1D007469FE700BF00100240F0B583B000
:1033A00000234AE04FEAD30E0EF1080E50F82E40EB
:1033B00003F00706B6000F27B74024EA07040F6999
:1033C00007FA06F6344340F82E4043E0072600E0B3
:1033D0000026BE40354302345A4E46F824505A4C1B
:1033E0002568D44305EA04064F6817F4803F01D0EE
:1033F00042EA0506544D2E606D6804EA05064F68E2
:1034000017F4003F01D042EA05064F4D6E60AD68EB
:1034100004EA05064F6817F4801F01D042EA05064A
:10342000494DAE60ED682C404E6816F4001F01D087
:1034300042EA0504444AD46001330A6832FA03F4CC
:103440007ED001259D402A40F6D04C68022CA9D0A0
:10345000122CA7D006684FEA430E032404FA0EF498
:10346000E44326404F6807F0030707FA0EF73E4390
:1034700006604E68771E012F03D9112E01D0122E3F
:103480000FD186682640CF6807FA0EF73E43866064
:10349000466826EA05054E68C6F300169E40354389
:1034A0004560C5682C408D6805FA0EF52C43C46054
:1034B0004C6814F0805FBFD0244C256E45F00105A8
:1034C0002566246E04F001040194019C9C08A61C4E
:1034D0001C4D55F8265003F00306B7000F26BE40DA
:1034E00025EA0605B0F1904F3FF472AF184EB04296
:1034F0001AD006F58066B04218D006F58066B04254
:1035000016D006F58066B04214D006F58066B0424B
:1035100012D006F58066B04210D006F58066B04243
:103520003FF454AF082654E7012652E7022650E73D
:1035300003264EE704264CE705264AE7062648E719
:1035400003B0F0BD00000140000401400010024043
:10355000000400480AB9816270478161704743697D
:1035600059404161704708B590F82530DBB2022B15
:1035700003D00423C363012008BD0268136823F04D
:103580000E0313600268136823F001031360016CDB
:10359000436C03F01C03012202FA03F34B6080F832
:1035A0002520002380F82430836B13B19847002036
:1035B00008BD002008BD0000024B186800F4C06080
:1035C000704700BF00700040B0F5007F0FD01F4B68
:1035D0001B6803F4C063B3F5806F34D01B4A1368D3
:1035E00023F4C06343F48063136000207047174BDB
:1035F0001B6803F4C063B3F5007F20D0134A13683F
:1036000023F4C06343F400731360114B1A68322330
:1036100003FB02F30F4AA2FB03239B0C013300E0E0
:10362000013B0A4A526912F4806F01D0002BF7D196
:10363000064B5B6913F4806F03D0032070470020B2
:103640007047002070470020704700BF00700040A6
:103650006800002083DE1B43024A536843F4007372
:103660005360704700700040074AD36823F4E0635A
:103670001B041B0C000200F4E060184340F0BF6024
:1036800040F40030D060704700ED00E030B4164BDD
:10369000DB68C3F30223C3F10704042C28BF04240E
:1036A0001D1D062D17D9033B012505FA04F4013C25
:1036B0002140994005FA03F3013B134019430028C8
:1036C0000BDB0901C9B200F1604000F5614080F8F0
:1036D000001330BC70470023E6E700F00F0009013B
:1036E000C9B2024B1954F4E700ED00E014ED00E01C
:1036F000420900F01F00012303FA00F0014B43F8D8
:103700002200704700E100E0064B1A681368B3FA24
:1037100083F35B09036013B9D3681868704700200E
:10372000704700BF9800002008B5416000619142D9
:103730000CD8D21A83699A4201D3012008BD011D19
:10374000094B186800F05FFD002008BD9A4201D2C5
:10375000994206D2011D054B186800F054FD002067
:1037600008BD012008BD00BF9C000020980000207B
:1037700038B501F027FC0F4B1B6813B101F044FC76
:1037800038BD0D4D284600F024FD0C4C204600F0BD
:1037900020FD0B4B1D600B4B1C6000220C210A20EE
:1037A00000F0D4FA034B18600028E7D0064900F077
:1037B000D3FCE3E7CC000020A0000020B4000020F0
:1037C000980000209C000020FC5F00082DE9F041DB
:1037D000079C41B94FF0100383F31188BFF36F8F3B
:1037E000BFF34F8FFEE70F4674B11D461646804665
:1037F000FFF7BEFFC4F80080A761E6612562069B63
:103800006362201D00F0F0FCBDE8F08100B583B0DC
:10381000FFF7AEFF0E4B1B68A3B10E4B01930323C2
:10382000009300234FF480720B490C4800F08CFE8B
:1038300050B94FF0100383F31188BFF36F8FBFF3BC
:103840004F8FFEE70020F3E703B05DF804FB00BFF5
:10385000CC000020D000002004600008593B000884
:103860002DE9F04182B005460E46174698462820BD
:1038700001F082FA044640B10190089B0093434650
:103880003A4631462846FFF7A1FF204602B0BDE880
:10389000F0810000C0B130B585B015460446174A26
:1038A000106840B31A4601910295039405291CDC67
:1038B00001F01CF9022810D000231A4601A90F4874
:1038C000006800F067FA14E04FF0100383F31188EA
:1038D000BFF36F8FBFF34F8FFEE70023089A01A954
:1038E0000648006800F056FA03E0002301A900F042
:1038F00015FB05B030BD0020FBE700BFCC00002069
:1039000070B582B01A4B1B681A6852B3DB681E6828
:10391000DC68251D284600F090FC636A2046984725
:10392000E369012BEED1A36933449E4207D2636061
:10393000246129460E4B186800F065FCE2E700217F
:1039400000910B4632462046FFF7A4FF0028D9D14C
:103950004FF0100383F31188BFF36F8FBFF34F8FC6
:10396000FEE7044A106802490860136002B070BDA7
:10397000980000209C00002038B5054600F060FE4D
:103980000446074B1B68984205D300232B60044B69
:103990001C60204638BDFFF7B3FF01232B60F6E71C
:1039A000C800002070B582B005460E46144B1B6857
:1039B000DB68DC68201D00F040FCE369012B04D0CB
:1039C000636A2046984702B070BDA1692B46324613
:1039D00029442046FFF7A8FE0028F1D000210091DD
:1039E0000B462A462046FFF755FF0028E8D14FF046
:1039F000100383F31188BFF36F8FBFF34F8FFEE780
:103A00009800002070B582B006460C4600F010FE0B
:103A100001A8FFF7B1FF019B23BB05460CB9B042DB
:103A200019D22CB1114B1B681C68B4FA84F46409D8
:103A30002246711B0E4B186800F0A2FB00F096FEA8
:103A400038B94FF080520B4B1A60BFF34F8FBFF362
:103A50006F8F02B070BD00F089FE29463046FFF737
:103A6000A1FFF6E700F082FEF3E700BF9C00002014
:103A7000CC00002004ED00E030B587B0002203A99F
:103A8000344B186800F0BAFA002860D0039B002B72
:103A9000F4DB059C636913B1201D00F0CEFB02A886
:103AA000FFF76AFF039B092BE8D801A252F823F025
:103AB000D93A0008D93A0008D93A00087D3A0008F6
:103AC000213B0008473B0008D93A0008D93A0008D2
:103AD0007D3A0008213B00080499A5690B4602467F
:103AE00029442046FFF720FE0028C7D0636A2046FD
:103AF0009847E369012BC1D1A269002100910B46CF
:103B0000049802442046FFF7C5FE0028B6D14FF0C6
:103B1000100383F31188BFF36F8FBFF34F8FFEE75E
:103B20000499A16131B10346024601442046FFF7E2
:103B3000FBFDA3E74FF0100383F31188BFF36F8FF2
:103B4000BFF34F8FFEE7204601F09AF996E707B0E2
:103B500030BD00BFCC00002000B583B001A8FFF746
:103B6000D3FD0199FFF74EFFFFF786FFF6E710B58B
:103B7000044601F027FAA26BE36B9A4204D00024BA
:103B800001F042FA204610BD0124F9E710B50446C1
:103B900001F018FAA36B23B1002401F035FA204696
:103BA00010BD0124F9E770B504461646856B026C1A
:103BB0004AB9036853BB406800F0A8FF0023636064
:103BC0000135A56370BD6EB98068FCF76BFB226C94
:103BD000A3681344A3606268934219D32368A36067
:103BE0000020EDE7C068FCF75DFB236C5B42E268F8
:103BF0001A44E26021688A4202D262681344E36098
:103C0000022E07D145B1013D0020D9E70020D7E7BA
:103C10000020D5E70020D3E70020D1E7026C72B185
:103C200010B50346C4681444C4604068844201D39C
:103C30001868D8600846D968FCF734FB10BD704797
:103C400038B5054601F0BEF995F8454064B201E08B
:103C5000013C64B2002C0ADD6B6A43B105F124001B
:103C600000F0ACFE0028F3D000F03AFFF0E7FF23AD
:103C700085F8453001F0C8F901F0A4F995F8444001
:103C800064B201E0013C64B2002C0ADD2B6943B14F
:103C900005F1100000F092FE0028F3D000F020FFA4
:103CA000F0E7FF2385F8443001F0AEF938BD00009D
:103CB00038B530B304460D4601F084F92168E26B53
:103CC000236C03FB021060600020A063A160013A36
:103CD00002FB0313E360FF2384F8443084F845308B
:103CE000C5B92369F3B104F1100000F067FEC8B153
:103CF0004FF080520D4B1A60BFF34F8FBFF36F8FA1
:103D000010E04FF0100383F31188BFF36F8FBFF300
:103D10004F8FFEE704F1100000F05BFA04F124007D
:103D200000F057FA01F070F9012038BD04ED00E011
:103D300010B5029B0C4639B11A60D8631C6401218E
:103D40001846FFF7B5FF10BD1B60F6E740B94FF00E
:103D5000100383F31188BFF36F8FBFF34F8FFEE71C
:103D6000F0B583B0054611B101FB00F000E0002082
:103D700017460C46483000F0FFFF064638B1009069
:103D80003B4600F1480221462846FFF7D1FF304666
:103D900003B0F0BDF0B585B0019260B1044699B1B1
:103DA0000125BDB94FF0100383F31188BFF36F8F66
:103DB000BFF34F8FFEE74FF0100383F31188BFF37B
:103DC0006F8FBFF34F8FFEE7026C0AB90125E8E75A
:103DD0000025E6E7022B09D06DB94FF0100383F3FD
:103DE0001188BFF36F8FBFF34F8FFEE7E26B012A9D
:103DF000F2D00025F0E71E460F4600F077FE10B91E
:103E0000019B03B1002545B94FF0100383F31188DE
:103E1000BFF36F8FBFF34F8FFEE700252CE03246D4
:103E200039462046FFF7BFFE636A8BB104F12400D8
:103E300000F0C4FD38B14FF08052374B1A60BFF329
:103E40004F8FBFF36F8F01F0DFF8012005B0F0BD99
:103E50000028F8D04FF080522F4B1A60BFF34F8FDD
:103E6000BFF36F8FEFE701F0CFF80020EEE72046B9
:103E7000FFF7E6FE00F07AFC01F0A4F8A26BE36B1A
:103E80009A42CCD3022ECAD0019B002BEBD01DB995
:103E900002A800F0D9FD012501F0B6F800F0C8FB3A
:103EA00001F090F894F844305BB2B3F1FF3F02D1D7
:103EB000002384F8443094F845305BB2B3F1FF3FFF
:103EC00002D1002384F8453001F09EF801A902A830
:103ED00000F0C6FDC8B92046FFF749FE0028C6D04D
:103EE000019904F1100000F035FD2046FFF7A8FE0F
:103EF00000F03CFC0028BFD14FF08052064B1A6006
:103F0000BFF34F8FBFF36F8FB6E72046FFF798FEE2
:103F100000F02CFC002099E704ED00E02DE9F843C7
:103F200060B1044699B10120B8B94FF0100383F392
:103F30001188BFF36F8FBFF34F8FFEE74FF0100371
:103F400083F31188BFF36F8FBFF34F8FFEE7006CD1
:103F500008B90120E8E70020E6E7022B09D068B99C
:103F60004FF0100383F31188BFF36F8FBFF34F8FB0
:103F7000FEE7E56B012DF2D00020F0E71F469046EA
:103F8000894601F049F9EFF311864FF0100383F3EE
:103F90001188BFF36F8FBFF34F8FA26BE36B9A4211
:103FA00001D3022F21D194F845506DB23A464946CB
:103FB0002046FFF7F8FDB5F1FF3F10D1636AB3B1BA
:103FC00004F1240000F0FAFC98B1B8F1000F12D00F
:103FD0000120C8F8000086F31188BDE8F8836B1C47
:103FE0005BB284F845300120F5E70020F3E70120BB
:103FF000F1E70120EFE70120EDE70000F0B585B023
:10400000019260B1044699B10125BDB94FF010038A
:1040100083F31188BFF36F8FBFF34F8FFEE74FF02D
:10402000100383F31188BFF36F8FBFF34F8FFEE749
:10403000036C0BB90125E8E70025E6E70E4600F022
:1040400055FD10B9019B03B1002545B94FF0100390
:1040500083F31188BFF36F8FBFF34F8FFEE7002705
:104060002FE031462046FFF7D9FD013DA5632369C6
:1040700063B104F1100000F0A1FC38B14FF08052A0
:10408000344B1A60BFF34F8FBFF36F8F00F0BCFF4C
:10409000012005B0F0BD00F0B7FF0020F9E702A84D
:1040A00000F0D2FC012716E0002384F844301EE023
:1040B000002384F8453020E02046FFF7C1FD00F0E2
:1040C00055FB00F07FFFA56B002DCAD1019B002B93
:1040D000E1D0002FE3D000F097FF00F0A9FA00F044
:1040E00071FF94F844305BB2B3F1FF3FDCD094F839
:1040F00045305BB2B3F1FF3FDAD000F085FF01A994
:1041000002A800F0ADFCC8B92046FFF73FFD00282B
:10411000D2D0019904F1240000F01CFC2046FFF7E6
:104120008FFD00F023FB0028CBD14FF08052094BCC
:104130001A60BFF34F8FBFF36F8FC2E72046FFF7C0
:104140007FFD00F013FB2046FFF720FD0028B8D0CC
:1041500000209EE704ED00E00023072B0CD8074A5F
:1041600052F833200AB10133F7E7044A42F833101A
:1041700002EBC30358607047704700BF68480220D5
:1041800070B504460D46164600F01CFF94F8443006
:104190005BB2B3F1FF3F0DD094F845305BB2B3F1A1
:1041A000FF3F0BD000F030FFA36B5BB12046FFF761
:1041B00047FD70BD002384F84430EDE7002384F808
:1041C0004530EFE73246294604F1240000F0DAFBDF
:1041D000ECE700F1080343604FF0FF328260C360F8
:1041E0000361002303607047002303617047436845
:1041F0004B609A688A609A685160996008610368A8
:1042000001330360704730B40D68B5F1FF3F02D051
:1042100000F1080202E0026904E01A4653681C68D3
:10422000A542FAD253684B6099608A605160086178
:1042300003680133036030BC7047036942688168DA
:1042400091608268416851605A68904206D00022AD
:1042500002611A68013A1A601868704782685A60E9
:10426000F5E700000A4B1B681B684BB901234BB9EB
:10427000074B1B68DB68DB685A68064B1A6070479F
:104280000023F4E74FF0FF32024B1A60704700BF83
:10429000D8000020B001002010B50446006B00F0EB
:1042A000EFFD204600F0ECFD10BD2DE9F047804603
:1042B0009946089D099F0A9C266B02F18042013AAB
:1042C00006EB820626F0070600230F2B07D8C85CF2
:1042D000E21882F83400CA5C0AB10133F5E7002322
:1042E00084F84330062D00D90625E56265644FF059
:1042F000000AC4F848A0201DFFF776FF04F118005B
:10430000FFF772FF2461C5F10705A5616462C4F877
:104310004CA084F850A04A464146304600F026FEA4
:10432000206007B13C60BDE8F087000038B500248C
:1043300007E004EB840293000E481844FFF749FF9E
:104340000134062CF5D90C4D2846FFF742FF0B4CE3
:104350002046FFF73EFF0A48FFF73BFF0948FFF7FB
:1043600038FF0948FFF735FF084B1D60084B1C60FC
:1043700038BD00BFE000002084010020980100202B
:10438000B8010020E4010020D0010020D800002066
:10439000DC00002010B5044600F014FE204A13682B
:1043A000013313601F4B1B68002B31D01E4B1B6861
:1043B0003BB91C4B1B68DA6AE36A9A4201D8194B75
:1043C0001C601A4A136801331360E36A01229A40A1
:1043D0001749086802430A6003EB83039A00211D12
:1043E00014481044FFF703FF00F00EFE0E4B1B684D
:1043F0006BB10C4B1B68DA6AE36A9A4207D24FF042
:1044000080520D4B1A60BFF34F8FBFF36F8F10BDFB
:10441000044B1C601368012BD3D1FFF787FFD0E753
:104420006C010020D4000020CC0100207C01002081
:1044300080010020E000002004ED00E00F4B1B682D
:10444000D3B110B500F0BEFD0D4BDB68DC68201D5C
:10445000FFF7F3FE0B4A1368013B1360074A13682A
:10446000013B136000F0D0FD2046FFF715FF034B22
:104470001B68002BE6D110BD704700BF7001002003
:10448000E40100206C01002008B5FFF7D7FF064BC0
:104490001B68012BF9D94FF08052044B1A60BFF30F
:1044A0004F8FBFF36F8FF0E7E000002004ED00E0D6
:1044B00070B504460E461D4B1D681D4B1868043030
:1044C000FFF7BBFE50B91A4B1B68DA6A012303FAE7
:1044D00002F218490B6823EA02030B60B4F1FF3FB4
:1044E00013D02C44124B1B685C60A54216D8124BAB
:1044F00018680F4B19680431FFF785FE0F4B1B68D6
:104500009C4201D20D4B1C6070BD002EE9D0084BBF
:10451000196804310A48FFF76AFE70BD094B186834
:10452000034B19680431FFF76EFE70BDF8010020DF
:10453000D400002080010020D8000020B00100201D
:10454000D0010020DC0000202DE9F04385B00646B4
:104550000F4615469846900000F00EFC00B38146C9
:10456000542000F009FC0446B0B1C0F83090CCB142
:104570000023039302940D9B01930C9B00934346ED
:104580002A4639463046FFF790FE2046FFF702FFE5
:10459000012005B0BDE8F083484600F071FCE6E775
:1045A0000024E4E74FF0FF30F3E7000000B583B0EC
:1045B000194B019300230093802218491848FFF7F4
:1045C000C3FF012807D0012808D0B0F1FF3F1AD05F
:1045D00003B05DF804FBFFF719F9F4E74FF010039F
:1045E00083F31188BFF36F8FBFF34F8F4FF0FF320C
:1045F0000C4B1A6001220C4B1A6000220B4B1A6004
:1046000000F082FDE4E74FF0100383F31188BFF35D
:104610006F8FBFF34F8FFEE7AC0100200C600008E6
:1046200089440008B0010020CC010020F8010020DE
:10463000024A136801331360704700BF78010020FD
:10464000014B1868704700BFF8010020F8B53C4BDB
:104650001B68002B68D13B4B1D6801351D60C5B937
:10466000394B1B681B6843B14FF0100383F311886B
:10467000BFF36F8FBFF34F8FFEE7334A1168334BA1
:10468000186810601960324A136801331360FFF72D
:10469000E9FD304B1B689D423AD200242E4B1B682B
:1046A000DB6A03EB83039A002C4B9B58012B40D908
:1046B00001243EE00124244B1B681B6853B30023F4
:1046C00053BB214B1B68DB68DE6873689D4228D3AF
:1046D000371D3846FFF7B1FDB36A1BB106F118006C
:1046E000FFF7ABFDF36A01229A401D4908680243B7
:1046F0000A6003EB83039A00394618481044FFF719
:1047000076FDF26A144B1B68DB6A9A42D2D2D2E77A
:104710000024D0E70123D3E74FF0FF320D4B1A609E
:10472000BCE70C4A1360B9E70E4A13680133136003
:1047300000240D4B1B6803B101242046F8BD00BFC7
:1047400078010020F8010020D8000020DC000020C3
:10475000B4010020B0010020D4000020E0000020BF
:104760008001002074010020FC01002038B5354B89
:104770001B6843B94FF0100383F31188BFF36F8FA9
:10478000BFF34F8FFEE700F01DFC2E4B1A68013A75
:104790001A601B68002B50D12B4B1B6823B90024D7
:1047A00000F032FC204638BD0024284B1B681BB3A8
:1047B000264BDB68DC6804F11800FFF73EFD251D81
:1047C0002846FFF73AFDE36A01229A40204908682B
:1047D00002430A6003EB83039A0029461D481044F4
:1047E000FFF705FDE26A1C4B1B68DB6A9A42DCD3CB
:1047F00001221A4B1A60D8E70CB1FFF733FD184BB2
:104800001C6874B9154B1B68CBB14FF08052154B27
:104810001A60BFF34F8FBFF36F8F0124C0E7013CD5
:1048200007D0FFF713FF0028F9D001220B4B1A60C5
:10483000F5E700220A4B1A60E4E70024B0E7002401
:10484000AEE700BF780100206C010020B801002015
:1048500080010020E0000020D4000020FC010020A6
:104860007401002004ED00E010B5A8B10446104B1F
:104870001B6843B14FF0100383F31188BFF36F8FB0
:10488000BFF34F8FFEE7FFF7D3FE00212046FFF76F
:104890000FFEFFF76BFF00E0002038B94FF08052A9
:1048A000044B1A60BFF34F8FBFF36F8F10BD00BF73
:1048B0007801002004ED00E0214B1B68C3B9002201
:1048C000204B1A60204B1B68B3FA83F3DBB2C3F1B1
:1048D0001F0303EB83018A001C498A5862B94FF019
:1048E000100383F31188BFF36F8FBFF34F8FFEE781
:1048F0000122144B1A60704710B414489A00D4185F
:10490000A10001444C6864684C601A44910008316D
:10491000084484420BD003EB83039A000B4B1344EF
:104920005B68DA680A4B1A605DF8044B7047606890
:1049300003EB83029100054A0A445060EBE700BF95
:1049400078010020FC01002080010020E000002010
:10495000D400002040B94FF0100383F31188BFF357
:104960006F8FBFF34F8FFEE710B50C46044B1968ED
:104970001831FFF748FC01212046FFF799FD10BDD3
:10498000D400002038B570B10C4615460A4A1168AB
:104990001831FFF72CFC0DB14FF0FF3429462046AB
:1049A000FFF786FD38BD4FF0100383F31188BFF386
:1049B0006F8FBFF34F8FFEE7D400002038B5C36878
:1049C000DC6824B304F118052846FFF736FC184BC1
:1049D0001B682BBB251D2846FFF72FFCE36A01222D
:1049E0009A401449086802430A6003EB83039A0063
:1049F000294611481044FFF7FAFBE26A0F4B1B6887
:104A0000DB6A9A4211D901200D4B186038BD4FF076
:104A1000100383F31188BFF36F8FBFF34F8FFEE74F
:104A200029460848FFF7E3FBE7E7002038BD00BF51
:104A30007801002080010020E0000020D400002048
:104A4000FC010020B8010020034B1B680360034BEE
:104A50001B684360704700BFB4010020F8010020CC
:104A6000F8B5E0B1054619B30C4600F0ABFA1A4BA5
:104A700018686968421A2368B3F1FF3F28D02F688D
:104A8000164E3668B74201D0884223D29A4218D3D4
:104A900000232360012400F0B7FA2046F8BD4FF050
:104AA000100383F31188BFF36F8FBFF34F8FFEE7BF
:104AB0004FF0100383F31188BFF36F8FBFF34F8F55
:104AC000FEE79B1A23602846FFF7BEFF0024E2E7BB
:104AD0000024E0E70124DEE7F8010020B401002013
:104AE0000122014B1A607047FC010020054B1B6836
:104AF00023B1054B1B681BB902207047012070478A
:104B000000207047CC0100207801002000284AD006
:104B100038B50446274A1268904208D04FF0100377
:104B200083F31188BFF36F8FBFF34F8FFEE7826C63
:104B300042B94FF0100383F31188BFF36F8FBFF3B7
:104B40004F8FFEE7013A8264C06A616C88422CD0C4
:104B50006ABB251D2846FFF770FB70B9E26A02EBBD
:104B600082018B001449CB583BB9012303FA02F2AE
:104B700012490B6823EA02030B60636CE362C3F122
:104B80000702A261012404FA03F20C4908680243F7
:104B90000A6003EB83039A00294607481044FFF795
:104BA00026FB204638BD00207047002038BD00207D
:104BB00038BD00BFD4000020E000002080010020AC
:104BC000842801D00330704700207047EFF3058040
:104BD000003018BF0120704708B5FFF7E7FC002040
:104BE00008BDF0B585B00F46446805680669B0F9A0
:104BF0000800FFF7E5FF03AB019300903B46B2B21C
:104C000029462046FFF7A0FC012802D1039805B0F1
:104C1000F0BD0020FBE708B5034600B901231846A4
:104C2000FFF722FE002008BD00B583B0134601291E
:104C300009D000220168009101210448FEF710FE0E
:104C400003B05DF804FB0122F4E700BFEC5F00084D
:104C500030B585B00546002303930C4601B9012405
:104C6000FFF7B4FFC0B10023009303AB2246092134
:104C70002846FEF70FFE012802D0FF2005B030BD08
:104C8000039BB3B14FF080520B4B1A60BFF34F8FB1
:104C9000BFF36F8F0020F1E7002300932246042129
:104CA0002846FEF7F7FD012801D0FF20E6E70020A7
:104CB000E4E70020E2E700BF04ED00E0124A12F052
:104CC000070F1ED0D11D21F00701C1F51033134489
:104CD0000A460E480260002141601344083B23F05D
:104CE00007030B48036059601960991A51601360FB
:104CF000084B1960084B19604FF00042074B1A60CF
:104D000070474FF41033E4E7040200201042022001
:104D1000000200200C42022008420220044202202D
:104D200010B4134B1A6882421BD359685C18A04216
:104D300003D1406801445960184641684418A242B2
:104D400013D10C4C2468A2420DD05268114441602A
:104D50001A6812680260984200D018605DF8044B2F
:104D600070471346DEE70460F5E70260F3E700BF33
:104D7000104202200002002070B50446FFF758FCE4
:104D80003A4B1B68BBB13A4B1B681C4263D1ACB1B8
:104D9000083414F0070F11D024F00704083404F08D
:104DA00007035BB14FF0100383F31188BFF36F8FDC
:104DB000BFF34F8FFEE7FFF781FFE4E7002C4CD0F5
:104DC0002C4B1B689C424AD82B4B1D6801E02B469C
:104DD00015466A68944202D92A68002AF7D1234A04
:104DE000126895423DD01E6808362A681A606B68C2
:104DF0001B1B102B10D9281910F0070F08D04FF0EB
:104E0000100383F31188BFF36F8FBFF34F8FFEE75B
:104E100043606C60FFF784FF6A6816490B689B1A51
:104E20000B60164909688B4201D214490B60104B84
:104E30001B6813436B6000232B60FFF797FC16F091
:104E4000070F10D04FF0100383F31188BFF36F8F5B
:104E5000BFF34F8FFEE70026EFE70026EDE70026C1
:104E6000EBE70026E9E7304670BD00BF00020020F6
:104E70000442022008420220104202200C4202207A
:104E800080B338B50446A0F1080550F8042C164943
:104E900009680A4208D14FF0100383F31188BFF369
:104EA0006F8FBFF34F8FFEE750F8080C40B14FF003
:104EB000100383F31188BFF36F8FBFF34F8FFEE7AB
:104EC00022EA010244F8042CFFF7B2FB54F8041C58
:104ED000064A13680B4413602846FFF721FFFFF7CB
:104EE00045FC38BD704700BF044202200842022042
:104EF00082B0002301930D4B1B68B3F1FF3F08D034
:104F00004FF0100383F31188BFF36F8FBFF34F8F00
:104F1000FEE74FF0100383F31188BFF36F8FBFF3E9
:104F20004F8F019B002BFCD002B070476400002023
:104F300008480068006880F308884FF0000080F39C
:104F4000148862B661B6BFF34F8FBFF36F8F00DF77
:104F500000BF000008ED00E0DFF80C00016841F43C
:104F6000700101607047000088ED00E04FF0807331
:104F700040F8043C21F0010140F8081C054B40F8C2
:104F80000C3C40F8202C6FF0020340F8243C4438DD
:104F9000704700BFF14E0008000000000000000054
:104FA000074B19680868B0E8F04F80F30988BFF331
:104FB0006F8F4FF0000080F311887047AFF30080CF
:104FC000D40000204FF0100383F31188BFF36F8FDC
:104FD000BFF34F8F0A4A136801331360012B0DD1C1
:104FE000084B1B6813F0FF0F08D04FF0100383F33A
:104FF0001188BFF36F8FBFF34F8FFEE7704700BF7D
:105000006400002004ED00E0094B1B6843B94FF039
:10501000100383F31188BFF36F8FBFF34F8FFEE749
:10502000013B034A13600BB983F31188704700BF3B
:1050300064000020000000000000000000000000EC
:10504000EFF30980BFF36F8F154B1A681EF0100F36
:1050500008BF20ED108A20E9F04F10602DE909000B
:105060004FF0100080F31188BFF34F8FBFF36F8FA5
:10507000FFF722FC4FF0000080F3118809BC19688B
:105080000868B0E8F04F1EF0100F08BFB0EC108AAF
:1050900080F30988BFF36F8F704700BFAFF30080C4
:1050A000D400002008B54FF0100383F31188BFF33C
:1050B0006F8FBFF34F8FFFF7C9FA18B14FF08052CF
:1050C000024B1A60002383F3118808BD04ED00E051
:1050D000084A0023136008490B60084B1B68084905
:1050E000A1FB03139B09013B06490B6007231360D7
:1050F000704700BF10E000E018E000E0680000200A
:10510000D34D621014E000E03A4B1A683A4B9A42D1
:1051100008D14FF0100383F31188BFF36F8FBFF3F3
:105120004F8FFEE7334B1A68344B9A4208D14FF049
:10513000100383F31188BFF36F8FBFF34F8FFEE728
:1051400010B582B02E4B1A78D2B20192FF221A709B
:105150001B78DBB28DF803309DF8033003F01003A9
:10516000284A13700722284B1A6009E0264A136860
:10517000013B13609DF803305B00DBB28DF8033018
:105180009DF8033013F0800FF0D11F4B1B68032BE9
:1051900008D04FF0100383F31188BFF36F8FBFF374
:1051A0004F8FFEE71B0203F4E063174A1360019B75
:1051B000DBB2134A1370154B1A6842F470021A607E
:1051C0001A6842F070421A60FFF782FF0024104B09
:1051D0001C60FFF7C1FE0F4A136843F040431360A1
:1051E000FFF7A6FEFFF768FBFFF782FE204602B03E
:1051F00010BD00BF00ED00E071C20F4170C20F4151
:1052000000E400E0184202201C42022020ED00E0F1
:105210006400002034EF00E0EFF305830F2B0FD97B
:10522000104A9B5CDBB2104A1278934208D24FF0CE
:10523000100383F31188BFF36F8FBFF34F8FFEE727
:105240000A4B1B6803F4E063094A1268934208D9C9
:105250004FF0100383F31188BFF36F8FBFF34F8FAD
:10526000FEE77047F0E300E0184202200CED00E09A
:105270001C4202200F49D1F8883043F47003C1F872
:1052800088300D4B1A6842F001021A6000209860C5
:105290001A6822F0A85222F410221A604FF48052A9
:1052A000DA601A6822F480221A6098614FF0006375
:1052B0008B60704700ED00E00010024008B500F080
:1052C0003DF900F01DF900F0F5F800F0C7F84FF4D3
:1052D000E13000F089F808BD0A4B01221A700A4A31
:1052E0005A600A4A9A600A4ADA600A4A1A610A4A05
:1052F0005A610A4A9A610A4ADA610A4A1A620A4AF1
:105300005A62704754470220EC4302208444022032
:10531000344502209047022054480220F4460220DF
:105320006444022098470220E44602200A4B0222ED
:105330001A700A4A5A600A4A9A600A4ADA600A4AA5
:105340001A610A4A5A610A4A9A610A4ADA610A4AA1
:105350001A620A4A5A627047FC46022080420220C2
:1053600008480220A0470220644302208047022010
:10537000EC4602202C420220F84202205C46022029
:105380000A4B03221A700A4A5A600A4A9A600A4A69
:10539000DA600A4A1A610A4A5A610A4A9A610A4A52
:1053A000DA610A4A1A620A4A5A627047284702209A
:1053B0006C43022034420220D0440220E443022005
:1053C0007C440220644602205C4802208847022078
:1053D0002042022008B5FFF771FFFFF77DFFFFF7BE
:1053E000A5FFFFF7CDFF08BD08B50A4B0A4A1A60B2
:1053F000586000229A60DA601A610C2159619A6142
:105400001A625A621846FCF7D4FD00B908BDFBF7D2
:10541000E1FFFBE7984502200080004000B583B023
:1054200002A941F8040D4FF6FF7301220348FCF76F
:1054300020FD019803B05DF804FB00BF98450220F1
:1054400070B51646002405E04D1C0878FFF7E6FF0E
:1054500001342946B442F7DB304670BD08B5124826
:10546000124B0360124B4360002383600122C26031
:10547000036143618361C3610362FBF7B0FF50B90D
:1054800000210948FCF709F840B900210648FCF75B
:1054900032F830B908BDFBF79DFFF1E7FBF79AFF43
:1054A000F3E7FBF797FFF5E71046022000540040B2
:1054B000261A100008B51048104B03604FF4827391
:1054C0004360002383604FF4E062C2600361436184
:1054D0004FF400728261C3610362436283620722F8
:1054E000C262012202634363FCF731F800B908BDD0
:1054F000FBF770FFFBE700BF0043022000300140D4
:1055000008B50848084B03600623436040F6FF7364
:10551000C3608360FCF709F900B908BDFBF75AFFC7
:10552000FBE700BF6C440220003000404AF6AA228C
:10553000014B1A60704700BF003000402DE9F04F6A
:105540008DB000240794089409940A940B94A04BFE
:10555000DA6C42F01002DA64DA6C02F010020092A7
:10556000009ADA6C42F00402DA64DA6C02F00402A7
:105570000192019ADA6C42F02002DA64DA6C02F0ED
:1055800020020292029ADA6C42F00102DA64DA6CCA
:1055900002F001020392039ADA6C42F00202DA642A
:1055A000DA6C02F002020492049ADA6C42F04002D1
:1055B000DA64DA6C02F040020592059ADA6C42F085
:1055C0000802DA64DB6C03F008030693069BFEF71F
:1055D00043F8804D012240F2FC712846FDF7BAFFE6
:1055E0007D4E012244F228113046FDF7B3FF2246DA
:1055F0004FF400713046FDF7ADFFDFF83082012235
:105600004FF442714046FDF7A5FF012202214FF001
:105610009040FDF79FFF012280214FF09040FDF761
:1056200099FFDFF80C92012203214846FDF792FF13
:1056300022464FF481414846FDF78CFFDFF8F4B174
:1056400001224FF440415846FDF784FF40F2FC73BD
:1056500007930127089709940A9407A92846FDF79C
:105660009DFE4FF4005ACDF81CA05C4B08930994A2
:1056700007A94046FDF792FE44F2A8330793089726
:1056800009940A9407A93046FDF788FE4FF4427347
:105690000793089709940A9407A94046FDF77EFEF0
:1056A00082230793089709940A9407A94FF0904022
:1056B000FDF774FE44F283030793089709940A9454
:1056C00007A94846FDF76AFE032307930894099447
:1056D00007A94348FDF762FE4FF44043079308973C
:1056E00009940A9407A95846FDF758FECDF81CA066
:1056F000089709940A9407A93046FDF74FFE40F633
:10570000010BCDF81CB0089709940A9407A9284604
:10571000FDF744FE3A4651463046FDF71BFF224650
:1057200059462846FDF716FF2E4BC3F800804FF46C
:10573000007199802C4AC2F800804FF480739380E6
:105740002A48066008228280294C4FF09040206051
:105750008020A080274C26602027A780264CC4F8F4
:105760000080A280254C25604FF0040EA4F804E0D0
:10577000234C25604FF0100EA4F804E0214C256066
:105780004FF0400EA4F804E01F4C2560A7801F4C8A
:105790002660A3801E4C2560A2801E4A1560908062
:1057A0001D4A15604FF4806090801C4A16604FF4CB
:1057B000804090801A4A156093801A4B1D60998032
:1057C000194BC3F8009002229A800DB0BDE8F08F0B
:1057D00000100240001000480014004800001110A2
:1057E000001800489047022054480220F446022046
:1057F0006444022098470220E446022064430220C9
:1058000080470220EC4602202C420220F84202206F
:105810005C460220E44302207C44022064460220CD
:105820005C480220884702202042022000080048ED
:1058300000040048000C004800B5BBB04422002121
:1058400029A8FAF7C9FD00212491259126912791D5
:1058500028918C2201A8FAF7BFFD18232993012271
:105860002E922F9290233193022333933492052268
:10587000359247223692379338930623399329A8D5
:10588000FCF71CFE28BB0F232493032325939023AE
:1058900026934FF4806327930021289124A8FDF7D5
:1058A000E7F8C8B9114B0193002310931193139398
:1058B0001493159316931793189301A8FDF734FBCF
:1058C00068B94FF40070FDF77FFE58B93BB05DF842
:1058D00004FBFBF77FFDD6E7FBF77CFDE2E7FBF778
:1058E00079FDEEE7FBF776FDF0E700BFF60110006B
:1058F00000B583B00D4B1A6E42F001021A661A6EA3
:1059000002F001020092009A9A6D42F080529A656C
:105910009B6D03F080530193019B00220F216FF0D8
:105920000100FDF7B3FE03B05DF804FB0010024078
:10593000F0B58FB00446002309930A930B930C93A0
:105940000D930268554B9A420BD02368544A9342F8
:105950002AD0544A934248D0534A934266D00FB05B
:10596000F0BD524DEB6C43F00203EB64EB6C03F0C3
:1059700002030093009B4FF44073099312230A9390
:1059800001230B9303230C9304230D9309A9484887
:10599000FDF704FDAB6D43F40013AB65AB6D03F491
:1059A00000130193019BD0E7404CE36C43F02003CC
:1059B000E364E36C03F020030293029B0323099347
:1059C00012220A9201220B920C9304230D9309A92F
:1059D0003848FDF7E3FCA36D43F48003A365A36D92
:1059E00003F480030393039BB9E7304CE36C43F06B
:1059F0000403E364E36C03F004030493049B0323B4
:105A0000099312220A9201220B920C9304230D9304
:105A100009A92948FDF7C2FCA36D43F40003A3655F
:105A2000A36D03F400030593059B98E71F4CE36CFB
:105A300043F02003E364E36C03F020030693069B2A
:105A4000E36C43F00203E364E36C03F002030793A7
:105A5000079B4FF40043099312270A9701260B96E0
:105A600003250C9504230D9309A91248FDF796FC14
:105A70004FF4806309930A970B960C950D9509A92D
:105A80000B48FDF78BFCE36D43F00203E365E36D28
:105A900003F002030893089B61E700BF0054004035
:105AA00000580040005C00400084004000100240AC
:105AB00000040048001400480008004870B58EB08B
:105AC000002309930A930B930C930D930368554A93
:105AD00093420AD0544A93422CD0544A93425ED007
