:020000040800F2
:100000000000052069C800080DC400080FC40008DE
:1000100011C4000813C4000815C400080000000043
:1000200000000000000000000000000011B3000804
:1000300017C4000800000000B1B3000815B40008A0
:10004000B9C80008B9C80008B9C80008B9C800088C
:10005000B9C80008B9C80008E3500008ED5000080E
:10006000B9C80008B9C80008B9C80008B9C800086C
:10007000B9C80008B9C80008B9C80008B9C800085C
:10008000B9C80008B9C80008B9C80008B9C800084C
:10009000B9C80008B9C80008B9C80008D950000894
:1000A000B9C8000819C40008B9C80008B9C80008D0
:1000B000B9C80008B9C80008B9C80008B9C800081C
:1000C000B9C80008B9C80008B9C8000859C4000870
:1000D00069C40008B9C8000829C4000839C4000868
:1000E000CD500008B9C80008B9C80008B9C8000850
:1000F000B9C80008B9C80008B9C80008B9C80008DC
:10010000B9C80008B9C80008B9C8000879C400080F
:10011000B9C8000849C40008B9C80008B9C800082F
:10012000B9C80008B9C80008B9C80008B9C80008AB
:10013000B9C80008B9C80008B9C80008B9C800089B
:10014000B9C80008B9C80008B9C80008B9C800088B
:10015000B9C80008B9C80008B9C80008B9C800087B
:10016000B9C80008B9C80008B9C80008B9C800086B
:10017000B9C80008B9C80008B9C8000800000000E4
:10018000B9C80008B9C80008B9C80008B9C800084B
:10019000B9C80008B9C80008B9C80008B9C800083B
:1001A000B9C80008B9C8000800000000000000003D
:1001C000044B05481B1A062B02D9044B03B11847F0
:1001D000704700BF33010020300100200000000004
:1001E00005490648091A891001EBD171491002D05E
:1001F000034B03B118477047300100203001002045
:100200000000000010B5064C237843B9FFF7D8FF73
:10021000044B13B10448AFF300800123237010BDD9
:100220003001002000000000BCC8000808B5084BE1
:100230001BB108490848AFF300800848036813B9A8
:10024000BDE80840CCE7064B002BF9D09847F7E70C
:100250000000000034010020BCC80008300100206C
:100260000000000000B50A4C2668054685B01C4613
:10027000F06852B1074B02928DE80A0022462B46E5
:10028000054900F021F801F025FA044B1A46F2E77F
:1002900000000020BCD90008CCD90008E8D700082D
:1002A00008B513460022FFF7DDFF00BF0CB400B510
:1002B00083B004AB53F8042B019300F067F903B04B
:1002C0005DF804EB02B070470EB410B583B005AB17
:1002D000064C53F8042B01930146206800F056F9B0
:1002E00003B0BDE8104003B0704700BF000000201D
:1002F00070B50F4E0F4D761BB61018BF002405D0F9
:10030000013455F8043B9847A642F9D10A4E0B4DEB
:10031000761B0CF0D3FAB61018BF002406D00134B7
:1003200055F8043B9847A642F9D170BD70BD00BF97
:1003300078DA000878DA00087CDA000878DA000851
:10034000844641EA000313F003036DD1403A41D3E0
:1003500051F8043B40F8043B51F8043B40F8043B9F
:1003600051F8043B40F8043B51F8043B40F8043B8F
:1003700051F8043B40F8043B51F8043B40F8043B7F
:1003800051F8043B40F8043B51F8043B40F8043B6F
:1003900051F8043B40F8043B51F8043B40F8043B5F
:1003A00051F8043B40F8043B51F8043B40F8043B4F
:1003B00051F8043B40F8043B51F8043B40F8043B3F
:1003C00051F8043B40F8043B51F8043B40F8043B2F
:1003D000403ABDD2303211D351F8043B40F8043BCF
:1003E00051F8043B40F8043B51F8043B40F8043B0F
:1003F00051F8043B40F8043B103AEDD20C3205D3DF
:1004000051F8043B40F8043B043AF9D2043208D0D6
:10041000D2071CBF11F8013B00F8013B01D30B8848
:1004200003806046704700BF082A13D38B078DD026
:1004300010F003038AD0C3F10403D21ADB071CBFF8
:1004400011F8013B00F8013B80D331F8023B20F862
:10045000023B7BE7043AD9D3013A11F8013B00F89B
:10046000013BF9D20B7803704B7843708B78837023
:100470006046704770B4860746D0541E002A41D0AB
:10048000CAB2034602E014F1FF343BD303F8012B58
:100490009D07F8D1032C2ED9CDB245EA05250F2CA6
:1004A00045EA054519D903F110022646103E0F2EE4
:1004B00042F8105C42F80C5C42F8085C42F8045CBC
:1004C00002F11002F2D8A4F1100222F00F0204F09F
:1004D0000F041032032C13440DD91E462246043A51
:1004E000032A46F8045BFAD8221F22F003020432E2
:1004F000134404F003042CB1C9B21C4403F8011BDB
:100500009C42FBD170BC704714460346C2E700BF53
:100510009368013B002B10B4936008DBCCB21368E6
:10052000581C1060197020465DF8044B70479469A0
:10053000A34202DBCCB20A2CF1D15DF8044B00F0EF
:10054000EDBF00BF93B1F8B514460F460646D51867
:1005500001E0AC4208D03A4614F8011B3046FFF7E0
:10056000D7FF431CF5D1F8BD0020F8BD002070472F
:10057000936810B5144613B95360184610BD02F0C5
:10058000BFFA0023A360636010BD00BF2DE9F04FE8
:100590009DB0894614460393824618B18369002BA7
:1005A00000F00A818A4B994500F00C81894B9945EE
:1005B00000F00B81884B994508BFDAF80C90B9F828
:1005C0000C30180740F1EE80D9F81030002B00F005
:1005D000E98030238DF82A302378804E00212022B4
:1005E00009918DF829200127002B00F08480252B0C
:1005F000254603D117E0252B00F0858015F8013F33
:10060000002BF8D1B5EB040B75D022465B4649466A
:100610005046FFF797FF01306DD0099B2A785B4465
:100620000993002A67D000234FF0FF32013504936D
:10063000079306938DF853301A93059204E0049AB9
:1006400007FA03F31343049329780522304602F096
:10065000E7FC2C46831B01350028F0D1049BD9060A
:1006600044BF20228DF8532021781A0744BF2B2243
:100670008DF853202A2969D0A1F13002092A0BD81C
:10068000079B14F8011F03EB830302EB4303A1F163
:100690003002092AF5D907932E293FD0504D032265
:1006A000284602F0BDFC38B1049B401B402202FAF0
:1006B00000F003430134049321784A488DF8281050
:1006C0000622013402F0ACFC002849D0464BF3B1BD
:1006D00003AB00934A46454B04A9504600F060F92D
:1006E0008046B8F1FF3F06D0099B43440993237825
:1006F000002B7FF47CAFB9F80C305B0659D4099815
:100700001DB0BDE8F08FB5EB040B8CD07DE7039BEB
:10071000073323F0070308330393E5E761782A29B9
:1007200004F1010026D0A1F130020023092A05932B
:100730000446B3D814F8011F03EB830302EB430311
:10074000A1F13002092AF5D90593A7E7039A1168A8
:100750000432002903921FDB0791617801349BE783
:1007600003AB00934A46214B04A9504600F060FCBD
:100770008046B6E7039B1A680592002A03F104033A
:100780000393B8BF4FF0FF3204F10203AEBFA1786C
:10079000A17805921C4681E7494243F00203079184
:1007A0000493DAE74946504600F01AFF00283FF468
:1007B00010AF4FF0FF30A3E702F082F9044B9945E8
:1007C0007FF4F4AEDAF80490F9E6DAF80890F6E689
:1007D00044C9000824C9000804C9000800DA000858
:1007E00008DA00080CDA0008A1090008450500082D
:1007F00010B4044C13460A46014620685DF8044BC9
:10080000FFF7C4BE000000202DE9F04757EC106B45
:1008100084B0002F0D46924619460D9C60DB0023E4
:100820000B70662C45D0462C43D024F02003452B7A
:100830002BD003AA02AB019200932A460C9B022103
:1008400047EC106B00F0E4FF672C80462AD11AF0C9
:10085000010F2CD04544304639460022002304F0D5
:1008600099F900283AD1039B9D4206D930215A1CA0
:1008700003921970039B9D42F9D80E9AA3EB0803CB
:100880004046136004B0BDE8F08703A902AB013510
:10089000019100932A460C9B022147EC106B00F05B
:1008A000B7FF8046472CD5D11AF0010FD2D1039B58
:1008B000E3E703AA02AB019200932A460C9B0321B3
:1008C00047EC106B00F0A4FF0378302B804600EB60
:1008D00005090DD00C9B1D684D44BCE72B46CCE7A9
:1008E00007F100434FF02D0E1F4681F800E098E716
:1008F000002200233046394604F04CF90028E9D1A3
:100900000C9BC5F101051D604D44A4E7F0B400291E
:10091000BABF49422D232B23092982B002704370AC
:1009200000F102042EDD0DF107052E461B4F00E0FD
:10093000164687FB0123CA17C2EBA30202EB820310
:10094000A1EB430101F130031146092906F8013CEE
:1009500006F1FF32ECDC3031B31EC9B29D4202F821
:10096000011C19D91346264601E013F8011B06F8AD
:10097000011B9D42F9D16B1C9A1A2244101A02B035
:10098000F0BC704722463031302302F8023B6170E0
:10099000101A02B0F0BC70472246F9E76766666637
:1009A0002DE9F04F8DB00C4616461F460546DDF882
:1009B000588002F09DFA03680693184600F040FD47
:1009C000D4F800B0079000231BF4807F94F818A09F
:1009D0000A9300F0D380D8F80010073121F0070106
:1009E000D1E900230831C8F80010CDE90423C4E997
:1009F0001223DDE9042323F00049904610464946BE
:100A00004FF0FF32B34B04F0F7F800286FD14046A7
:100A100049464FF0FF32AF4B04F0D0F8002866D1C2
:100A2000DDE904010022002304F0BEF8002840F0B4
:100A30001F81A948A9492BF0040222600246032322
:100A4000BAF1470F98BF0A46049223614FF000089D
:100A5000009733460BAA2146284600F04FFA013092
:100A600040D02368590540F1FB80BAF1650F40F290
:100A7000948000220023D4E9120104F08BF80028AE
:100A800040F0B881099B002B40F3FD810A9BD4F80C
:100A900058904B45A8BF4B46002B9A4607DD049A59
:100AA00031462846B84701301CD0D4F858902AEA7D
:100AB000EA7AA9EB0A03002B40F3568104F11A0BE2
:100AC0004FF0000805E0A36DA3EB0A02424540F396
:100AD0004A8101235A4631462846B847013008F179
:100AE0000108F0D14FF0FF300DB0BDE8F08FDDE927
:100AF000040102460B4604F07FF8002840F0DB803A
:100B00006168481C00F00A81BAF1670F00F0A28109
:100B1000BAF1470F00F0B0804BF4806200232260EE
:100B20000AA8039309AB02900093CDF804A00DF13D
:100B300023039DED040B2846FFF766FE0490BAF1EF
:100B4000650F099B40F2D880BAF1660F00F08881EA
:100B50000A9A9A4200F3FF8022682361D00701D5E8
:100B60005A1C2261A3654FF000089DF82330002B2A
:100B70003FF46EAF2D2384F8433069E7D8F8003096
:100B8000073323F0070393ED007B0833C8F80030E8
:100B90008DED047B84ED127B2BE70A9A012A62DD3E
:100BA0000123049A31462846B84701309AD0079B62
:100BB000069A31462846B847013093D000230022D8
:100BC000D4E9120103F0E6FF0A9BA0B1012B1BDD63
:100BD00004F11A0A4FF0000903E00A9B013B4B4560
:100BE00012DD0123524631462846B847013009F14B
:100BF0000109F2D176E7049A013B013231462846D9
:100C0000B84701303FF46EAF434604F1500231461D
:100C10002846B84701303FF465AF2368E06813F019
:100C2000020F0B9B16D0C21A002A13DD04F119091A
:100C30004FF0000804E0E0680B9BC21A424509DD52
:100C400001234A4631462846B847013008F10108D9
:100C5000F1D147E79842B8BF18460DB0BDE8F08F14
:100C6000049A2369D3E7DB079AD4049A0123C5E7E2
:100C70002D2384F84330DCE6002900F0EE804BF4AD
:100C80008062002322600AA8039309AB02900093BC
:100C9000CDF804A00DF123039DED040B2846FFF7CA
:100CA000B3FD0490099BD91C1EDB626893421BDCD8
:100CB0004FF0670A4CE70A490A4A2BF00403236005
:100CC000BAF1470F98BF11460323049123614FF0F7
:100CD0000008BDE6FFFFEF7F18DA000814DA00080D
:100CE00020DA00081CDA0008AAF1020A5FFA8AFA80
:100CF000BAF1650F3FF628AF013B1946524604F1A1
:100D000050000993FFF702FE0A9A8318012A8046D1
:100D1000236140F3B3800133236126E7062161603C
:100D20004BF48062002322600AA8039309AB02906F
:100D30000093CDF804A00DF123039DED040B28468C
:100D4000FFF762FDBAF1670F0490ABD0BAF1470F1D
:100D50007FF4F5AEA6E7002BD4BFC3F10201012159
:100D60000A442261FEE69946099B0A9A934236DBC1
:100D70002168C90733D4A2EB0908D31A9845A8BF44
:100D80009846B8F1000F0CDD049B4B441A463146DF
:100D900043462846B84701303FF4A4AE0A9B099A5F
:100DA0009B1A28EAE879A3EB0903002B7FF735AFFC
:100DB00004F11A0A4FF0000807E00A9B099A9B1AEF
:100DC000A3EB090343457FF728AF01235246314681
:100DD0002846B847013008F10108EED182E6079BAA
:100DE000069A31462846B84701303FF47BAE0A9A4E
:100DF000099BC0E70123404A31462846B8470130E5
:100E00003FF470AE099A0A9B9A4203DB2368DA0723
:100E10007FF504AF079B069A31462846B847013054
:100E20003FF460AE0A9B012B7FF7F7AE04F11A097D
:100E30004FF0000804E00A9B013B43457FF7EDAE0D
:100E400001234A4631462846B847013008F10108D7
:100E5000F1D147E600297FF412AF012161605FE71D
:100E6000002B62683DDD23611AB101321A44226110
:100E700078E62168C8077FF575AEF6E72268D207E5
:100E80007FF573AE47E701231B4A31462846B84732
:100E900001303FF427AE099B2BB90A9B1BB923688D
:100EA000D8077FF5BBAE079B069A31462846B84760
:100EB00001303FF417AE099B002B1ADA04F11A092E
:100EC0004FF0000803E0099B5B42434511DD01231D
:100ED0004A4631462846B847013008F10108F2D1A8
:100EE00000E622B92168C90701D4012239E702329C
:100EF00037E7049A0A9B8AE624DA00082DE9F047CE
:100F00000C4691460A698968DDF820808A42B8BF9C
:100F10000A46C9F8002094F8431006461F4611B14E
:100F20000132C9F80020236899065DD5D9F8002060
:100F30000232C9F80020236813F0060F19461DD1AC
:100F4000E1688A1A002AD8BF194617DD04F1190A88
:100F5000002505E0E368D9F800209B1AAB420CDDC0
:100F60000123524639463046C047013005F101059C
:100F7000F0D14FF0FF30BDE8F087216894F843309E
:100F8000003318BF01238A060AD5E1185A1C302005
:100F900081F84300224494F8451082F8431002334C
:100FA00004F1430239463046C0470130E1D023689E
:100FB00003F00603042B29D0A36822699342C8BF1B
:100FC0004FF0000930DD9B1A99441A34002501E0E6
:100FD0004D4529D00123224639463046C0470130CD
:100FE00005F10105F4D1C4E713F0060F08D1E1685B
:100FF000D9F800208A1A002AD8BF1946A6DCBDE716
:1010000094F84330003318BF0123C9E7D9F8001022
:10101000E068A3682269A0EB0109934229EAE97913
:10102000D1DCB9F1000FD0D10020BDE8F08700BFBE
:101030002DE9F0430C46097E85B06E290646174619
:101040000C98984604F1430C55D00FD8632900F052
:101050001B8100F2D68000295CD0582940F0E8803E
:1010600084F845102268DFF860E213E0732900F08D
:10107000FD8000F289806F2900F0E480702940F043
:10108000D780226842F0200222607823DFF83CE219
:1010900084F845300368150603F1040100F1FF8070
:1010A00055064BBF1B881B6801600160D00744BF19
:1010B00042F020022260002B40F09580226822F04E
:1010C000200222601021002284F843206068A06082
:1010D0000028C0F28D80226822F004022260002BDA
:1010E00067D1002840F08680654608296FD0ACEBB8
:1010F0000503236111E023681A0600F1D38013F081
:10110000400F0368626903F1040101601B6814BFAA
:101110001A801A60002365462361CDF800803B46A3
:1011200003AA21463046FFF7E9FE013021D02A46C6
:10113000236939463046C04701301AD02368E06839
:1011400013F0020F039B19D0C21A002A16DD04F116
:101150001909002504E0E068039BC21AAA420DDDCC
:1011600001234A4639463046C047013005F10105A2
:10117000F1D14FF0FF3005B0BDE8F0839842B8BF21
:10118000184605B0BDE8F08375295BD078294FD1AA
:1011900022687AE76168A1602D200029C3F100036D
:1011A00084F8430021DB22F00402DFF81CE1226016
:1011B0000A216546B3FBF1F201FB123013461EF81B
:1011C000002005F8012D002BF4D108298FD12368C8
:1011D000D9078CD5626823699A4288DC302305F8E8
:1011E000013C013D83E710216DE7DFF8DCE00A21D7
:1011F000002BDED19EF8003084F8423004F1420525
:1012000073E7642901D0692912D1226803681506A1
:1012100003F1040152D455064BBFB3F900301B68EB
:1012200001600160002BB5DBDFF89CE00A214DE78F
:10123000012384F84210236104F14205002384F85D
:1012400043306AE723681A0633D413F0400F03686B
:1012500003F1040215BF1B881B68026002606F293E
:1012600014BF0A210821DFF860E02CE703686268F8
:10127000191D01601D680021284601F0D1FE00B350
:10128000401B60602061D9E703681A68191D0123BB
:10129000016004F1420584F842202361CEE7016039
:1012A0001B6803E703686269191D01601B681A6007
:1012B00030E703681A1D02601B68D0E701601B68F5
:1012C000B0E76068DEE700BF28DA00083CDA000813
:1012D0000EB410B5044683B018B183690BB901F0A0
:1012E000EFFB06A803460190059AA1682046FFF788
:1012F0004DF903B0BDE8104003B070470FB410B50E
:101300000A4B1C6882B024B1A36913B9204601F0CE
:10131000D7FB05A803460190049AA1682046FFF771
:1013200035F902B0BDE8104004B07047000000205D
:101330002DE9F0410E46804600283ED08369002BFF
:1013400039D084682F4B9C4243D02F4B9C4256D0BF
:101350002E4B9C4208BFD8F80C40A3891B073DD5F3
:101360002369002B3AD0013EA36816F8015F013BC8
:10137000A360B5B1002B04DB23685A1C22601D70EA
:10138000F2E7A769BB4222462946404601DB0A2D07
:10139000F2D100F0C3F80130E6D14FF0FF30BDE8E4
:1013A000F081002B21DB23680A22591C21601A706E
:1013B0001046BDE8F08101F083FBD8F81830D8F86A
:1013C0000840002BBED1404601F07AFB0D4B9C42F9
:1013D000BBD1D8F80440A3891B07C1D4214640469D
:1013E00000F0FEF80028BED0D7E7224640460A218A
:1013F00000F094F80130D0D00A20BDE8F081D8F890
:101400000840AAE744C9000824C9000804C9000824
:10141000024B01461868FFF78BBF00BF0000002099
:1014200000000000000000000000000000000000BC
:1014300000000000000000000000000000000000AC
:1014400090F800F06DE9024520F007016FF0000C04
:1014500010F0070491F820F040F049804FF00004AC
:101460006FF00700D1E9002391F840F000F1080087
:1014700082FA4CF2A4FA8CF283FA4CF3A2FA8CF3BF
:101480004BBBD1E9022382FA4CF200F10800A4FA26
:101490008CF283FA4CF3A2FA8CF3E3B9D1E904237A
:1014A00082FA4CF200F10800A4FA8CF283FA4CF3B1
:1014B000A2FA8CF37BB9D1E9062301F1200182FA6B
:1014C0004CF200F10800A4FA8CF283FA4CF3A2FA71
:1014D0008CF3002BC6D0002A04BF04301A4612BA7F
:1014E000B2FA82F2FDE8024500EBD2007047D1E982
:1014F000002304F00305C4F100004FEAC50514F011
:10150000040F91F840F00CFA05F562EA05021CBFE1
:1015100063EA050362464FF00004A9E7F8B50D46FB
:101520001446064610B18369002B42D0254B9C42DD
:1015300044D0254B9C4243D0244B9C4208BFF468C6
:10154000A389A269A2601A0722D5236903B322687E
:101550006169D31AEDB28B422F4621DA0133A168BB
:10156000501C0139A1602060157062699A4206D052
:10157000A389DB0701D50A2D01D03846F8BD2146E5
:10158000304601F061F90028F7D04FF0FF37F4E75B
:101590002146304600F024F80028F6D12369D6E72A
:1015A0002146304601F050F90028EED1226801238F
:1015B000D5E701F085FA034B9C42BAD17468BFE7C6
:1015C000B468BDE744C9000824C9000804C900087C
:1015D000024B0A4601461868FFF7A0BF0000002032
:1015E000384B70B51D6806460C4615B1AB69002B2B
:1015F00042D0354B9C4245D0344B9C4258D0344B62
:101600009C4208BFEC68B4F90C2093B219070CD5C2
:101610002069A8B113F001021ED0636900225B4269
:10162000A361A260F0B1002070BDDD0642D558076D
:101630002AD4206942F00803A3819BB20028E9D193
:1016400003F42072B2F5007FE4D03046214601F069
:101650008DFCA3892069DDE7990758BF6269A26004
:101660000028E0D1B4F90C301A06DDD543F0400370
:10167000A3814FF0FF3070BD284601F021FA124BD4
:101680009C42B9D16C68BEE7616B51B104F144036F
:10169000994204D0304602F02BFAB4F90C20002312
:1016A000636300232069636022F024022060C1E7A5
:1016B000AC68A8E742F04002092333604FF0FF30E6
:1016C000A28170BD0000002044C9000824C90008A0
:1016D00004C9000808B5062002F080FB012002F0D2
:1016E00037FE00BF0000000002690B69934200F35F
:1016F0008D802DE9F04F03F1FF3801F1140700F15F
:10170000140B57F828205BF828304FEA880483B080
:101710000132B3FBF2F90BEB0403009407EB040A6C
:101720000193B9F1000F39D000252E46BC46DE46A4
:101730005CF8044BDEF80030A2B209FB0255220C23
:101740002C0C09FB0242ADB2751B96B2C6EB1346D8
:1017500015FA83F306EB23469BB243EA0643E245C0
:101760004FEA12454EF8043B4FEA2646E0D2009B72
:101770005BF8033093B9019C231F9B450CD254F8AE
:10178000043C4BB9A4F1080302E01A68043B1AB9FF
:101790009B4508F1FF38F8D3C0F81080044601F0EB
:1017A0006BFF00282EDB09F101095D46002357F885
:1017B000041B28688AB29A1A0B0C12FA80F2C3EB47
:1017C000104303EB224392B242EA0342BA4545F882
:1017D000042B4FEA2343EAD25BF828200BEB880363
:1017E00082B91A1F93450BD253F8042C42B9083B17
:1017F00002E01A68043B1AB99B4508F1FF38F8D398
:10180000C4F81080484603B0BDE8F08F0020704750
:101810002DE9F04F57EC106B99B0456A02910446E0
:1018200093460493CDE90067002D00F003822968F8
:1018300049B16A684A60012393408B6001F0D8FC8B
:10184000636A00221A60DDE90023002B99463FDB22
:10185000229A00231360A84B33EA09031AD0DDE96A
:101860000067002200233046394603F093F9804692
:10187000002836D0049A01231360239B002B00F02C
:10188000CB809E4B239A03F1FF391360484619B071
:10189000BDE8F08F049A42F20F731360009B7BB98E
:1018A000C9F3130363B9239BDFF86092002BEDD0DB
:1018B00009F10803239A4846136019B0BDE8F08F78
:1018C000239BDFF84C92002BE0D009F10303F1E7F2
:1018D000019A22F00049229ACDF804900123136066
:1018E000B9E716AA17A947EC106B204601F0F0FFE4
:1018F0005FEA1955824673D0C7F3130343F07F5153
:10190000CDF84880DDF858803046A5F2FF3541F427
:10191000401100227A4B02F021FD71A3D3E900238C
:1019200002F0D0FE70A3D3E9002302F019FD0646B1
:1019300028460F4602F060FE6DA3D3E9002302F0B3
:10194000C1FE02460B463046394602F009FD064606
:101950000F4603F067F90022059000233046394610
:1019600003F022F9002840F07481059E162E56D807
:10197000644B03EBC603D3E90001DDE9002303F068
:1019800031F9002800F0CD81731E059300230C93DC
:10199000A8EB05056B1E069300F155810023079304
:1019A000059B002BC0F26781069A0B9311461944E0
:1019B000002306910A93029B092B33D8052B40F391
:1019C0009186043B02934FF00008029B023B032BDD
:1019D00000F28C86DFE813F0FB03DB0208049804B6
:1019E000DDF85880179D454405F23243202B40F323
:1019F0009A81C3F1400309FA03F9009B05F21240F2
:101A000023FA00F040EA090002F0E6FD0123013D5F
:101A1000A1F1F87112937CE7DFF8F89036E7012323
:101A20000C93B5E7666A002575602946204601F0EB
:101A3000ABFB636A30604FF0FF32D3F8009008923E
:101A40000123AB4602950D920993179B002BC0F220
:101A5000D180059A0E2A00F3CD802A4B03EBC203F6
:101A600093ED007BBBF1000F8DED027BC0F2DA83BA
:101A7000DDE90067DDE902233046394602F04CFF1C
:101A800003F0D0F8804602F0B7FDDDE9022302F052
:101A900019FE0B4602463946304602F05FFC08F15B
:101AA000300389F80030089B012B06460F4609F1E8
:101AB000010561D00022144B02F004FE0022002335
:101AC00006460F4603F066F8002840F08080CDF807
:101AD00000A00694DDE902AB089C28E0AFF300808B
:101AE00061436F63A787D23FB3C8608B288AC63F24
:101AF000FB799F501344D33F0000F07F25DA0008A4
:101B00000000F83F78C900080000244050DA0008BF
:101B10005CDA000824DA000802F0D4FD0022002379
:101B200006460F4603F036F8002840F0F083524690
:101B30005B463046394602F0EFFE03F073F880460C
:101B400002F05AFD52465B4602F0BCFD02460B46CF
:101B50003046394602F002FC08F1300E05F801EB80
:101B6000A5EB090EA64506460F464FF00002714B45
:101B7000D2D1DDF800A0069C32463B4630463946BD
:101B800002F0EEFB06460F4602460B46DDE9020177
:101B900003F00AF848B932463B46DDE9020102F09B
:101BA000F9FFA0B118F0010F11D015F8018C6B1ED0
:101BB00004E0994500F0648413F8018DB8F1390F01
:101BC00003F10105F5D008F1010883F800805146C2
:101BD000204601F00DFB0022059B2A70049A013378
:101BE0001360239B002B3FF451AE48461D6019B093
:101BF000BDE8F08F099A002A46D0029A012A40F3E4
:101C00003983089B0A9A5F1EBA42C0F2B283D71B7F
:101C1000089B002BC0F2C684079D089B079A1A44B4
:101C20000792069A01211A442046069201F0D8FB39
:101C300006462CE0102001F0DDF960624560856009
:101C40000560C560FFE5C5F1010307930023069316
:101C5000A6E6DDF81490484602F0CEFC02460B469C
:101C60003046394602F096FF00287FF47EAE09F137
:101C7000FF33059379E6079A059BD21A5B420A93D4
:101C8000002307920B9396E60A9F079D099E002D5D
:101C90000CDD069900290B4608DDA942079AA8BF6A
:101CA0002B46D21AED1ACB1A079206930A9BD3B190
:101CB000099B002B00F0D782002F10DD31463A46F9
:101CC000204601F029FC524601460646204601F016
:101CD00091FB51468046204601F08AFAC2460A9B93
:101CE000DA1B40F0C1820121204601F079FB0B9BF9
:101CF000002B804620DD01461A46204601F00CFCF0
:101D0000029B012B804640F3728200230A93D8F88D
:101D1000103008EB8303186901F012FBC0F12000BA
:101D200014E00C9034E6C3F12009009B03FA09F09B
:101D30006AE600BF00002440029B012B40F3A3820F
:101D400000230A930B9B0120002BE0D1069A10443C
:101D500010F01F0000F0A580C0F12003042B40F319
:101D6000BB84079BC0F11C00034407931346034444
:101D700005440693079B002B05DD51461A46204675
:101D800001F026FC8246069B002B05DD41461A46E3
:101D9000204601F01DFC80460C9B002B40F08A8001
:101DA000089B002B40F37F82099B002B00F09C8056
:101DB000002D05DD31462A46204601F009FC064685
:101DC0000A9B002B40F066830696089BCDF828906E
:101DD000013B4B440893009B4F4603F00103C1466F
:101DE000DDF81880099349465046FFF77DFC3146DF
:101DF0000546504601F040FC42464946834620468F
:101E000001F056FC05F130020092C2680146002A3A
:101E100040F044820790504601F02EFC079B06904C
:101E20001946204601F0E4F9069A32B9029B23B91B
:101E3000099B002B00F02284029ABBF1000FC0F234
:101E4000B68205D1029B1BB9099B002B00F0AF8223
:101E5000002A00F333839DF800303B70089B07F1A4
:101E6000010B9F425D4600F03983514600230A2250
:101E7000204601F0D9F94645824631464FF000032D
:101E80004FF00A02204600F0038201F0CDF94146EE
:101E9000064600230A22204601F0C6F95F46804626
:101EA000A1E71C20079B03440793069B03440544BA
:101EB00006935FE74146504601F0DEFB0028BFF67F
:101EC0006FAF059F514600230A222046013F059728
:101ED00001F0AAF9099B8246002B40F0E3830D9B99
:101EE000002B40F3EC8308934D46DDF820B002E070
:101EF00001F09AF9824641465046FFF7F5FB00F1A2
:101F0000300705F8017BA5EB09035B454FF00A029A
:101F10004FF0000351462046EADB089B0097012B57
:101F2000ACBF09EB030509F101054FF0000B514669
:101F30000122204601F04CFB4146824601F09CFB09
:101F4000002840F3558215F8012C6B1E04E04B4528
:101F500000F0C58113F8012D392A03F10105F6D0EF
:101F600001321A704146204601F042F9002E3FF43A
:101F70002EAEBBF1000F05D0B34503D05946204625
:101F800001F036F93146204601F032F91FE6002310
:101F90000993059B5B440D930133012B1F461D469E
:101FA0000893B8BF0127666A0021172F71600AD90C
:101FB000012204235B0003F11400B842114602F130
:101FC0000102F7D97160204601F0DEF8636A3060E3
:101FD0000E2DD3F800903FF638ADB8F1000F3FF466
:101FE00034AD9DED007B059900298DED0E7B40F30E
:101FF0001982BE4B01F00F0203EBC2030D11D3E9AE
:102000000067EB0640F1BD81B94B51EC170BD3E9EA
:10201000082302F081FCCDE91001032305F00F0530
:102020000093C5B1CDF84CB0DFF8C482A346009C44
:10203000E80708D530463946D8E9002302F042FBCC
:10204000013406460F466D1008F10808F0D10094DF
:102050005C46DDF84CB03B463246DDE9100102F04B
:102060005BFC074688460C9B43B10022A14B3846D7
:10207000414602F099FD002840F0A682009802F047
:10208000BBFA3A46434602F01DFB9B4B002202F08E
:1020900067F9A1F15073CDE900010193089B002B72
:1020A00000F04981059B1393089B1093099B002B1B
:1020B00000F01F82109A8D4B904903EBC20353E945
:1020C0000223002002F028FCDDE9002302F046F99B
:1020D000CDE900014146384602F0A4FD054602F074
:1020E0008BFA02460B463846414602F037F9303546
:1020F0005FFA85F806460F4602460B4689F80080CF
:10210000DDE9000109F1010502F06CFD00285BD159
:1021100032463B460020774902F020F902460B4642
:10212000DDE9000102F05EFD002840F0A082109A77
:10213000012A00F07181109BCDF850904B44CDF8EE
:1021400040A0CDF854B09946A046DDE900AB0DE0C3
:102150000020684902F002F952465B4602F024FD75
:10216000002840F07D824D4500F04F815046594691
:102170000022634B02F0A6FA0022614B82468B4696
:102180003046394602F09EFA0F46064602F04AFDF6
:10219000044602F031FA02460B463046394602F058
:1021A000DDF83034E4B252465B4605F8014B064692
:1021B0000F4602F0F9FC32463B460028C8D0DDF855
:1021C00040A0DDF850904446139B0593FFE40023A4
:1021D0000993BBF1000F40F3DB805F465D46CDF80D
:1021E00034B0CDF820B0DEE601230993F1E7009B7F
:1021F000002B7FF48AADDDE90012C2F31303002B3C
:102200007FF49EAD22F000473F0D3F05002F00F008
:102210003282079B01330793069B01330693012308
:102220000A938FE5089B002B3FF722AC40F09D807E
:102230000022344BDDE9020102F044FADDE900231B
:1022400002F0C6FCDDF82080464600283ED06FEA4A
:102250000B0305934D464146204600F0C9FF002E72
:102260003FF4B5AC8EE60A9A5146204601F054F987
:10227000824638E5129A002A00F09A8103F233432D
:102280000A9F079DCAE4009B002B7FF459ADB2E77B
:1022900000F0CAFF5F4606468046A4E5204600F0EF
:1022A000A7FF0122C9E5029B022B7FF77DAD089BAA
:1022B000002BCCD141460522204600F0B5FF014657
:1022C0008046504601F0D8F90028C0DD059A312338
:1022D0000132059289F8003009F10105BBE7059A42
:1022E00031230132059289F800303BE678C90008B5
:1022F00068CA00080000F03F00001C400000E03FFA
:1023000000002440000014400123099341E6DDF859
:1023100000A0069C5BE4009802F06EF93A46434642
:1023200002F0D0F9BE4B002202F01AF8A1F150736E
:10233000CDE90001019338460022BA4B414602F034
:102340000DF8DDE9002306460F4602F04BFC00289D
:1023500040F0CB80DDE90001024601F10043304648
:10236000394602F021FC002856D04FF000084646BE
:102370006DE70A9B0B9A0A97FB1A1A440B920027E7
:1023800046E49DED0E7B02238DED107B009348E625
:10239000656A00216960204600F0F6FE636A2860E5
:1023A00001220892D3F800900D92934615E6002A78
:1023B000CDF81880C846DDF8289012DD514601227C
:1023C000204601F005F94146824601F055F9002802
:1023D00040F36181009B392B00F01C8105F1310332
:1023E00000939DF800303B70B3467D1C069EB9E516
:1023F00004D1009BDB0701D5A5E5154615F8013C86
:10240000302B05F1FF32F8D0ACE5DDF840A0DDF867
:102410005090DDF854B04446DDE90E23CDE90023A9
:10242000FFF713BB00F0CB80059B5D427E4B05F0B0
:102430000F0203EBC203D3E90023DDE90E0102F032
:1024400041F92D110746884600F03E810223774E60
:10245000CDF840B0A3461C46E90708D538464146AA
:10246000D6E9002302F02EF90134074688466D10A4
:1024700006F10806F0D100945C46DDF840B0F2E5C4
:10248000302289F80020059A15F8018C0132059256
:10249000FFF799BB7168204600F076FE336902337E
:1024A0009A00054606F10C010C30FDF749FF29465C
:1024B0000122204601F08CF8069086E4009BCDF8BE
:1024C0001880392BC846DDF8289000F0A380009BC7
:1024D0000133B3463B707D1C069E43E54346B3463D
:1024E000C8461E46DDF8289021E54FF00008464614
:1024F000ECE6109B4C4901EBC30151E90201DDE917
:10250000002302F0DFF8CDE900013846414602F031
:1025100089FB054602F070F80B46024641463846F4
:1025200001F01CFF109B3035012B89F80050064646
:102530000F4609F1010523D0109BCDF840A04B4474
:10254000CA46994600223A4B3046394602F0BAF85C
:102550000F46064602F066FB804602F04DF808F191
:10256000300802460B463046394601F0F7FE05F8C2
:10257000018B4D4506460F46E4D1D146DDF840A01B
:102580002C4B0022DDE9000101F0EAFE32463B4619
:1025900002F00AFB00284FD0139B059315F8018C1D
:1025A000FFF705BB079B089A9D1A0023FFF736BB70
:1025B000169B0A9F079DC3F13603FFF72FBB02232B
:1025C000DDE90E7800934EE5089B002B3FF4A3AEA7
:1025D0000D9D002D7FF720AF0022154B3846414658
:1025E00002F070F8074600988846013002F004F8BF
:1025F0003A46434602F066F8094B002201F0B0FE6D
:10260000A1F15073CDE900010193059B1095013BA9
:1026100013934BE53922B3463A70069E7D1C94E431
:1026200000001C400000144078C9000868CA000877
:10263000000024400000E03FDDE90023002037498E
:1026400001F08CFE32463B4602F0CCFA08B9E3E6D4
:10265000154615F8013C302B05F1FF32F8D0B3E5F3
:102660004346DDF840A0DDF85090A0461C46139B81
:102670000593FFF79CBA0A97FFF764BB009BCDF860
:102680001880392BC846DDF82890C3D0BBF1000F65
:102690003FF7A4AEA5E67FF4A4AE009BDA077FF572
:1026A000A0AE97E6314600230A22204600F0BCFD8A
:1026B0000D9B002B06460ADD0893FFF779BB029BB2
:1026C000022B27DC0D9B0EE402230093CBE4029B3C
:1026D000022B1FDC0D9BEFE73FF44CABC0F13C003D
:1026E000FFF7E0BB4FF00108FFF76FB9666A0025FE
:1026F00075602946204600F047FD636A30604FF060
:10270000FF32D3F8009008920123AB460D92099353
:10271000FFF79BB90D9B0893C9E500BF0000E03FA0
:102720008B891A072DE9F0410D46804633D44A685B
:10273000002A67DDEC6A002C45D00022D8F8006042
:10274000C8F8002013F4805260D06A6D5F0705D589
:1027500069686B6B521A0BB12B6CD21A0023296A71
:102760004046A047441C39D0AB892A692A60DB0463
:102770004FF000026A6043D4696BC8F8006011B37F
:1027800005F14403994202D0404601F0B1F900201E
:102790006863BDE8F0810E69AEB10C680E60980701
:1027A0000CBF4B690023A41B8B600AE02346324612
:1027B000AF6A296A4046B8470028A4EB00040644E3
:1027C00004DD002CF2DC0020BDE8F081AB8943F091
:1027D0004003AB814FF0FF30BDE8F081D8F8002016
:1027E0001D2AF3D8174BD340DB4313F00103EDD17F
:1027F000A9892C696B60C9042C60BDD5002ABBD1A6
:102800006865B9E70A6C002A94DCDCE70123296AD1
:102810004046A047431C024602D0AB89EC6A95E7CC
:10282000D8F80030002BF8D01D2B01D0162B02D188
:10283000C8F80060C7E7AB8943F04003AB81BDE84F
:10284000F08100BF010040200B6933B310B504468E
:1028500082B008B18369ABB1114B994219D0114BC9
:10286000994218D0104B994208BFE168B1F90C3079
:1028700013B9002002B010BD204602B0BDE81040E0
:10288000FFF74EBF019100F01BF90199044B9942EB
:10289000E5D16168EAE7A168E8E70020704700BF7A
:1028A00044C9000824C9000804C9000820B1054B28
:1028B00001461868FFF7C8BF034B0449186800F0C9
:1028C000BDBA00BF0000002000C900084928000868
:1028D00000207047014900F0B1BA00BF4928000844
:1028E0000020704770B54A1E682505FB02F50E46AC
:1028F00005F1740101F044F9044640B100210C30A7
:10290000666005F168022160A060FDF7B3FD204616
:1029100070BD00BF204B70B51D68AB6906465BB348
:1029200048356B68AC68013B05D521E0013B5A1C7A
:1029300004F168041CD0B4F90C20002AF6D100255B
:102940004FF6FF720123E281A38165662560A560D1
:10295000656025616561A5612946082204F15C0076
:10296000FDF788FD6563A563A564E564204670BD39
:10297000286828B10546D4E7284600F00FF8CFE7CD
:1029800004213046FFF7AEFF28600028F2D10C2367
:1029900004463360EAE700BF00C900083D4B3E49EA
:1029A0001A682DE9F04F90424FF000038364C3642E
:1029B000036508BF012383B008BF836181620746B6
:1029C000FFF7A8FF78603846FFF7A4FFB8603846E5
:1029D000FFF7A0FF7D68F86000240423AB812C6022
:1029E0006C60AC606C66EC812C616C61AC61214602
:1029F00005F15C000822FDF73DFDBE68DFF89CB0E4
:102A0000DFF89CA0DFF89C90DFF89C80C5F824B02C
:102A100001230922C5F828A0C5F82C90C5F83080FC
:102A20002D622146F381B28134607460B4607466B3
:102A300034617461B46106F15C0008220193FDF712
:102A400019FDFD68366212200222C6F824B0C6F8CD
:102A500028A0C6F82C90C6F830802146A881EA81CB
:102A60002C606C60AC606C662C616C61AC6105F1D3
:102A70005C000822FDF7FEFC019B2D62C5F824B026
:102A8000C5F828A0C5F82C90C5F83080BB6103B00C
:102A9000BDE8F08F00C90008D52800084D3E0008A9
:102AA000753E0008B13E0008D13E0008024B0349C4
:102AB000186800F0C3B900BF00C900084928000821
:102AC000836903B96AE77047704700BF704700BF6A
:102AD000704700BF704700BF024B0349186800F001
:102AE00087B900BF00000020E1280008024B03491D
:102AF000186800F07DB900BF00000020D128000850
:102B00009368002B73D02DE9F04F8B8983B00C466E
:102B100019070090164626D5226922B313F0020049
:102B200035682CD04FF00009B04FC846B246B845C2
:102B300043464A4628BF3B460098B8F1000F50D0A4
:102B4000216AA66AB047002858DDDAF808301B1A57
:102B50008144A8EB0008CAF80830002BE7D1002018
:102B600003B0BDE8F08F21460098FEF739FD00283C
:102B700040F03381A389356813F00200D2D113F0FD
:102B8000010945D14F46019637B39A05D4F808801C
:102B900040F183804745C346C0F0AB8013F4906F8B
:102BA00040F0AC802068BA465A46494600F088FAA0
:102BB000A2682368A2EB08025B44A2602360019A2A
:102BC0009368A3EB0A03D144A7EB0A079360002B99
:102BD000C5D0A389002FD8D1D5F800906F680835EB
:102BE000D2E7D5F80090D5F8048008359FE700209B
:102BF000704721460098FFF727FE70B3B4F90C30F8
:102C000043F040034FF0FF30A38103B0BDE8F08FE5
:102C1000814633464E46A8469A464D464EB380B34B
:102C2000206823696269B145CB4628BFB346984204
:102C30005F4604D9A36813449B4500F3A6809345DF
:102C40004BDB1346A76A216A00982A46B847071E3D
:102C5000D4DDB9EB0709CCD00120DAF80830DB1B52
:102C60003D44F61BCAF80830002B3FF478AF002E25
:102C7000D5D108F1080313E9600098460833002E07
:102C8000F9D032460A21284600F0CAF9002800F09F
:102C9000A1800130A0EB0509C2E7206823699842B2
:102CA00002D863699F425DD2B84528BFB846424604
:102CB000494600F005FAA3682268A3EB08034244E2
:102CC000A36022600BB1C24679E721460098FFF766
:102CD000BBFD002892D1C24671E75A46294600F052
:102CE000EFF9A2682368A2EB0B025B44A2602360A9
:102CF000AFE72068B846BA46BB4655E76269206828
:102D0000216902EB4208A0EB010A08EBD8780AF12E
:102D100001004FEA680838444045424684BF804677
:102D200042465B0544D51146009800F029FF8346D2
:102D3000002855D052462169FDF702FBA38923F4F0
:102D4000906343F08003A3810BEB0A00A8EB0A0316
:102D5000C4F810B0C4F814802060A360B846BA4626
:102D6000BB4621E76FF00041B94228BF39464A46C9
:102D700091FBF3F10098A66A03FB01F3216AB047C7
:102D8000B0F1000A3FF71BAF38E71A462946019316
:102D900000F096F92268019B00981A4422602146AF
:102DA000FFF752FD019B00287FF428AF1F4650E734
:102DB000009800F043FF83460028C5D1009D21699B
:102DC000284600F095FEB4F90C300C2223F0800365
:102DD0002A6015E706F1010922E74FF0FF30BFE650
:102DE000009A0C231360B4F90C3009E700FCFF7F54
:102DF0002DE9F04110F148071BD0884600267D6878
:102E0000BC68013D0FD4A389012B05F1FF3506D91C
:102E1000B4F90E300133204601D0C04706436B1C85
:102E200004F16804EFD13F68002FE8D13046BDE8D7
:102E3000F0813E463046BDE8F08100BF2DE9F84301
:102E400010F148071FD0884606464FF000097D68FC
:102E5000BC68013D11D4A389012B05F1FF3508D9C8
:102E6000B4F90E3001332146304602D0C04749EA5A
:102E700000096B1C04F16804EDD13F68002FE6D116
:102E80004846BDE8F883B9464846BDE8F88300BF28
:102E9000B2B110B50B491046144601F025F808B937
:102EA000094810BD0849204601F01EF80028F7D057
:102EB0002046064901F018F80028F1D0002010BD86
:102EC0000148704760DA0008FCD90008E8D700081C
:102ED0000048704764000020014B186A704700BF2B
:102EE00064000020004870478800002000207047E0
:102EF00000487047A8000020024B0A4601461868A7
:102F0000FFF7C6BF0000002000487047A80000205F
:102F100070B50C46B1F90E10002990B015461E464A
:102F200013DB01AA01F072F900280EDB029A02F409
:102F30007042A2F50052B2FA82F252094FF4806355
:102F4000002032602B6010B070BDA38900221B06E8
:102F5000326004D5402300202B6010B070BD4FF4C8
:102F6000806300202B6010B070BD00BF8A8992077B
:102F70000B4606D501F1470201211A601A61596119
:102F80007047F0B583B001AB6A460C460546FFF7C3
:102F9000BFFF00990646284600F0F2FDB4F90C3058
:102FA000D0B1019A124F0099AF6243F08003A38120
:102FB0002060206161611AB93343A38103B0F0BD81
:102FC0002846B4F90E1001F035F9B4F90C30002898
:102FD000F2D043F00103EFE79A05EFD404F1470282
:102FE00043F002030121A381226022616161E5E7D0
:102FF000D5280008024B0146186800F0C1BD00BF8B
:1030000000000020024B0146186800F071BD00BFAF
:103010000000002000000000000000000000000090
:1030200001F0FF01102A2BDB10F0070F08D010F879
:10303000013B013A8B422DD010F0070F42B3F6D17D
:10304000F0B441EA012141EA014122F007047FF096
:1030500000070023F0E80256083C85EA010586EAED
:10306000010685FA47F5A3FA87F586FA47F6A5FA29
:1030700087F68EB9EED1F0BC01F0FF0102F0070235
:1030800032B110F8013B013A83EA010313B1F8D1E0
:103090000020704701387047002D06BF35460338C1
:1030A000073815F0010F07D1013015F4807F02BFFA
:1030B000013015F4C03F0130F0BC0138704700BF4B
:1030C0008842F0B50DD98B1898420AD28418002A8C
:1030D00051D0224613F8014D02F8014D9942F9D121
:1030E000F0BD0F2A48D941EA00039B0746D100F101
:1030F000100401F11003154653F8106C44F8106CDD
:1031000053F80C6C44F80C6C53F8086C44F8086CD9
:10311000103D53F8046C44F8046C0F2D03F11003B8
:1031200004F11004E8D8A2F1100323F00F0302F019
:103130000F0E1033BEF1030F1944034421D91E1F93
:103140000D467446043C55F8047B46F8047F032C76
:10315000F8D8AEF1040424F00304043421442344D9
:1031600002F0030262B1013B0A4411F8014B03F87B
:10317000014F8A42F9D1F0BD0346F3E70346F2E777
:10318000F0BD7246EEE700BF70B5446A06460D46D4
:103190005CB1E36893B153F82500D8B1026843F8F5
:1031A000252000230361C36070BD1020FFF722FFBC
:1031B0007062446084600460C4600446212204217B
:1031C000304600F087FC736AE060DB68002BE2D1D8
:1031D000002070BD012101FA05F4621D3046920005
:1031E00000F078FC0028F3D045608460D9E700BF88
:1031F00030B5456A83B0044655B139B1636A4A684F
:10320000DB6853F82200086043F8221003B030BD99
:1032100010200191FFF7EEFE019960624560856024
:103220000560C560E9E700BFF0B50C6983B00D46E5
:10323000064601F1140E0027DEF8000081B202FB01
:103240000133010C180C02FB01019BB2013703EBA7
:103250000143BC424EF8043B4FEA1143ECDC3BB166
:10326000AA68944207DA05EB8402013453612C61A9
:10327000284603B0F0BD6968019301313046FFF77D
:1032800083FF2A69023205F10C01074692000C30D7
:10329000FDF756F829463046FFF7AAFF3D46019B49
:1032A000E1E700BF2DE9F843244C089E1F46083390
:1032B00084FB034EDB17C3EB6E0EBEF1010F054618
:1032C0000C46904635DD012300215B009E4501F14F
:1032D0000101FADC2846FFF757FF0123B8F1090F77
:1032E0004661036121DD04F109094E46444416F8A4
:1032F000013B0146303B0A222846FFF795FFA642D4
:10330000F5D1A8F108044C44474514DDA7EB0807A4
:10331000274414F8013B0146303B0A222846FFF7B8
:1033200083FFA742F5D1BDE8F8830A344FF00908BE
:10333000EAE70021CEE7BDE8F88300BF398EE33825
:10334000020C12040346B2B90304102013F07F4F9D
:1033500004BF1B02083013F0704F04BF1B01043080
:1033600013F0404F04BF9B000230002B02DB5B00D8
:1033700003D4202070470020E8E70130704700BFE9
:10338000036813F00702014607D0DA0721D4980733
:1033900021D49B080B600220704798B298B1104668
:1033A00013F0FF0F04BF1B0A08301A0704BF1B09E4
:1033B00004309A0704BF9B080230DA0707D45B0881
:1033C00004D1202070471B0C1020E9E701300B606E
:1033D0007047002070475B080B600120704700BFFA
:1033E00010B50C460121FFF7CFFE012244610261B6
:1033F00010BD00BF2DE9F04F0C691569AC4283B0D8
:103400008B46164604DA2246B3462C460E4615462F
:10341000DBF80830DBF8041004EB05089845C8BF5A
:103420000131FFF7B1FE00F1140909EB880AD1451B
:10343000009005D24B46002143F8041B9A45FBD867
:1034400006F1140C0CEB85030BF1140B9C450BEBF4
:10345000840E4CD2CDF804A09A46DCF80050AFB2EE
:10346000EFB100214D465E460C4656F8042B286805
:1034700093B281B207FB0313120C010C234407FB28
:10348000021101EB13419BB243EA0143B64545F8F3
:10349000043B4FEA1144E8D82C60DCF800502D0CB6
:1034A0001DD0D9F8003048461C46594600220E88E7
:1034B000240C05FB064422449BB243EA024340F835
:1034C000043B51F8043B04681B0CA6B205FB0363E4
:1034D00003EB12438E454FEA1342E8D803600CF128
:1034E000040CE24509F10409B7D8DDF804A0B8F1ED
:1034F000000F0BDD5AF8043CAAF1040A1BB105E0E9
:103500005AF8043D13B9B8F10108F9D10098C0F890
:10351000108003B0BDE8F08F2DE9F04312F00303F3
:1035200083B0144607462DD10E46A4101CD07B6AEA
:103530008BB39D68002D39D0E3074FF0000906D406
:10354000641011D0286898B10546E307F8D53146D4
:103550002A463846FFF74EFF314680463846FFF789
:1035600047FE64104646EDD1304603B0BDE8F08317
:103570002A4629463846FFF73DFF2860C0F80090EC
:103580000546E2E75A1E114D002355F82220FFF7A9
:103590004BFE0646C9E710200193FFF72BFD019B68
:1035A0007862436083600360C3600346012138464C
:1035B0000193FFF7E9FD019B0546012140F27120CF
:1035C0000022686129619D602A60B5E768C900082A
:1035D0002DE9F04791460A698B684FEA691A0AEBB0
:1035E000020808F101049C420D460746496804DDC3
:1035F0005B009C4201F10101FADC3846FFF7C4FD93
:10360000BAF1000F064600F1140332DD03EB8A0124
:10361000002243F8042B8B42FBD1286905F11403E7
:1036200019F01F0903EB800E1BD0C9F1200C0022FA
:10363000186800FA09F0104341F8040B53F8042B02
:103640009E4522FA0CF2F3D80A600AB108F102048E
:10365000013C384634612946FFF7CAFD3046BDE8D3
:10366000F087043953F8042B41F8042F9E45F9D80C
:10367000EEE71946D1E700BF30B40B690546006993
:10368000C01A0FD19B001435143119442B4401E0AA
:103690009D4207D253F8044D51F8042D9442F7D0BF
:1036A00002D3012030BC70474FF0FF30FAE700BF73
:1036B0002DE9F0410F690E4611697F1A002F9046DF
:1036C00017D1890006F1140502F1140E6B1871442C
:1036D00001E09D425CD253F8042D51F8044DA24202
:1036E000F7D05ED233462C464646754698460127AB
:1036F00005E058DB06F1140508F114040027716891
:10370000FFF742FDD8F810303669C76004EB830C30
:10371000A64605EB860700F1140400235EF8041B9F
:1037200055F8048B8AB213FA88F3090C9A1AC1EB84
:10373000184303EB224392B242EA0342F44544F8B1
:10374000042B4FEA2343E9D8AF4217D9A446AE462B
:103750005EF8042B13FA82F3191401EB12419BB2A9
:1037600043EA014277454CF8042B4FEA2143EFD856
:10377000ED432F4427F0030704373C44043C22B9AF
:1037800054F8043D013E002BFAD00661BDE8F081FB
:103790000021FFF7F9FC0122002302614361BDE82B
:1037A000F0817446ABE7334606F1140402F11405C8
:1037B000164601279846A2E7134B10EE902A1A40AE
:1037C000A2F15073002B04DD0020194641EC100BD0
:1037D00070475B421B15132B0DDD143B1E2BDDBF09
:1037E000C3F11F03012202FA03F30123002118464B
:1037F00041EC100B70474FF40022002042FA03F115
:1038000041EC100B704700BF0000F07FF8B5046971
:1038100000F1140606EB840454F8045C2846FFF714
:103820008FFDC0F120030A280B60A4F1040117DC0E
:103830008E42C0F10B0738BF54F8081C25FA07FE6A
:1038400000F115004EF07F5334BFF940002105FA16
:1038500000F043F4401340EA010243EC102BF8BDA2
:103860008E421DD20B3854F8087C1CD0854045F0A0
:103870007F55C0F1200CA4F1080E45F4401527FA3D
:103880000CF1764545EA01031ED254F80C1C07FAE8
:1038900000F021FA0CF10843024643EC102BF8BD6E
:1038A0000B3808D1074645F07F5343F440133A469E
:1038B00043EC102BF8BD05FA00F040F07F530020D8
:1038C00043F440130246E8E707FA00F00246E4E753
:1038D0002DE9F04357EC106B83B0884601213C463C
:1038E000C7F30A551746FFF74FFCC4F3130481468C
:1038F0000DB144F4801401941EB302A840F8086D81
:10390000FFF73EFD002834D19DE80C00C9F81420D3
:10391000002B0CBF01210221C9F81830C9F8101082
:10392000DDB909EB8103A0F23240C8F80000186944
:10393000FFF706FDC0EB41103860484603B0BDE814
:10394000F08301A8FFF71CFD019BC9F81430012189
:103950002030C9F81010002DE3D0A5F233450544FE
:10396000C0F13500C8F800503860484603B0BDE8E3
:10397000F0839DE80A00C0F1200203FA02F20A4334
:10398000C3400193C9F81420C2E700BF2DE9F043FA
:1039900083B0884669468146FFF738FF404601A953
:1039A00055EC104BFFF732FF9DE80A00D9F81000E4
:1039B000D8F81020CB1A801A03EB4013002B57ECD9
:1039C000106B0DDD05EB03594D4632463B46204654
:1039D000294600F0A1FF41EC100B03B0BDE8F083D5
:1039E000C3EB033307EB03510F46EEE71728D0B5BF
:1039F00004460CDD0A490B4F0020002632463B46A8
:103A000000F060FE013CF9D141EC100BD0BD064B3B
:103A100003EBC004D4E9040141EC100BD0BD00BF9E
:103A20000000F03F0000244068C9000870B4146929
:103A30004E1E02F11403761103EB840101368B4212
:103A400000EB86060CD2041F53F8045B44F8045FB5
:103A50009942F9D88B1A153B23F003030433184419
:103A6000864204D9002340F8043B8642FBD870BC50
:103A7000704700BF03694A11934210B400F1140467
:103A800010DA04EB83039C4221D253F8040C043B6C
:103A900018B115E053F8042D92B99C42FAD35DF8A1
:103AA000044B704710DD11F01F010DD054F82200B7
:103AB00020FA01F303FA01F1884204EB8203E2D019
:103AC00001205DF8044B704704EB8203DBE7002024
:103AD000E5E700BF38B502FB01F4214600F050F8DD
:103AE000054618B122460021FCF7C4FC284638BD23
:103AF00091B151F8043C0439002BB8BFC9181F4BD1
:103B00001A68FAB18A4230B40AD908680C18A2427D
:103B100026D04A60196030BC70478B4203D81A46E1
:103B20005368002BF9D1146815198D420DD006D8B1
:103B300008680C189C4219D04B605160EBE70C23CD
:103B40000360E8E74A601960704709680C4411197E
:103B500099421460DFD10ACB0C4453601460DAE759
:103B6000146852684A6020440860D3E71C685B68A8
:103B70004B60204408605160CDE700BF4C0100203D
:103B800070B5CC1C24F0030408340C2C38BF0C2472
:103B9000002C06463BDBA14239D8274D296851B19C
:103BA0000A68121B04D436E01A68121B1AD519468B
:103BB0004B68002BF8D16968002937D02146304680
:103BC00000F064F8431C22D0C31C23F00305A84274
:103BD00005D0291A304600F059F8013017D02C6072
:103BE0002B4604E00B2A0DD91A6013441C6003F124
:103BF0000B0020F007001A1D821A02D05142995082
:103C000070BD70BD8B420ED05A684A60EFE70C233E
:103C10003360002070BD0B2A03D84A680B462A6027
:103C2000E5E70B46E0E70A460B46F8E7304600F0CA
:103C30002DF86860C2E700BF4C010020F8B51446BB
:103C4000F9B1C2B106460D4600F01CFB844201D812
:103C50002846F8BD21463046FFF792FF074670B16F
:103C600022462946FCF76CFB294630463D46FFF7C5
:103C70003FFF2846F8BDFFF73BFF2546E8E705462E
:103C8000E6E71146BDE8F840FFF77ABF38B5074CC4
:103C9000002305460846236000F04CFB431C00D07F
:103CA00038BD2368002BFBD02B6038BDB84D0220F7
:103CB00010B580210446FFF763FF606440B1031F25
:103CC00000227C3043F8042F8342FBD1002010BD3A
:103CD0004FF0FF3010BD00BF436C0BB100207047A8
:103CE000E6E700BF1F2909D810B5446C84B054B171
:103CF00054F8210044F8212004B010BD16220260BF
:103D00004FF0FF307047039002920191FFF7D0FF10
:103D100020B9039B029A5C6C0199E9E74FF0FF30F0
:103D2000EAE700BF1F2927D820B5426C82B00546BC
:103D3000AAB152F8213093B1012B0ED0581C07D0F4
:103D40000025084642F821509847284602B020BD79
:103D5000162301202B6002B020BD0020F6E7284684
:103D6000019100F071F801990A460146284602B017
:103D7000BDE8204000F054B8162303604FF0FF3038
:103D8000704700BF1F2926D820B5436C82B0054676
:103D9000BBB153F8212003EB810382B1501C0BD03F
:103DA000012A06D0002508461D609047284602B02B
:103DB00020BD032002B020BD022002B020BD0120A2
:103DC000F5E70191FFF774FF10B96B6C0199E0E71B
:103DD0004FF0FF30EBE74FF0FF307047024B0146EA
:103DE0001868FFF79FBF00BF00000020024B0A4683
:103DF00001461868FFF776BF00000020034B1868E3
:103E0000436C0BB10020704752E700BF0000002058
:103E1000024B01461868FFF7B5BF00BF0000002045
:103E200038B50B46074C054611461846002323605B
:103E300000F068FA431C00D038BD2368002BFBD08B
:103E40002B6038BDB84D022000F04CBA10B50C46BE
:103E5000B1F90E1000F020FA002803DB636D034473
:103E6000636510BDA38923F48053A38110BD00BFF7
:103E7000002070472DE9F0411646B1F90C201F468D
:103E8000D3050C46054607D500220223B1F90E10D2
:103E900000F0E2F9B4F90C20B4F90E1022F48052CB
:103EA000A2813B4632462846BDE8F04100F086B983
:103EB00010B50C46B1F90E1000F0CEF9A389421CE2
:103EC0000EBF23F4805343F480536065A38110BD7B
:103ED000B1F90E1000F088B90000000000000000E9
:103EE000A2EB0300704700BF02780B78012A28BFBD
:103EF0009A42F5D16DE9044540EA0104CDE9026733
:103F00006FF0000C4FEA447212B380EA010414F01F
:103F1000070F6AD100F0070420F0070004F0030542
:103F200021F007014FEAC505F0E8042314F0040F5F
:103F3000F1E804670CFA05F462EA040266EA040692
:103F40000AD063EA0403624667EA0407664603E0B0
:103F5000F0E80423F1E8046782FA4CF582EA0604EB
:103F6000A4FA8CF46CBB83FA4CF583EA0705A5FA36
:103F70008CF595B950E9022351E9026782FA4CF5B4
:103F800082EA0604A4FA8CF483FA4CF583EA070566
:103F9000A5FA8CF52543DBD09CB92DBAB5FA85F48A
:103FA00024F0070427FA04F1DDE9026723FA04F399
:103FB00003F0FF0001F0FF01FDE80445A0EB010064
:103FC000704724BAB4FA84F424F0070426FA04F102
:103FD000DDE9026722FA04F202F0FF0001F0FF01BE
:103FE000FDE80445A0EB0100704714F0030F3CD13D
:103FF00010F0030428D150F8082B51F8083B82FA3E
:104000004CF582EA0305A5FA8CF55DB950F8042C4D
:1040100051F8043C82FA4CF582EA0305A5FA8CF5C6
:10402000002DE8D02DBAB5FA85F424F0070423FA60
:1040300004F122FA04F202F0FF0001F0FF01FDE8B2
:104040000445A0EB010070474FEAC40420F00300D0
:1040500050F8082B21F0030151F8083B0CFA04F446
:1040600062EA040263EA0403C9E710F003041AD009
:10407000A1EB040120F00300E40750F8042B06D064
:104080000FD28B785FFAA2F4E41A06D12BB1CB7869
:104090005FFAB2F4E41A00D11BB920465DF8104B68
:1040A000704701F1040150F8042BCC0721F0030103
:1040B00051F8043B48D824D222F07F4482FA4CF5D0
:1040C00094EA1325A5FA8CF50AD165B951F8043B99
:1040D00084EA0204B4EB036F0ED150F8042BEBE733
:1040E0004FEA132355E035F07F454DD10878FDE8C0
:1040F0000445C0F1000070474FEA126203F0FF036D
:1041000047E002EA1C4482FA4CF594EA1345A5FA0A
:104110008CF50AD165B951F8043B84EA0204B4EB8A
:10412000034F0CD150F8042BEBE74FEA134330E078
:1041300015EA1C4528D10B884FEA124229E04FEAC4
:10414000124203EA1C4324E002F0FF0482FA4CF519
:1041500094EA1365A5FA8CF50AD165B951F8043BC8
:1041600084EA0204B4EB032F09D150F8042BEBE7E7
:104170004FEA13630DE015F0FF0F05D10B684FEA0E
:10418000122223F07F4304E04FF00000FDE80445D5
:10419000704712BA1BBA82FA4CF482EA0304A4FAFA
:1041A0008CF5B5FA85F402FA04F203FA04F34FEA47
:1041B0001260FDE80445A0EB1360704770B50D4632
:1041C000084C114606461A4628460023236007F08D
:1041D000DDFB431C00D070BD2368002BFBD0336097
:1041E00070BD00BFB84D022038B5074C002305460E
:1041F0000846236000F066F8431C00D038BD2368F1
:10420000002BFBD02B6038BDB84D022038B50B46D3
:10421000074C0546114618460023236000F05AF863
:10422000431C00D038BD2368002BFBD02B6038BD69
:10423000B84D022038B5074C0023054608462360D8
:1042400000F058F8431C00D038BD2368002BFBD089
:104250002B6038BDB84D022070B50D46084C114694
:1042600006461A4628460023236000F053F8431CF4
:1042700000D070BD2368002BFBD0336070BD00BF41
:10428000B84D022051F8040C0028A0F10400BCBF76
:104290000B58C018704700BF70B50D46084C11464A
:1042A00006461A4628460023236000F03BF8431CCC
:1042B00000D070BD2368002BFBD0336070BD00BF01
:1042C000B84D0220024B58221A604FF0FF30704761
:1042D000B84D0220024B58221A604FF0FF30704751
:1042E000B84D0220024B58221A604FF0FF30704741
:1042F000B84D0220024B58221A600020704700BFC0
:10430000B84D0220024B58221A604FF0FF30704720
:10431000B84D0220024B58221A604FF0FF30704710
:10432000B84D0220024B58221A604FF0FF30704700
:10433000B84D0220044A05491368002B08BF0B46FC
:10434000184410601846704754010020C04D0220E8
:10435000FEE700BF81F0004102E000BF83F00043B0
:1043600030B54FEA41044FEA430594EA050F08BF10
:1043700090EA020F1FBF54EA000C55EA020C7FEAD4
:10438000645C7FEA655C00F0E2804FEA5454D4EB51
:104390005555B8BF6D420CDD2C4480EA020281EA1B
:1043A000030382EA000083EA010180EA020281EA53
:1043B0000303362D88BF30BD11F0004F4FEA0131A5
:1043C0004FF4801C4CEA113102D0404261EB4101B4
:1043D00013F0004F4FEA03334CEA133302D052423A
:1043E00063EB430394EA050F00F0A780A4F10104F6
:1043F000D5F1200E0DDB02FA0EFC22FA05F2801830
:1044000041F1000103FA0EF2801843FA05F3594115
:104410000EE0A5F120050EF1200E012A03FA0EFC94
:1044200028BF4CF0020C43FA05F3C01851EBE371BE
:1044300001F0004507D54FF0000EDCF1000C7EEBDB
:1044400000006EEB0101B1F5801F1BD3B1F5001F19
:104450000CD349085FEA30004FEA3C0C04F1010438
:104460004FEA445212F5800F80F09A80BCF1004F61
:1044700008BF5FEA500C50F1000041EB045141EAE3
:10448000050130BD5FEA4C0C404141EB010111F4E4
:10449000801FA4F10104E9D191F0000F04BF01468F
:1044A0000020B1FA81F308BF2033A3F10B03B3F16D
:1044B00020020CDA0C3208DD02F1140CC2F10C02FD
:1044C00001FA0CF021FA02F10CE002F11402D8BF5B
:1044D000C2F1200C01FA02F120FA0CFCDCBF41EA27
:1044E0000C019040E41AA2BF01EB0451294330BDF6
:1044F0006FEA04041F3C1CDA0C340EDC04F11404D3
:10450000C4F1200220FA04F001FA02F340EA0300A9
:1045100021FA04F345EA030130BDC4F10C04C4F1EF
:10452000200220FA02F001FA04F340EA03002946CF
:1045300030BD21FA04F0294630BD94F0000F83F419
:10454000801306BF81F480110134013D4EE77FEAFC
:10455000645C18BF7FEA655C29D094EA050F08BF48
:1045600090EA020F05D054EA000C04BF1946104629
:1045700030BD91EA030F1EBF0021002030BD5FEA6D
:10458000545C05D14000494128BF41F0004130BD95
:1045900014F580043CBF01F5801130BD01F00045E9
:1045A00045F0FE4141F470014FF0000030BD7FEA5C
:1045B000645C1ABF194610467FEA655C1CBF0B4657
:1045C000024650EA013406BF52EA033591EA030F6E
:1045D00041F4002130BD00BF90F0000F04BF002166
:1045E000704730B54FF4806404F132044FF0000599
:1045F0004FF0000150E700BF90F0000F04BF002112
:10460000704730B54FF4806404F1320410F0004577
:1046100048BF40424FF000013EE700BF42004FEA72
:10462000E2014FEA31014FEA02701FBF12F07F43EF
:1046300093F07F4F81F06051704792F0000F14BFEC
:1046400093F07F4F704730B54FF4607401F0004530
:1046500021F0004120E700BF50EA010208BF704787
:1046600030B54FF000050AE050EA010208BF70477C
:1046700030B511F0004502D5404261EB41014FF4E5
:10468000806404F132045FEA915C3FF4DCAE4FF0E9
:1046900003025FEADC0C18BF03325FEADC0C18BFD0
:1046A000033202EBDC02C2F1200300FA03FC20FA21
:1046B00002F001FA03FE40EA0E0021FA02F114446E
:1046C000C1E600BF70B54FF0FF0C4CF4E06C1CEA83
:1046D00011541DBF1CEA135594EA0C0F95EA0C0FF8
:1046E00000F0DEF82C4481EA030621EA4C5123EA6B
:1046F0004C5350EA013518BF52EA033541F480119A
:1047000043F4801338D0A0FB02CE4FF00005E1FB4C
:1047100002E506F00042E0FB03E54FF00006E1FB96
:1047200003569CF0000F18BF4EF0010EA4F1FF04D9
:10473000B6F5007F64F5407404D25FEA4E0E6D4119
:1047400046EB060642EAC62141EA55514FEAC5202A
:1047500040EA5E504FEACE2EB4F1FD0C88BFBCF5A6
:10476000E06F1ED8BEF1004F08BF5FEA500E50F157
:10477000000041EB045170BD06F0004646EA01011D
:1047800040EA020081EA0301B4EB5C04C2BFD4EB4F
:104790000C0541EA045170BD41F480114FF0000E48
:1047A000013C00F3AB8014F1360FDEBF002001F0B6
:1047B000004170BDC4F10004203C35DA0C341BDC30
:1047C00004F11404C4F1200500FA05F320FA04F002
:1047D00001FA05F240EA020001F0004221F0004136
:1047E00010EBD37021FA04F642EB06015EEA430EA9
:1047F00008BF20EAD37070BDC4F10C04C4F12005D9
:1048000000FA04F320FA05F001FA04F240EA02008B
:1048100001F0004110EBD37041F100015EEA430E5C
:1048200008BF20EAD37070BDC4F1200500FA05F27C
:104830004EEA020E20FA04F301FA05F243EA0203FB
:1048400021FA04F001F0004121FA04F220EA02000A
:1048500000EBD3705EEA430E08BF20EAD37070BD50
:1048600094F0000F0FD101F00046400041EB010130
:1048700011F4801F08BF013CF7D041EA060195F012
:10488000000F18BF704703F00046520043EB0303CC
:1048900013F4801F08BF013DF7D043EA06037047B9
:1048A00094EA0C0F0CEA135518BF95EA0C0F0CD0C4
:1048B00050EA410618BF52EA4306D1D181EA03010A
:1048C00001F000414FF0000070BD50EA410606BF04
:1048D0001046194652EA430619D094EA0C0F02D149
:1048E00050EA013613D195EA0C0F05D152EA03368E
:1048F0001CBF104619460AD181EA030101F00041AC
:1049000041F0FE4141F470014FF0000070BD41F0F4
:10491000FE4141F4780170BD70B54FF0FF0C4CF4CE
:10492000E06C1CEA11541DBF1CEA135594EA0C0FED
:1049300095EA0C0F00F0A7F8A4EB050481EA030E3A
:1049400052EA03354FEA013100F088804FEA033321
:104950004FF0805545EA131343EA12634FEA0222EF
:1049600045EA111545EA10654FEA00260EF00041B0
:104970009D4208BF964244F1FD0404F5407402D202
:104980005B084FEA3202B61A65EB03055B084FEA93
:1049900032024FF480104FF4002CB6EB020E75EB90
:1049A000030E22BFB61A754640EA0C005B084FEAB8
:1049B0003202B6EB020E75EB030E22BFB61A754635
:1049C00040EA5C005B084FEA3202B6EB020E75EB80
:1049D000030E22BFB61A754640EA9C005B084FEAF8
:1049E0003202B6EB020E75EB030E22BFB61A754605
:1049F00040EADC0055EA060E18D04FEA051545EAF4
:104A000016754FEA06164FEAC30343EA52734FEA9C
:104A1000C2025FEA1C1CC0D111F4801F0BD141EA15
:104A200000014FF000004FF0004CB6E711F4801F7A
:104A300004BF01430020B4F1FD0C88BFBCF5E06F5A
:104A40003FF6AFAEB5EB030C04BFB6EB020C5FEA6A
:104A5000500C50F1000041EB045170BD0EF0004EBF
:104A60004EEA113114EB5C04C2BFD4EB0C0541EAF1
:104A7000045170BD41F480114FF0000E013C90E6EE
:104A800045EA060E8DE60CEA135594EA0C0F08BFB2
:104A900095EA0C0F3FF43BAF94EA0C0F0AD150EAB1
:104AA00001347FF434AF95EA0C0F7FF425AF104644
:104AB00019462CE795EA0C0F06D152EA03353FF46C
:104AC000FDAE1046194622E750EA410618BF52EAE9
:104AD00043067FF4C5AE50EA41047FF40DAF52EABD
:104AE00043057FF4EBAE12E74FF0FF3C06E000BF5A
:104AF0004FF0010C02E000BF4FF0010C4DF804CD67
:104B00004FEA410C7FEA6C5C4FEA430C18BF7FEA26
:104B10006C5C1BD001B050EA410C0CBF52EA430C54
:104B200091EA030F02BF90EA020F0020704710F1D4
:104B3000000F91EA030F58BF994208BF90422CBF63
:104B4000D8176FEAE37040F0010070474FEA410C5C
:104B50007FEA6C5C02D150EA013C07D14FEA430C7A
:104B60007FEA6C5CD6D152EA033CD3D05DF8040BEB
:104B7000704700BF8446104662468C46194663461D
:104B800000E000BF01B5FFF7B7FF002848BF10F1F4
:104B9000000F01BD4DF808EDFFF7F4FF0CBF012039
:104BA00000205DF808FB00BF4DF808EDFFF7EAFFB5
:104BB00034BF012000205DF808FB00BF4DF808ED70
:104BC000FFF7E0FF94BF012000205DF808FB00BF65
:104BD0004DF808EDFFF7CEFF94BF012000205DF8EF
:104BE00008FB00BF4DF808EDFFF7C4FF34BF0120FC
:104BF00000205DF808FB00BF4FEA410C7FEA6C5CC7
:104C000002D150EA013C0AD14FEA430C7FEA6C5CC6
:104C100002D152EA033C02D14FF0000070474FF03E
:104C2000010070474FEA410212F5001215D211D56A
:104C30006FF47873B3EB625212D94FEAC12343F099
:104C4000004343EA505311F0004F23FA02F018BF1B
:104C5000404270474FF00000704750EA013005D1E4
:104C600011F0004008BF6FF0004070474FF00000A7
:104C7000704700BF4FEA4102B2F1E04324BFB3F5F1
:104C8000001CDCF1FE5C0DD901F0004C4FEAC002C3
:104C90004CEA5070B2F1004F40EB830008BF20F0A7
:104CA0000100704711F0804F21D113F13872BCBF61
:104CB00001F00040704741F480114FEA5252C2F1B6
:104CC0001802C2F1200C10FA0CF320FA02F018BFFF
:104CD00040F001004FEAC1234FEAD32303FA0CFC52
:104CE00040EA0C0023FA02F34FEA4303CCE77FEAE1
:104CF000625307D150EA01331EBF4FF0FE4040F42B
:104D00004000704701F0004040F0FE4040F40000D9
:104D1000704700BF53B94AB9002908BF00281CBF1B
:104D20004FF0FF314FF0FF3000F07AB9ADF1080CD1
:104D30006DE904CE00F006F8DDF804E0DDE90223B9
:104D400004B070472DE9F0478C460D460446089E96
:104D5000002B51D18A4217466DD9B2FA82FEBEF1BC
:104D6000000F0BD0CEF1200C01FA0EF520FA0CFC4E
:104D700002FA0EF74CEA050C00FA0EF44FEA174A55
:104D8000250CBCFBFAF81FFA87F90AFB18CC45EA98
:104D90000C4508FB09F3AB420AD9ED1908F1FF32C3
:104DA00080F02381AB4240F22081A8F102083D440B
:104DB000ED1AA4B2B5FBFAF00AFB105544EA05441B
:104DC00000FB09F9A14509D9E41900F1FF3380F08E
:104DD0000A81A14540F2078102383C44A4EB090452
:104DE00040EA08400021002E61D024FA0EF400238E
:104DF00034607360BDE8F0878B4207D9002E54D031
:104E0000002186E821000846BDE8F087B3FA83F167
:104E1000002940F08E80AB4202D3824200F2FA8039
:104E2000841A65EB03050120AC46002E3FD086E8CE
:104E30001010BDE8F08712B90127B7FBF2F7B7FAF7
:104E400087FEBEF1000F34D1EB1B3A0C1FFA87FC32
:104E50000121B3FBF2F8250C02FB183345EA0345A8
:104E60000CFB08F3AB4207D9ED1908F1FF3002D271
:104E7000AB4200F2D1808046ED1AA3B2B5FBF2F04E
:104E800002FB105543EA05440CFB00FCA44507D97E
:104E9000E41900F1FF3302D2A44500F2B8801846AD
:104EA000A4EB0C0440EA08409DE731463046BDE8DB
:104EB000F087CEF1200405FA0EF307FA0EF720FA78
:104EC00004F83A0C25FA04F448EA0308B4FBF2F1BA
:104ED0004FEA184502FB11441FFA87FC45EA0445D6
:104EE00001FB0CF3AB4200FA0EF409D9ED1901F104
:104EF000FF3080F08A80AB4240F2878002393D4427
:104F0000EB1A1FFA88F5B3FBF2F002FB103345EA07
:104F1000034500FB0CF3AB4207D9ED1900F1FF3854
:104F20006FD2AB426DD902383D44EB1A40EA0141E1
:104F30008FE7C1F1200722FA07F88B4005FA01F448
:104F400048EA030320FA07FE4FEA134CFD404EEAFD
:104F5000040EB5FBFCF94FEA1E440CFB19551FFA71
:104F600083F844EA054509FB08F4AC4202FA01F271
:104F700000FA01FA08D9ED1809F1FF3043D2AC422A
:104F800041D9A9F102091D442D1B1FFA8EFEB5FB64
:104F9000FCF00CFB10554EEA054400FB08F8A04558
:104FA00007D9E41800F1FF3529D2A04527D90238E6
:104FB0001C4440EA0940A4EB0804A0FB02894C45CC
:104FC000C6464D4615D312D056B1BAEB0E0364EB6C
:104FD000050404FA07F7CB401F43CC4037607460E8
:104FE0000021BDE8F0871846F8E69046E0E6C245A5
:104FF000EAD2B8EB020E69EB03050138E4E7284674
:10500000D7E7404691E78146BEE7014678E7023898
:105010003C4445E7084608E7A8F102083D442BE771
:10502000704700BF08B502F089FF06F0FDFE01F0F1
:105030005BFA00F039F900F019F9002006F068FD7C
:10504000084807F049FB4FF47A7002F095FF07F02B
:1050500079FB00F0E5F805F00DFF0348FCF74EF989
:10506000FBE700BFAC48022090CA000808B508481A
:10507000FCF7CEF9074B1B7803B108BD064BD3E90B
:10508000000101F093F8034B187001F0E3F8F4E726
:1050900054CB00085A010020D84C022008B507F074
:1050A000A7FB08BD08B502E0012005F002FF4FF0A4
:1050B000FF31012005F02EFE0128F5D10248FCF752
:1050C0001DF901F00BF9EFE778CB000808B54FF4B4
:1050D000005004F067F808BD08B5202004F062F81D
:1050E00008BD08B5012004F05DF808BD08B5022030
:1050F00004F058F808BD000010B50446202807D079
:10510000B4F5005F10D0012C12D0022C17D010BDC6
:105110000D48FCF77DF90D4B1B78DBB2022BEFD06D
:1051200001220A4B1A70EBE70948FCF771F9EAE72C
:105130000022064B1A700748FCF76AF9E5E70648B3
:10514000FCF766F9E3E700BFACCA0008A8480220F4
:10515000B8CA0008C4CA0008D0CA000800B585B0A3
:105160002A4B1B78002B4DD0294B1A6800929DF8D2
:1051700000208DF808209DF801208DF809209DF869
:1051800002208DF80A209DF803208DF80B205B6823
:1051900000939DF800308DF80C309DF801308DF8AB
:1051A0000D309DF802308DF80E309DF803308DF8EB
:1051B0000F304FF0FF31174B186805F0D3FE082170
:1051C0000DEB010001F064F850B9104A1378013377
:1051D000DBB213700A2B06D100220C4B1A7002E0CE
:1051E00001220A4B1A7040F6B83005F062FE094BF6
:1051F000186805F0EFFE084A13880133138005B0E4
:105200005DF804FB0548FCF703F9F8E75A010020B4
:10521000844B0220D849022058010020DCCA000833
:1052200008B5084BD3E9000100F0C0FF064B187029
:1052300018B90648FCF7ECF808BD0548FCF7E8F893
:1052400008BD00BFD84C02205A0100201CCB00082A
:1052500004CB000808B50268034B9A4200D008BD91
:1052600002F07CFEFBE700BF002C014010B50C4CA7
:10527000204607F009F9204607F08AF907F070F98F
:105280000022084B1A7007F077F9322002F074FE02
:1052900007F02AF9322002F06FFE07F0B5F910BDD1
:1052A000544A0220A8480220F0B58FB000270EA86B
:1052B00040F8047D05F050FE1C4B18601C4C08ADF6
:1052C00026460FCE0FC533682B60394608A805F077
:1052D000D6FD184B186000F0D5FF0EA8164B40F80D
:1052E0001C3D3A46012105F0EDFD144B18601449B0
:1052F00005F0FCFD0EA8134B40F8203D3A46012175
:1053000005F0E0FD104B18604FF47A7105F0EEFDEA
:1053100001AD14340FCC0FC523682B60394601A8AA
:1053200005F0ADFD094B18600FB0F0BDD849022063
:10533000D8C80008F44B02206D500008EC4B022046
:1053400020A107009D5000080C4C0220404602207E
:105350007047000008B5034B834200D008BD00F041
:10536000C1FFFBE78C47022038B50C4C2046FCF708
:105370004FF80B4D2868FFF751F902460B460948D4
:10538000FBF7BCFF6868FFF749F902460B46064881
:10539000FBF7B4FF2046FCF73BF838BD68D70008A0
:1053A000844B0220F8CB000818CC000808B503484D
:1053B00007F082F9FFF7D8FF08BD00BF844B022039
:1053C00008B50C48FBF79AFF05E0002006F0A0FBAB
:1053D000012005F06EFD084B1B78DBB2012BF4D1E8
:1053E0000222054B1A70FFF7E1FF0020FFF7B6FE1F
:1053F000EBE700BF40CB0008A8480220094A11880B
:105400000B0243EA11239BB25840C0F303135840E8
:1054100080EA003000B283B25B0103F4FF535840CE
:10542000108070475C01002070B506460D464FF6AF
:10543000FF72074B1A80002404E0305DFFF7DEFFA7
:105440000134E4B2AC42F8D3014B188870BD00BF00
:105450005C010020B0B500AF0C460B79DA1D22F0DC
:105460000702ADEB020D6D460022694600F0F9FF20
:105470000E4A13780133DBB21370A278934201D045
:105480000A4B1A7021792846FFF7CEFF6279C0F3E4
:105490000F239A4202D00020BD46B0BDA379C0B20E
:1054A000834201D00020F7E70120F5E778020020D1
:1054B00030B5C1B0094D284600F0AAFFC4B222465B
:1054C0006946284601F000F84FF47A73224669468F
:1054D0000348006802F0EFFA41B030BD68020020D6
:1054E000FC4C022010B5064C01222146054B1868E1
:1054F00001F0ACFE01222146034800F03AFF10BD46
:10550000E04C0220FC4C0220E44C0220F0B583B0B9
:1055100007460E461546FFF787FF134A13780133F7
:10552000DBB21370C0228DF8002000248DF80140FA
:105530008DF802308DF803508DF80460030A8DF861
:1055400005308DF80600094D07226946284600F00F
:1055500010FF32463946284600F00BFF2046FFF781
:10556000A7FF03B0F0BD00BF790200206802002051
:1055700030B587B04F4B1C786CBB4F4800F048FFEC
:10558000072830D94D4D0723002229464A4800F00C
:1055900068FF2B78C02B1AD0474D0121284600F018
:1055A00052FF0023434A1370454A1370284600F007
:1055B0002FFF072817D801223E4B1A7007213E48BB
:1055C00000F041FF3D4B1A793D4B1A700BE06B78B0
:1055D000002BE1D1EFE7384800F01AFF384B1B7879
:1055E000984203D20024204607B030BD0022324941
:1055F00002A800F0A6FE314902A8FFF72BFFD0B1A8
:105600002E4BDB78012B22D0032B27D0042B2CD060
:10561000022B31D0052B3BD0294B197802A800F082
:1056200012FF274B1D7802A800F0F2FE291A89B25A
:10563000214800F008FF0023214A13701D4A13700F
:105640001D4800F0E5FE0728CDD80024CBE71D4A11
:105650001268002AD8D002A89047E2E71A4A1268D6
:10566000002AD3D002A89047DBE7184A1268002A24
:10567000CED002A89047D4E78DF80430012102A8CB
:1056800000F0E1FE0322012101A8FFF73FFFC8E778
:10569000012201A902A800F017FF9DF804100C4890
:1056A000FBF72CFE0B4B1B68002BBAD09DF80400B7
:1056B0009847B6E77A020020E44C0220F44C02201E
:1056C0007B020020600100207C0200206401002099
:1056D00058CC00088003002010B50C4C2060FF223D
:1056E0000B490C4800F027FE0020FFF7E1FEFFF712
:1056F0003FFF4FF480720849084800F01CFE012269
:105700000749206801F0A2FD10BD00BFFC4C02203B
:10571000680100206802002080020020E44C022082
:10572000E04C0220012904D0032905D0042906D029
:105730007047044B18607047034B18607047034B69
:105740001860F5E7600100207C0200206401002061
:10575000014B1860704700BF80030020F0B5CBB04C
:10576000044600252F46204600F052FE002800F097
:10577000858006A9204600F05DFC9DF81830043BAA
:105780001F2B75D8DFE803F01F747474747474747D
:1057900074747474747474747474747474747474C9
:1057A000747474742B7437109DF81E103A4B1A7869
:1057B000914203D03948FBF7A1FDD4E79DF81C7056
:1057C0009DF81D50CFE7364B1B68DE68002ECAD00F
:1057D0000AAB099A08999DF81C00B047C3E7304B03
:1057E0001B689E68002EBED00AAB099A08999DF8E6
:1057F0001C00B047B7E79DF81C31D72B09D0284BC8
:105800001B685B68002BAED007A99DF81C01984768
:10581000A9E76E460DF11C0EBEE80F000FC69EE80C
:10582000030046F8040B26F8021B090C31709DF8A2
:105830000D30C3F30113032B07D8DFE803F00F0D7E
:10584000020408260BE0022609E0164B164A4FF424
:1058500097711648FAF706FD002600E00126144865
:10586000FBF74CFD31460DF10F00FBF747FDC6E796
:105870000C4B104A69211048FAF7F4FC57B1084B59
:105880001B681B681BB1044A117828469847002200
:10589000014B5A704BB0F0BD88030020C4CC000807
:1058A00084030020F4CC00088CCC0008FCCC000859
:1058B0001CCD000874CC000834CD000808B5034B9B
:1058C0001860006908B1FFF743FF08BD840300209A
:1058D00010B5002406E0FFF74BFE052002F04CFB5C
:1058E0000134E4B2034800F093FD08B1312CF2D941
:1058F00010BD00BFE44C022008B5FFF7EDFE01210A
:105900000348FFF70FFF0022024B5A7008BD00BF8B
:105910005D570008880300200022014B5A70704731
:105920008803002070B50F4B5B78ABB90D4D012497
:105930006C702E1D4FF4807205F11401304600F09A
:10594000FAFC094B197829700A191A702246304658
:1059500000F0C4FB204670BD0448FBF7CFFC0020DC
:1059600070BD00BF880300209C040020A8CC000864
:105970002DE9F04782B00746884691469A46FFF7E0
:10598000D1FF0446C8B10A9B1B78D3B1012B20D0AC
:10599000022B26D0174D2E1DCDF800A04B464246B7
:1059A0003946304600F00CFB304600F031FD012254
:1059B000C1B205F11400FFF7A9FD204602B0BDE811
:1059C000F0870C230A9A0432D7210B4800F0A8F97B
:1059D000E0E722230A9A04320321074800F0A0F9E5
:1059E000D8E72C230A9A04320221034800F098F9E0
:1059F000D0E700BF880300208C03002008B50B719E
:105A00004A710122063100F05FFD00B908BD034B69
:105A1000034AD4210348FAF725FC00BF14D6000836
:105A200008CE000854D6000870B586B0AAB1044666
:105A30000D4693B901220DF1170100F045FD90B913
:105A40009DF8173085F80431D72B12D0023BDBB21A
:105A5000012B40F2848006B070BD4A4B4A4AD921DE
:105A60004A48FAF7FFFB4A4B474ADB214748FAF717
:105A7000F9FB6E4655F8040F6968AA68EB680FC613
:105A800028693060AA8AAB7DB280B3710122694671
:105A9000204600F019FD02220DEB0201204600F025
:105AA00013FDBDF802305BBAADF80230012201A946
:105AB000204600F009FD01220DF10501204600F00D
:105AC00003FD01220DF10701204600F0FDFC01223B
:105AD00002A9204600F0F8FC01220DF10901204640
:105AE00000F0F2FC01220DF10A01204600F0ECFC6E
