:020000040800F2
:1000000000000520A58A0008298A00082B8A00081C
:100010002D8A00082F8A0008318A0008000000009D
:10002000000000000000000000000000217900082E
:10003000338A000800000000C1790008257A000812
:10004000F58A0008F58A0008F58A0008F58A000894
:10005000F58A0008F58A0008F58A0008F58A000884
:10006000F58A0008F58A0008F58A0008F58A000874
:10007000F58A0008F58A0008F58A0008F58A000864
:10008000F58A0008F58A0008F58A0008F58A000854
:10009000F58A0008F58A0008F58A0008F58A000844
:1000A000F58A0008358A0008F58A0008F58A0008F4
:1000B000F58A0008F58A0008F58A0008F58A000824
:1000C000F58A0008F58A0008F58A0008758A000894
:1000D000858A0008F58A0008458A0008558A0008C4
:1000E000F58A0008F58A0008F58A0008F58A0008F4
:1000F000F58A0008F58A0008F58A0008F58A0008E4
:10010000F58A0008F58A0008F58A0008958A000833
:10011000F58A0008658A0008F58A0008F58A000853
:10012000F58A0008F58A0008F58A0008F58A0008B3
:10013000F58A0008F58A0008F58A0008F58A0008A3
:10014000F58A0008F58A0008F58A0008F58A000893
:10015000F58A0008F58A0008F58A0008F58A000883
:10016000F58A0008F58A0008F58A0008F58A000873
:10017000F58A0008F58A0008F58A000800000000EA
:10018000F58A0008F58A0008F58A0008F58A000853
:10019000F58A0008F58A0008F58A0008F58A000843
:1001A000F58A0008F58A0008000000000000000041
:1001B000044B05481B1A062B02D9044B03B1184700
:1001C000704700BFB3000020B00000200000000016
:1001D00005490648091A891001EBD171491002D06E
:1001E000034B03B118477047B0000020B000002057
:1001F0000000000010B5064C237843B9FFF7D8FF84
:10020000044B13B10448AFF300800123237010BDE9
:10021000B000002000000000F88A000808B5084B74
:100220001BB108490848AFF300800848036813B9B8
:10023000BDE80840CCE7064B002BF9D09847F7E71C
:1002400000000000B4000020F88A0008B000002080
:100250000000000000B50A4C2668054685B01C4623
:10026000F06852B1074B02928DE80A0022462B46F5
:10027000054900F021F800F02DFE044B1A46F2E784
:100280000000002068990008789900083C98000850
:1002900008B513460022FFF7DDFF00BF0CB400B520
:1002A00083B004AB53F8042B019300F067F903B05B
:1002B0005DF804EB02B070470EB410B583B005AB27
:1002C000064C53F8042B01930146206800F056F9C0
:1002D00003B0BDE8104003B0704700BF000000202D
:1002E00070B50F4E0F4D761BB61018BF002405D009
:1002F000013455F8043B9847A642F9D10A4E0B4DFC
:10030000761B08F0F9FBB61018BF002406D00134A4
:1003100055F8043B9847A642F9D170BD70BD00BFA7
:10032000F0990008F0990008F4990008F099000885
:10033000844641EA000313F003036DD1403A41D3F0
:1003400051F8043B40F8043B51F8043B40F8043BAF
:1003500051F8043B40F8043B51F8043B40F8043B9F
:1003600051F8043B40F8043B51F8043B40F8043B8F
:1003700051F8043B40F8043B51F8043B40F8043B7F
:1003800051F8043B40F8043B51F8043B40F8043B6F
:1003900051F8043B40F8043B51F8043B40F8043B5F
:1003A00051F8043B40F8043B51F8043B40F8043B4F
:1003B00051F8043B40F8043B51F8043B40F8043B3F
:1003C000403ABDD2303211D351F8043B40F8043BDF
:1003D00051F8043B40F8043B51F8043B40F8043B1F
:1003E00051F8043B40F8043B103AEDD20C3205D3EF
:1003F00051F8043B40F8043B043AF9D2043208D0E7
:10040000D2071CBF11F8013B00F8013B01D30B8858
:1004100003806046704700BF082A13D38B078DD036
:1004200010F003038AD0C3F10403D21ADB071CBF08
:1004300011F8013B00F8013B80D331F8023B20F872
:10044000023B7BE7043AD9D3013A11F8013B00F8AB
:10045000013BF9D20B7803704B7843708B78837033
:100460006046704770B4860746D0541E002A41D0BB
:10047000CAB2034602E014F1FF343BD303F8012B68
:100480009D07F8D1032C2ED9CDB245EA05250F2CB6
:1004900045EA054519D903F110022646103E0F2EF4
:1004A00042F8105C42F80C5C42F8085C42F8045CCC
:1004B00002F11002F2D8A4F1100222F00F0204F0AF
:1004C0000F041032032C13440DD91E462246043A61
:1004D000032A46F8045BFAD8221F22F003020432F2
:1004E000134404F003042CB1C9B21C4403F8011BEB
:1004F0009C42FBD170BC704714460346C2E700BF64
:100500009368013B002B10B4936008DBCCB21368F6
:10051000581C1060197020465DF8044B70479469B0
:10052000A34202DBCCB20A2CF1D15DF8044B00F0FF
:10053000F5BB00BF93B1F8B514460F460646D51873
:1005400001E0AC4208D03A4614F8011B3046FFF7F0
:10055000D7FF431CF5D1F8BD0020F8BD002070473F
:10056000936810B5144613B95360184610BD00F0D7
:10057000A9FE0023A360636010BD00BF2DE9F04F0A
:100580009DB0894614460393824618B18369002BB7
:1005900000F00A818A4B994500F00C81894B9945FE
:1005A00000F00B81884B994508BFDAF80C90B9F838
:1005B0000C30180740F1EE80D9F81030002B00F015
:1005C000E98030238DF82A302378804E00212022C4
:1005D00009918DF829200127002B00F08480252B1C
:1005E000254603D117E0252B00F0858015F8013F43
:1005F000002BF8D1B5EB040B75D022465B4649467B
:100600005046FFF797FF01306DD0099B2A785B4475
:100610000993002A67D000234FF0FF32013504937D
:10062000079306938DF853301A93059204E0049AC9
:1006300007FA03F31343049329780522304601F0A7
:100640007FF82C46831B01350028F0D1049BD90686
:1006500044BF20228DF8532021781A0744BF2B2253
:100660008DF853202A2969D0A1F13002092A0BD82C
:10067000079B14F8011F03EB830302EB4303A1F173
:100680003002092AF5D907932E293FD0504D032275
:10069000284601F055F838B1049B401B402202FA6D
:1006A00000F003430134049321784A488DF8281060
:1006B0000622013401F044F8002849D0464BF3B13A
:1006C00003AB00934A46454B04A95046AFF3008064
:1006D0008046B8F1FF3F06D0099B43440993237835
:1006E000002B7FF47CAFB9F80C305B0659D4099825
:1006F0001DB0BDE8F08FB5EB040B8CD07DE7039BFC
:10070000073323F0070308330393E5E761782A29C9
:1007100004F1010026D0A1F130020023092A05933B
:100720000446B3D814F8011F03EB830302EB430321
:10073000A1F13002092AF5D90593A7E7039A1168B8
:100740000432002903921FDB0791617801349BE793
:1007500003AB00934A46214B04A9504600F0E6F84B
:100760008046B6E7039B1A680592002A03F104034A
:100770000393B8BF4FF0FF3204F10203AEBFA1787C
:10078000A17805921C4681E7494243F00203079194
:100790000493DAE74946504600F022FB00283FF474
:1007A00010AF4FF0FF30A3E700F06CFD044B99450C
:1007B0007FF4F4AEDAF80490F9E6DAF80890F6E699
:1007C000688B0008488B0008288B0008AC9900084B
:1007D000B4990008B8990008000000003505000829
:1007E00010B4044C13460A46014620685DF8044BD9
:1007F000FFF7C4BE000000202DE9F0470C469146EB
:100800000A698968DDF820808A42B8BF0A46C9F8BB
:10081000002094F8431006461F4611B10132C9F872
:100820000020236899065DD5D9F800200232C9F866
:100830000020236813F0060F19461DD1E1688A1ABB
:10084000002AD8BF194617DD04F1190A002505E072
:10085000E368D9F800209B1AAB420CDD0123524615
:1008600039463046C047013005F10105F0D14FF05F
:10087000FF30BDE8F087216894F84330003318BF9B
:1008800001238A060AD5E1185A1C302081F843005A
:10089000224494F8451082F84310023304F14302D5
:1008A00039463046C0470130E1D0236803F00603E3
:1008B000042B29D0A36822699342C8BF4FF00009D6
:1008C00030DD9B1A99441A34002501E04D4529D0AA
:1008D0000123224639463046C047013005F1010563
:1008E000F4D1C4E713F0060F08D1E168D9F800206D
:1008F0008A1A002AD8BF1946A6DCBDE794F843300F
:10090000003318BF0123C9E7D9F80010E068A368D5
:100910002269A0EB0109934229EAE979D1DCB9F116
:10092000000FD0D10020BDE8F08700BF2DE9F043D3
:100930000C46097E85B06E29064617460C989846E7
:1009400004F1430C55D00FD8632900F01B8100F24D
:10095000D68000295CD0582940F0E88084F8451002
:100960002268DFF860E213E0732900F0FD8000F2F6
:1009700089806F2900F0E480702940F0D7802268D8
:1009800042F0200222607823DFF83CE284F8453010
:100990000368150603F1040100F1FF8055064BBF03
:1009A0001B881B6801600160D00744BF42F0200231
:1009B0002260002B40F09580226822F02002226005
:1009C0001021002284F843206068A0600028C0F253
:1009D0008D80226822F004022260002B67D100285B
:1009E00040F08680654608296FD0ACEB0503236193
:1009F00011E023681A0600F1D38013F0400F03685A
:100A0000626903F1040101601B6814BF1A801A6057
:100A1000002365462361CDF800803B4603AA2146AA
:100A20003046FFF7E9FE013021D02A4623693946D6
:100A30003046C04701301AD02368E06813F0020F37
:100A4000039B19D0C21A002A16DD04F119090025EA
:100A500004E0E068039BC21AAA420DDD01234A4666
:100A600039463046C047013005F10105F1D14FF05C
:100A7000FF3005B0BDE8F0839842B8BF184605B016
:100A8000BDE8F08375295BD078294FD122687AE7D9
:100A90006168A1602D200029C3F1000384F84300A0
:100AA00021DB22F00402DFF81CE122600A21654606
:100AB000B3FBF1F201FB123013461EF8002005F8DB
:100AC000012D002BF4D108298FD12368D9078CD5AB
:100AD000626823699A4288DC302305F8013C013DB5
:100AE00083E710216DE7DFF8DCE00A21002BDED17F
:100AF0009EF8003084F8423004F1420573E764291F
:100B000001D0692912D122680368150603F1040196
:100B100052D455064BBFB3F900301B680160016029
:100B2000002BB5DBDFF89CE00A214DE7012384F8B8
:100B30004210236104F14205002384F843306AE740
:100B400023681A0633D413F0400F036803F104023C
:100B500015BF1B881B68026002606F2914BF0A2141
:100B60000821DFF860E02CE703686268191D016066
:100B70001D680021284600F0E3FD00B3401B6060C3
:100B80002061D9E703681A68191D0123016004F187
:100B9000420584F842202361CEE701601B6803E729
:100BA00003686269191D01601B681A6030E70368F9
:100BB0001A1D02601B68D0E701601B68B0E760681F
:100BC000DEE700BFC0990008D49900080EB410B544
:100BD000044683B018B183690BB900F053FB06A833
:100BE00003460190059AA1682046FFF7C7FC03B0B1
:100BF000BDE8104003B070470FB410B50A4B1C6835
:100C000082B024B1A36913B9204600F03BFB05A8CC
:100C100003460190049AA1682046FFF7AFFC02B09A
:100C2000BDE8104004B07047000000202DE9F041FD
:100C30000E46804600283ED08369002B39D0846858
:100C40002F4B9C4243D02F4B9C4256D02E4B9C4264
:100C500008BFD8F80C40A3891B073DD52369002B9A
:100C60003AD0013EA36816F8015F013BA360B5B11D
:100C7000002B04DB23685A1C22601D70F2E7A76971
:100C8000BB4222462946404601DB0A2DF2D100F044
:100C900045F80130E6D14FF0FF30BDE8F081002B80
:100CA00021DB23680A22591C21601A701046BDE816
:100CB000F08100F0E7FAD8F81830D8F80840002B97
:100CC000BED1404600F0DEFA0D4B9C42BBD1D8F8B5
:100CD0000440A3891B07C1D42146404600F080F898
:100CE0000028BED0D7E7224640460A2100F016F879
:100CF0000130D0D00A20BDE8F081D8F80840AAE73A
:100D0000688B0008488B0008288B0008024B0146BE
:100D10001868FFF78BBF00BF00000020F8B50D4634
:100D20001446064610B18369002B42D0254B9C42E5
:100D300044D0254B9C4243D0244B9C4208BFF468CE
:100D4000A389A269A2601A0722D5236903B3226886
:100D50006169D31AEDB28B422F4621DA0133A168C3
:100D6000501C0139A1602060157062699A4206D05A
:100D7000A389DB0701D50A2D01D03846F8BD2146ED
:100D8000304600F043F90028F7D04FF0FF37F4E782
:100D90002146304600F024F80028F6D12369D6E732
:100DA0002146304600F032F90028EED122680123B6
:100DB000D5E700F067FA034B9C42BAD17468BFE7ED
:100DC000B468BDE7688B0008488B0008288B0008D2
:100DD000024B0A4601461868FFF7A0BF000000203A
:100DE000384B70B51D6806460C4615B1AB69002B33
:100DF00042D0354B9C4245D0344B9C4258D0344B6A
:100E00009C4208BFEC68B4F90C2093B219070CD5CA
:100E10002069A8B113F001021ED0636900225B4271
:100E2000A361A260F0B1002070BDDD0642D5580775
:100E30002AD4206942F00803A3819BB20028E9D19B
:100E400003F42072B2F5007FE4D03046214600F072
:100E50002FFCA3892069DDE7990758BF6269A2606A
:100E60000028E0D1B4F90C301A06DDD543F0400378
:100E7000A3814FF0FF3070BD284600F003FA124BFB
:100E80009C42B9D16C68BEE7616B51B104F1440377
:100E9000994204D0304600F007FDB4F90C2000233D
:100EA000636300232069636022F024022060C1E7AD
:100EB000AC68A8E742F04002092333604FF0FF30EE
:100EC000A28170BD00000020688B0008488B0008DC
:100ED000288B000808B5062000F05CFE012000F019
:100EE000A1FF00BF8B891A072DE9F0410D4680460E
:100EF00033D44A68002A67DDEC6A002C45D0002212
:100F0000D8F80060C8F8002013F4805260D06A6DF1
:100F10005F0705D569686B6B521A0BB12B6CD21A3F
:100F20000023296A4046A047441C39D0AB892A696E
:100F30002A60DB044FF000026A6043D4696BC8F892
:100F4000006011B305F14403994202D0404600F01D
:100F5000ABFC00206863BDE8F0810E69AEB10C689F
:100F60000E6098070CBF4B690023A41B8B600AE03E
:100F700023463246AF6A296A4046B8470028A4EBA8
:100F80000004064404DD002CF2DC0020BDE8F08102
:100F9000AB8943F04003AB814FF0FF30BDE8F081F7
:100FA000D8F800201D2AF3D8174BD340DB4313F0A9
:100FB0000103EDD1A9892C696B60C9042C60BDD5F2
:100FC000002ABBD16865B9E70A6C002A94DCDCE72B
:100FD0000123296A4046A047431C024602D0AB8940
:100FE000EC6A95E7D8F80030002BF8D01D2B01D023
:100FF000162B02D1C8F80060C7E7AB8943F0400365
:10100000AB81BDE8F08100BF010040200B6933B324
:1010100010B5044682B008B18369ABB1114B994257
:1010200019D0114B994218D0104B994208BFE16872
:10103000B1F90C3013B9002002B010BD204602B047
:10104000BDE81040FFF74EBF019100F01BF9019978
:10105000044B9942E5D16168EAE7A168E8E700201E
:10106000704700BF688B0008488B0008288B000879
:1010700020B1054B01461868FFF7C8BF034B044970
:10108000186800F0BDBA00BF00000020248B0008E3
:101090000D10000800207047014900F0B1BA00BFF0
:1010A0000D1000080020704770B54A1E682505FB2A
:1010B00002F50E4605F1740100F03EFC044640B115
:1010C00000210C30666005F168022160A060FFF726
:1010D000C9F9204670BD00BF204B70B51D68AB69D3
:1010E00006465BB348356B68AC68013B05D521E02B
:1010F000013B5A1C04F168041CD0B4F90C20002AEE
:10110000F6D100254FF6FF720123E281A3816566C7
:101110002560A560656025616561A5612946082295
:1011200004F15C00FFF79EF96563A563A564E564BF
:10113000204670BD286828B10546D4E7284600F04F
:101140000FF8CFE704213046FFF7AEFF28600028F4
:10115000F2D10C2304463360EAE700BF248B000879
:101160003D4B3E491A682DE9F04F90424FF0000385
:101170008364C364036508BF012383B008BF836130
:1011800081620746FFF7A8FF78603846FFF7A4FFA3
:10119000B8603846FFF7A0FF7D68F860002404239C
:1011A000AB812C606C60AC606C66EC812C616C6116
:1011B000AC61214605F15C000822FFF753F9BE68D7
:1011C000DFF89CB0DFF89CA0DFF89C90DFF89C80F3
:1011D000C5F824B001230922C5F828A0C5F82C9031
:1011E000C5F830802D622146F381B281346074608D
:1011F000B460746634617461B46106F15C00082205
:101200000193FFF72FF9FD68366212200222C6F81B
:1012100024B0C6F828A0C6F82C90C6F83080214625
:10122000A881EA812C606C60AC606C662C616C619A
:10123000AC6105F15C000822FFF714F9019B2D62F7
:10124000C5F824B0C5F828A0C5F82C90C5F83080A2
:10125000BB6103B0BDE8F08F248B00089910000833
:10126000051C00082D1C0008691C0008891C0008CA
:10127000024B0349186800F0C3B900BF248B000873
:101280000D100008836903B96AE77047704700BF13
:10129000704700BF704700BF704700BF024B034953
:1012A000186800F087B900BF00000020A5100008F2
:1012B000024B0349186800F07DB900BF0000002010
:1012C000951000089368002B73D02DE9F04F8B899F
:1012D00083B00C4619070090164626D5226922B322
:1012E00013F0020035682CD04FF00009B04FC8460B
:1012F000B246B84543464A4628BF3B460098B8F137
:10130000000F50D0216AA66AB047002858DDDAF8ED
:1013100008301B1A8144A8EB0008CAF80830002BDB
:10132000E7D1002003B0BDE8F08F21460098FFF719
:1013300057FD002840F03381A389356813F002007F
:10134000D2D113F0010945D14F46019637B39A0522
:10135000D4F8088040F183804745C346C0F0AB8095
:1013600013F4906F40F0AC802068BA465A46494664
:1013700000F036FAA2682368A2EB08025B44A26080
:101380002360019A9368A3EB0A03D144A7EB0A07F1
:101390009360002BC5D0A389002FD8D1D5F8009039
:1013A0006F680835D2E7D5F80090D5F80480083585
:1013B0009FE70020704721460098FFF727FE70B393
:1013C000B4F90C3043F040034FF0FF30A38103B079
:1013D000BDE8F08F814633464E46A8469A464D46B4
:1013E0004EB380B3206823696269B145CB4628BFFC
:1013F000B34698425F4604D9A36813449B4500F363
:10140000A68093454BDB1346A76A216A00982A46BB
:10141000B847071ED4DDB9EB0709CCD00120DAF8B4
:101420000830DB1B3D44F61BCAF80830002B3FF4A4
:1014300078AF002ED5D108F1080313E96000984673
:101440000833002EF9D032460A21284600F078F9F8
:10145000002800F0A1800130A0EB0509C2E7206858
:101460002369984202D863699F425DD2B84528BF7C
:10147000B8464246494600F0B3F9A3682268A3EB98
:1014800008034244A36022600BB1C24679E72146BB
:101490000098FFF7BBFD002892D1C24671E75A467B
:1014A000294600F09DF9A2682368A2EB0B025B4479
:1014B000A2602360AFE72068B846BA46BB4655E74E
:1014C00062692068216902EB4208A0EB010A08EB7F
:1014D000D8780AF101004FEA68083844404542468E
:1014E00084BF804642465B0544D51146009800F013
:1014F00023FA8346002855D052462169FEF718FF8B
:10150000A38923F4906343F08003A3810BEB0A00CB
:10151000A8EB0A03C4F810B0C4F814802060A360DC
:10152000B846BA46BB4621E76FF00041B94228BF32
:1015300039464A4691FBF3F10098A66A03FB01F392
:10154000216AB047B0F1000A3FF71BAF38E71A46EF
:101550002946019300F044F92268019B00981A443F
:1015600022602146FFF752FD019B00287FF428AF3F
:101570001F4650E7009800F03DFA83460028C5D189
:10158000009D2169284600F08FF9B4F90C300C2237
:1015900023F080032A6015E706F1010922E74FF0E6
:1015A000FF30BFE6009A0C231360B4F90C3009E752
:1015B00000FCFF7F2DE9F04110F148071BD0884661
:1015C00000267D68BC68013D0FD4A389012B05F17D
:1015D000FF3506D9B4F90E300133204601D0C0479B
:1015E00006436B1C04F16804EFD13F68002FE8D17B
:1015F0003046BDE8F0813E463046BDE8F08100BF90
:101600002DE9F84310F148071FD0884606464FF0F1
:1016100000097D68BC68013D11D4A389012B05F147
:10162000FF3508D9B4F90E3001332146304602D0D7
:10163000C04749EA00096B1C04F16804EDD13F681A
:10164000002FE6D14846BDE8F883B9464846BDE8D4
:10165000F88300BF70B50C46B1F90E10002990B0A8
:1016600015461E4613DB01AA00F03AFB00280EDBEC
:10167000029A02F47042A2F50052B2FA82F25209C2
:101680004FF48063002032602B6010B070BDA389DE
:1016900000221B06326004D5402300202B6010B0CE
:1016A00070BD4FF4806300202B6010B070BD00BF90
:1016B0008A8992070B4606D501F1470201211A607B
:1016C0001A6159617047F0B583B001AB6A460C46A8
:1016D0000546FFF7BFFF00990646284600F02CF9A3
:1016E000B4F90C30D0B1019A124F0099AF6243F0B7
:1016F0008003A3812060206161611AB93343A38113
:1017000003B0F0BD2846B4F90E1000F0FDFAB4F9AC
:101710000C300028F2D043F00103EFE79A05EFD434
:1017200004F1470243F002030121A38122602261F8
:101730006161E5E79910000800000000000000006A
:1017400001F0FF01102A2BDB10F0070F08D010F872
:10175000013B013A8B422DD010F0070F42B3F6D176
:10176000F0B441EA012141EA014122F007047FF08F
:1017700000070023F0E80256083C85EA010586EAE6
:10178000010685FA47F5A3FA87F586FA47F6A5FA22
:1017900087F68EB9EED1F0BC01F0FF0102F007022E
:1017A00032B110F8013B013A83EA010313B1F8D1D9
:1017B0000020704701387047002D06BF35460338BA
:1017C000073815F0010F07D1013015F4807F02BFF3
:1017D000013015F4C03F0130F0BC0138704700BF44
:1017E0008842F0B50DD98B1898420AD28418002A85
:1017F00051D0224613F8014D02F8014D9942F9D11A
:10180000F0BD0F2A48D941EA00039B0746D100F1F9
:10181000100401F11003154653F8106C44F8106CD5
:1018200053F80C6C44F80C6C53F8086C44F8086CD2
:10183000103D53F8046C44F8046C0F2D03F11003B1
:1018400004F11004E8D8A2F1100323F00F0302F012
:101850000F0E1033BEF1030F1944034421D91E1F8C
:101860000D467446043C55F8047B46F8047F032C6F
:10187000F8D8AEF1040424F00304043421442344D2
:1018800002F0030262B1013B0A4411F8014B03F874
:10189000014F8A42F9D1F0BD0346F3E70346F2E770
:1018A000F0BD7246EEE700BF91B151F8043C043937
:1018B000002BB8BFC9181F4B1A68FAB18A4230B45E
:1018C0000AD908680C18A24226D04A60196030BCB8
:1018D00070478B4203D81A465368002BF9D114681D
:1018E00015198D420DD006D808680C189C4219D0E5
:1018F0004B605160EBE70C230360E8E74A60196036
:10190000704709680C44111999421460DFD10ACB61
:101910000C4453601460DAE7146852684A6020444B
:101920000860D3E71C685B684B6020440860516026
:10193000CDE700BFCC00002070B5CC1C24F0030420
:1019400008340C2C38BF0C24002C06463BDBA1428B
:1019500039D8274D296851B10A68121B04D436E0E2
:101960001A68121B1AD519464B68002BF8D1696802
:10197000002937D02146304600F064F8431C22D0BD
:10198000C31C23F00305A84205D0291A304600F0F5
:1019900059F8013017D02C602B4604E00B2A0DD9E2
:1019A0001A6013441C6003F10B0020F007001A1D9D
:1019B000821A02D05142995070BD70BD8B420ED038
:1019C0005A684A60EFE70C233360002070BD0B2A91
:1019D00003D84A680B462A60E5E70B46E0E70A466B
:1019E0000B46F8E7304600F02DF86860C2E700BF0C
:1019F000CC000020F8B51446F9B1C2B106460D4638
:101A000000F0AAF9844201D82846F8BD21463046A4
:101A1000FFF792FF074670B122462946FEF788FC81
:101A2000294630463D46FFF73FFF2846F8BDFFF701
:101A30003BFF2546E8E70546E6E71146BDE8F840E6
:101A4000FFF77ABF38B5074C0023054608462360E8
:101A500000F0DAF9431C00D038BD2368002BFBD01E
:101A60002B6038BDE84C022010B580210446FFF7FA
:101A700063FF606440B1031F00227C3043F8042FF1
:101A80008342FBD1002010BD4FF0FF3010BD00BFDE
:101A9000436C0BB100207047E6E700BF1F2909D84F
:101AA00010B5446C84B054B154F8210044F821209E
:101AB00004B010BD162202604FF0FF307047039053
:101AC00002920191FFF7D0FF20B9039B029A5C6C50
:101AD0000199E9E74FF0FF30EAE700BF1F2927D857
:101AE00020B5426C82B00546AAB152F8213093B1BC
:101AF000012B0ED0581C07D00025084642F8215073
:101B00009847284602B020BD162301202B6002B062
:101B100020BD0020F6E72846019100F071F80199F8
:101B20000A460146284602B0BDE8204000F054B8FD
:101B3000162303604FF0FF30704700BF1F2926D8DF
:101B400020B5436C82B00546BBB153F8212003EBAE
:101B5000810382B1501C0BD0012A06D00025084613
:101B60001D609047284602B020BD032002B020BD72
:101B7000022002B020BD0120F5E70191FFF774FFBC
:101B800010B96B6C0199E0E74FF0FF30EBE74FF0D5
:101B9000FF307047024B01461868FFF79FBF00BF38
:101BA00000000020024B0A4601461868FFF776BF86
:101BB00000000020034B1868436C0BB100207047F5
:101BC00052E700BF00000020024B01461868FFF7F3
:101BD000B5BF00BF0000002038B50B46074C0546D6
:101BE000114618460023236000F0F6F8431C00D08D
:101BF00038BD2368002BFBD02B6038BDE84C022099
:101C000000F0DAB810B50C46B1F90E1000F0AEF8DD
:101C1000002803DB636D0344636510BDA38923F4CF
:101C20008053A38110BD00BF002070472DE9F04113
:101C30001646B1F90C201F46D3050C46054607D5BC
:101C400000220223B1F90E1000F070F8B4F90C2054
:101C5000B4F90E1022F48052A2813B463246284647
:101C6000BDE8F04100F014B810B50C46B1F90E1003
:101C700000F05CF8A389421C0EBF23F4805343F4A8
:101C800080536065A38110BDB1F90E1000F016B845
:101C900070B50D46084C114606461A4628460023E4
:101CA000236006F099F9431C00D070BD2368002B17
:101CB000FBD0336070BD00BFE84C022038B5074C44
:101CC000002305460846236000F066F8431C00D058
:101CD00038BD2368002BFBD02B6038BDE84C0220B8
:101CE00038B50B46074C05461146184600232360BD
:101CF00000F05AF8431C00D038BD2368002BFBD0FD
:101D00002B6038BDE84C022038B5074C002305464F
:101D10000846236000F058F8431C00D038BD236803
:101D2000002BFBD02B6038BDE84C022070B50D466F
:101D3000084C114606461A4628460023236000F048
:101D400053F8431C00D070BD2368002BFBD03360D8
:101D500070BD00BFE84C022051F8040C0028A0F12F
:101D60000400BCBF0B58C018704700BF70B50D46CB
:101D7000084C114606461A4628460023236000F008
:101D80003BF8431C00D070BD2368002BFBD03360B0
:101D900070BD00BFE84C0220024B58221A604FF081
:101DA000FF307047E84C0220024B58221A604FF077
:101DB000FF307047E84C0220024B58221A604FF067
:101DC000FF307047E84C0220024B58221A60002076
:101DD000704700BFE84C0220024B58221A604FF0B7
:101DE000FF307047E84C0220024B58221A604FF037
:101DF000FF307047E84C0220024B58221A604FF027
:101E0000FF307047E84C0220044A05491368002B54
:101E100008BF0B461844106018467047D4000020D5
:101E2000F04C0220FEE700BF53B94AB9002908BFB1
:101E300000281CBF4FF0FF314FF0FF3000F07AB99F
:101E4000ADF1080C6DE904CE00F006F8DDF804E011
:101E5000DDE9022304B070472DE9F0478C460D46BA
:101E60000446089E002B51D18A4217466DD9B2FA1A
:101E700082FEBEF1000F0BD0CEF1200C01FA0EF560
:101E800020FA0CFC02FA0EF74CEA050C00FA0EF4EC
:101E90004FEA174A250CBCFBFAF81FFA87F90AFB30
:101EA00018CC45EA0C4508FB09F3AB420AD9ED19F9
:101EB00008F1FF3280F02381AB4240F22081A8F18B
:101EC00002083D44ED1AA4B2B5FBFAF00AFB105526
:101ED00044EA054400FB09F9A14509D9E41900F1D8
:101EE000FF3380F00A81A14540F2078102383C446B
:101EF000A4EB090440EA08400021002E61D024FA36
:101F00000EF4002334607360BDE8F0878B4207D97C
:101F1000002E54D0002186E821000846BDE8F08755
:101F2000B3FA83F1002940F08E80AB4202D38242A3
:101F300000F2FA80841A65EB03050120AC46002EFE
:101F40003FD086E81010BDE8F08712B90127B7FB33
:101F5000F2F7B7FA87FEBEF1000F34D1EB1B3A0C53
:101F60001FFA87FC0121B3FBF2F8250C02FB1833A2
:101F700045EA03450CFB08F3AB4207D9ED1908F11C
:101F8000FF3002D2AB4200F2D1808046ED1AA3B2FC
:101F9000B5FBF2F002FB105543EA05440CFB00FCD4
:101FA000A44507D9E41900F1FF3302D2A44500F299
:101FB000B8801846A4EB0C0440EA08409DE731467F
:101FC0003046BDE8F087CEF1200405FA0EF307FA9B
:101FD0000EF720FA04F83A0C25FA04F448EA03084C
:101FE000B4FBF2F14FEA184502FB11441FFA87FCDB
:101FF00045EA044501FB0CF3AB4200FA0EF409D9A3
:10200000ED1901F1FF3080F08A80AB4240F2878009
:1020100002393D44EB1A1FFA88F5B3FBF2F002FBDC
:10202000103345EA034500FB0CF3AB4207D9ED1929
:1020300000F1FF386FD2AB426DD902383D44EB1A44
:1020400040EA01418FE7C1F1200722FA07F88B40EF
:1020500005FA01F448EA030320FA07FE4FEA134C9D
:10206000FD404EEA040EB5FBFCF94FEA1E440CFBA2
:1020700019551FFA83F844EA054509FB08F4AC42F8
:1020800002FA01F200FA01FA08D9ED1809F1FF305D
:1020900043D2AC4241D9A9F102091D442D1B1FFABC
:1020A0008EFEB5FBFCF00CFB10554EEA054400FB20
:1020B00008F8A04507D9E41800F1FF3529D2A0455A
:1020C00027D902381C4440EA0940A4EB0804A0FBCD
:1020D00002894C45C6464D4615D312D056B1BAEBCF
:1020E0000E0364EB050404FA07F7CB401F43CC4012
:1020F000376074600021BDE8F0871846F8E6904626
:10210000E0E6C245EAD2B8EB020E69EB03050138FE
:10211000E4E72846D7E7404691E78146BEE7014617
:1021200078E702383C4445E7084608E7A8F102088A
:102130003D442BE7704700BF00B583B0194B1B78B7
:102140005BB314238DF80030174B1B888DF80130DA
:102150001B0A8DF802304FF0FF31144B186805F060
:102160000BFA0321684601F07FF890B90D4A137805
:102170000133137040F6B83005F0A5F90B4B186821
:1021800005F032FA084A13880133138003B05DF872
:1021900004FB0122034B1A70ECE70548FEF7B6FD7D
:1021A000F4E700BFDA000020D80000202449022014
:1021B000888B000808B50848FEF7A8FD074B1B7878
:1021C00003B108BD064BD3E9000100F0D3FF034B78
:1021D000187001F02BF8F4E7B08B0008DA0000204B
:1021E000C84A022008B502E0012005F06CF94FF062
:1021F000FF31012005F098F80128F5D101F04CF8E5
:10220000F2E7000008B5034B834200D008BD01F09F
:1022100047F8FBE7F846022030B583B01A4C204659
:10222000FEF774FD194D2846FEF770FD1848FEF7BD
:102230006DFD2846FEF76AFD2046FEF767FD154B4B
:102240006C4693E803008DE803001348FEF7D4FCC6
:1022500003E01248FEF7D0FC013421780029F8D1C0
:102260000F48FEF753FD0F4C4FF40041204603F09A
:10227000ACFA4FF4FA6002F093F94FF400412046B3
:1022800003F0A3FA03B030BDCC9700080C8C000813
:10229000388C0008C84A02204C8C0008588C000872
:1022A000608C0008000C004800B58BB002F05AF9B1
:1022B00006F0C8F801F0F6F805F07AFD2C4CC4E9F8
:1022C0000001FFF7A9FFD4E9000100F053FF294BFB
:1022D0001870002847D100260AA840F8046D05F0C0
:1022E00045F9254B186004AC244D0FCD0FC42B6865
:1022F0002360314604A805F0CCF8214B186000F0AB
:10230000ADFF304605F0FEFE0AA81E4B40F81C3D0E
:102310003246012105F0E0F81B4B186041F288318C
:1023200005F0EEF80AA8194B40F8203D324601218D
:1023300005F0D2F8164B18604EF6602105F0E0F873
:102340000AA8144B40F8243D3246012105F0C4F898
:10235000114B1860114905F0D3F81148FEF7D6FC6F
:1023600005F092F8FEE70F48FEF7D0FCB3E700BF98
:10237000C84A0220DA00002024490220108B0008FD
:10238000344B022005810008B84B02203921000897
:10239000BC450220B5210008304B022080EE3600FB
:1023A000F08B0008D48B000808B50268034B9A42F2
:1023B00000D008BD02F0E6F8FBE700BF002C0140AA
:1023C00070470000094A11880B0243EA11239BB2AF
:1023D0005840C0F30313584080EA003000B283B283
:1023E0005B0103F4FF53584010807047DC0000206D
:1023F00070B506460D464FF6FF72074B1A80002453
:1024000004E0305DFFF7DEFF0134E4B2AC42F8D304
:10241000014B188870BD00BFDC000020B0B500AFD4
:102420000C460B79DA1D22F00702ADEB020D6D466A
:102430000022694600F0F3FF0E4A13780133DBB245
:102440001370A278934201D00A4B1A702179284662
:10245000FFF7CEFF6279C0F30F239A4202D000202B
:10246000BD46B0BDA379C0B2834201D00020F7E7DA
:102470000120F5E7F801002030B5C1B0094D28462C
:1024800000F0A4FFC4B222466946284600F0FAFFD5
:102490004FF47A73224669460348006801F01FFE34
:1024A00041B030BDE8010020344C022010B5064C8C
:1024B00001222146054B186801F0DCF90122214672
:1024C000034800F034FF10BD184C0220344C0220A9
:1024D0001C4C0220F0B583B007460E461546FFF7A8
:1024E00087FF134A13780133DBB21370C0228DF8D3
:1024F000002000248DF801408DF802308DF8035043
:102500008DF80460030A8DF805308DF80600094D3A
:1025100007226946284600F00AFF32463946284617
:1025200000F005FF2046FFF7A7FF03B0F0BD00BF96
:10253000F9010020E801002030B587B04F4B1C782E
:102540006CBB4F4800F042FF072830D94D4D0723A0
:10255000002229464A4800F062FF2B78C02B1AD08F
:10256000474D0121284600F04CFF0023434A1370D9
:10257000454A1370284600F029FF072817D8012282
:102580003E4B1A7007213E4800F03BFF3D4B1A7945
:102590003D4B1A700BE06B78002BE1D1EFE7384828
:1025A00000F014FF384B1B78984203D200242046D9
:1025B00007B030BD0022324902A800F0A0FE314928
:1025C00002A8FFF72BFFD0B12E4BDB78012B22D0D6
:1025D000032B27D0042B2CD0022B31D0052B3BD042
:1025E000294B197802A800F00CFF274B1D7802A890
:1025F00000F0ECFE291A89B2214800F002FF002306
:10260000214A13701D4A13701D4800F0DFFE072891
:10261000CDD80024CBE71D4A1268002AD8D002A8E2
:102620009047E2E71A4A1268002AD3D002A89047DE
:10263000DBE7184A1268002ACED002A89047D4E7F8
:102640008DF80430012102A800F0DBFE03220121F5
:1026500001A8FFF73FFFC8E7012201A902A800F087
:1026600011FF9DF804100C48FEF7C6FA0B4B1B68CF
:10267000002BBAD09DF804009847B6E7FA01002075
:102680001C4C02202C4C0220FB010020E00000200A
:10269000FC010020E40000207C8C000800030020E6
:1026A00010B50C4C2060FF220B490C4800F021FEB5
:1026B0000020FFF7E1FEFFF73FFF4FF4807208496B
:1026C000084800F016FE01220749206801F0D2F800
:1026D00010BD00BF344C0220E8000020E8010020BB
:1026E000000200201C4C0220184C0220012904D0BA
:1026F000032905D0042906D07047044B18607047A1
:10270000034B18607047034B1860F5E7E0000020AA
:10271000FC010020E4000020014B1860704700BF5E
:1027200000030020F0B5CBB0044600252F4620461C
:1027300000F04CFE002800F0858006A9204600F03D
:102740005DFC9DF81830043B1F2B75D8DFE803F0C3
:102750001F7474747474747474747474747474748E
:102760007474747474747474747474742B74371013
:102770009DF81E103A4B1A78914203D03948FEF763
:102780003BFAD4E79DF81C709DF81D50CFE7364BFF
:102790001B68DE68002ECAD00AAB099A08999DF81A
:1027A0001C00B047C3E7304B1B689E68002EBED0AC
:1027B0000AAB099A08999DF81C00B047B7E79DF845
:1027C0001C31D72B09D0284B1B685B68002BAED07F
:1027D00007A99DF81C019847A9E76E460DF11C0E4C
:1027E000BEE80F000FC69EE8030046F8040B26F86B
:1027F000021B090C31709DF80D30C3F30113032B3C
:1028000007D8DFE803F00F0D020408260BE00226CC
:1028100009E0164B164A4FF497711648FDF71AFD5A
:10282000002600E001261448FEF7E6F931460DF1D6
:102830000F00FEF7E1F9C6E70C4B104A692110487A
:10284000FDF708FD57B1084B1B681B681BB1044A14
:102850001178284698470022014B5A704BB0F0BDC2
:1028600008030020E88C000804030020188D0008ED
:10287000B08C0008208D0008408D0008988C00085E
:10288000588D000808B5034B1860006908B1FFF7C0
:1028900043FF08BD0403002010B5002406E0FFF745
:1028A0004BFE052001F07CFE0134E4B2034800F049
:1028B0008DFD08B1312CF2D910BD00BF1C4C022097
:1028C00008B5FFF7EDFE01210348FFF70FFF0022D7
:1028D000024B5A7008BD00BF2527000808030020DE
:1028E0000022014B5A7070470803002070B50F4B4F
:1028F0005B78ABB90D4D01246C702E1D4FF48072C6
:1029000005F11401304600F0F4FC094B19782970E8
:102910000A191A702246304600F0C4FB204670BDEA
:102920000448FEF769F9002070BD00BF08030020CD
:102930001C040020CC8C00082DE9F04782B007462B
:10294000884691469A46FFF7D1FF0446C8B10A9BD4
:102950001B78D3B1012B20D0022B26D0174D2E1D72
:10296000CDF800A04B4642463946304600F00CFBFD
:10297000304600F02BFD0122C1B205F11400FFF733
:10298000A9FD204602B0BDE8F0870C230A9A043264
:10299000D7210B4800F0A8F9E0E722230A9A043275
:1029A0000321074800F0A0F9D8E72C230A9A043243
:1029B0000221034800F098F9D0E700BF0803002087
:1029C0000C03002008B50B714A710122063100F09A
:1029D00059FD00B908BD034B034AD4210348FDF754
:1029E00039FC00BF389600082C8E00087896000845
:1029F00070B586B0AAB104460D4693B901220DF117
:102A0000170100F03FFD90B99DF8173085F80431AB
:102A1000D72B12D0023BDBB2012B40F2848006B0F0
:102A200070BD4A4B4A4AD9214A48FDF713FC4A4B2C
:102A3000474ADB214748FDF70DFC6E4655F8040F69
:102A40006968AA68EB680FC628693060AA8AAB7DFE
:102A5000B280B37101226946204600F013FD0222C4
:102A60000DEB0201204600F00DFDBDF802305BBA0F
:102A7000ADF80230012201A9204600F003FD012239
:102A80000DF10501204600F0FDFC01220DF10701CA
:102A9000204600F0F7FC012202A9204600F0F2FCDB
:102AA00001220DF10901204600F0ECFC01220DF19C
:102AB0000A01204600F0E6FC01220DF10B01204640
:102AC00000F0E0FC01220DF10D01204600F0DAFCDF
:102AD00001220DF10E01204600F0D4FC9DF80D30CE
:102AE000C3F30113032B07D8DFE803F00F0D020433
:102AF00008220BE0022209E0184B194A4FF49771A3
:102B00001848FDF7A7FB002200E001220DF10F019C
:102B1000204600F0B7FC002881D0134B0C4AF0216E
:102B20000C48FDF797FBAB88ADF80030012120463B
:102B300000F067FC01226946204600F0A3FC012258
:102B40000DEB0201204600F09DFC68E7B4950008FB
:102B5000408E000878960008C0950008188D00087F
:102B60007C8D0008208D0008EC95000810B582B01F
:102B7000044602A9002301F8013D012200F082FC75
:102B80009DF80700820901D102B010BD00F03F009E
:102B9000D300984002A941F8080D204600F072FCCD
:102BA0000098F1E730B585B0054601913F2925D958
:102BB000B1F5804F2ED20124B1F5800F00D303244C
:102BC000A301DBB28DF80F3004AA224412F80C2CBA
:102BD000134404A901F8013D0122284600F0A7FB97
:102BE000D0B9013CE4B2012201AB1919284600F02A
:102BF0009EFBB8B9002CF4D105B030BD012201A96B
:102C000000F095FB0028F7D0094B0A4A3F210A48FB
:102C1000FDF720FB0224CFE7084B064A4C2106486B
:102C2000FDF718FB064B034A4F210348FDF712FB43
:102C300024940008988D000878960008589400089D
:102C40008094000830B583B004460D4601226946E1
:102C5000284600F017FC58B92846FFF787FF019077
:102C600002AB13E9030084E80300204603B030BD43
:102C7000024B034A55210348FDF7ECFAA0950008E2
:102C8000B48D00087896000870B582B005460E46EF
:102C900001466846FFF7D6FF331D9DE8030083E831
:102CA00003002846FFF762FFF060FF2807D882B2D2
:102CB00006F11001284600F0E5FB02B070BD034BA1
:102CC000034AC2210348FDF7C5FA00BF98960008E1
:102CD000148E00087896000808B5FFF7D5FF08BDE8
:102CE00008B5FFF7D1FF08BDF0B583B0EAB10446DF
:102CF0000D461F461646322100F05CFBD8B9294626
:102D0000204600F057FBE0B9D72D20D0022D6ED021
:102D1000032D00F0C1803A463146204600F007FB03
:102D2000002840F0FA8003B0F0BD7F4B7F4A6B2152
:102D30007F48FDF78FFA7F4B7C4A6C217C48FDF77A
:102D400089FA7D4B794A6D217948FDF783FA31780C
:102D5000204600F02FFB90B97178204600F02AFB46
:102D600098B9B178204600F025FBA0B9B378C3F339
:102D70000113032B19D8DFE803F0211F14166F4B42
:102D80006A4A71216A48FDF765FA6D4B674A7221FC
:102D90006748FDF75FFA6B4B644A73216448FDF79F
:102DA00059FA08250BE0022509E0674B674A4FF402
:102DB00097716748FDF74EFA002500E00125F1788C
:102DC000204600F0F7FA60B92A46311D204600F08F
:102DD000AEFA0028A7D05F4B544A76215448FDF73D
:102DE00039FA5D4B514A75215148FDF733FA96F88F
:102DF0002810490001F0FE01204600F0DBFA68BB14
:102E000096F82910204600F0D5FA68BB102231460A
:102E1000204600F08CFA68BB1022B118204600F062
:102E200086FA68BB336A1BBA02A941F8083D04223E
:102E3000204600F07CFA48BB736A1BBA02A941F82D
:102E4000043D0422204600F072FA00283FF46BAFE4
:102E5000424B364A83213648FDF7FCF9404B334A52
:102E60007B213348FDF7F6F93E4B304A7C21304850
:102E7000FDF7F0F93C4B2D4A7D212D48FDF7EAF98D
:102E80003A4B2A4A7E212A48FDF7E4F9384B274A73
:102E900080212748FDF7DEF996F82010490001F05F
:102EA000FE01204600F086FAF8B996F82110204677
:102EB00000F080FAF8B908223146204600F037FACF
:102EC000F8B90822B118204600F031FAF8B91022FA
:102ED000B118204600F02BFA00283FF424AF254B10
:102EE000124A8C211248FDF7B5F91D4B0F4A882173
:102EF0000F48FDF7AFF9204B0C4A89210C48FDF72C
:102F0000A9F91E4B094A8A210948FDF7A3F91C4B70
:102F1000064A8B210648FDF79DF91A4B034A90217A
:102F20000348FDF797F900BFB88E0008D48D00085C
:102F300078960008C88E0008FC8E0008288F0008CC
:102F4000788F0008D08F0008188D00087C8D00084D
:102F5000208D00088C9000082C9000085C920008DE
:102F6000E89000081C9100087C910008D0910008AE
:102F7000249200089C93000894920008F4920008A0
:102F800048930008F0930008F8B504460F4616462B
:102F90001D46202100F00EFA98B93946204600F06F
:102FA00009FAA0B931462046FFF7FCFD2946204624
:102FB000FFF7F8FDAAB20699204600F0B8F960B90B
:102FC000F8BD094B094A97210948FDF743F9094B18
:102FD000064A98210648FDF73DF9074B034A9B2115
:102FE0000348FDF737F900BFBC940008F08D0008D6
:102FF000789600088C8E0008F894000830B583B0ED
:1030000005460C4601220DF1070100F03BFAF0B92C
:103010009DF80710C1F38012CB0901F03F018DF834
:103020000710217004391F292CD8DFE801F0162B76
:103030002B2B2B2B2B2B2B2B2B2B2B2B2B2B2B2BE0
:103040002B2B2B2B2B2B2B2B2B2B1C2B2621114BE8
:10305000114AFF211148FDF7FDF821462846FFF7E8
:103060003BFE03B030BD21462846FFF739FEF8E7A6
:1030700021462846FFF7A6FCF3E721462846FFF73E
:10308000B7FCEEE7064B044A40F213110348FDF784
:10309000E1F800BF78950008588E0008789600087F
:1030A000188D000838B504460D46D20142F03401AF
:1030B00001F0B40100F07EF928B92946204600F05D
:1030C00079F938B938BD074B074A4FF4A87107485A
:1030D000FDF7C0F8064B044A40F251110348FDF7D2
:1030E000B9F800BF249500086C8E00087896000897
:1030F0004C95000808B50022034B1A7080F00102BD
:103100000248FDF779FD08BD1D0400200098000865
:1031100030B583B00025054C2570009313460A4650
:1031200001460348FDF768FD03B030BD1D040020D3
:103130006498000830B583B00025054C25700093D5
:1031400013460A4601460348FDF756FD03B030BD5D
:103150001D040020AC98000808B50022034B1A702B
:103160000348FDF7D3FDFFF7BBFB08BD1D0400209E
:103170004098000870B594B02248FDF7C7FD224E74
:10318000032108A804F042FE354608AC0FCC0FC559
:103190000FCC0FC594E8070085E8070096F8284093
:1031A0005CB303211948FDF727FD19491948FDF7BC
:1031B00023FD154E4FF4E13307936C4606F11005DD
:1031C0000FCD0FC495E8070084E8070096E80F00CC
:1031D00004F0FEFD3269104B1A60726A0F4B1A60E0
:1031E0007068FFF76DFB0E48FFF74CFB0D48FDF7CD
:1031F0008DFD0124204614B070BD0B48FDF786FDFF
:10320000F8E700BFF4960008384C022050970008F9
:10321000749700088C970008804A0220F449022025
:1032200064000020B49700082097000810B50A4CED
:10323000236800229988186802F0C2FA322001F04F
:10324000AFF9236801229988186802F0B9FA4FF49F
:103250007A7001F0A5F910BDF4490220014B186005
:1032600001207047844A022030B583B00C46084BD9
:10327000009303460A4600214020FFF75DFB054608
:1032800021460448FDF7B8FC284603B030BD00BF16
:1032900078000020D097000808B5FFF7FDFA08BDB8
:1032A00008B5FFF703F9064B1B7803B108BD054BC2
:1032B000186804F09FFE0122014B1A70F6E700BF68
:1032C0001D040020844A02200388194489B2018029
:1032D0008388994204D9B1FBF3F203FB12110180F8
:1032E0007047816000210180013B8380428001732F
:1032F000704708B513460022FFF7F3FF08BD10B46E
:103300008C6884600C88144404800C88224413FA6E
:1033100082F39BB243808A88934201D99B1A4380EF
:103320008B888380012303735DF8044B7047F8B5E5
:10333000037B0BB11620F8BD15460E4604464388A4
:103340000288934210D2E918914202DB41F28A309E
:10335000F8BD80682A4631461844FCF7E9FF6288C8
:10336000154465800020F8BDE818A188884208DD72
:10337000C91A8FB2ED1BADB2AA420DD841F28A3004
:10338000F8BDA0682A4631461844FCF7D1FF628890
:10339000154465800020F8BDA0683A4631461844BF
:1033A000FCF7C6FF2A46F119A068FCF7C1FF65804B
:1033B0000020F8BD00B583B002AB03F8011D012267
:1033C0001946FFF7B4FF03B05DF804FB0288438899
:1033D0009A4205D98088801A13FA80F080B270472B
:1033E000981A80B2704741B110B50C46FFF7EEFF56
:1033F000844204D941F28A3010BD00207047002079
:1034000010BD70B505460E46FFF7EDFF044608B146
:10341000204670BD31462846FFF756FFF8E72DE9F4
:10342000F0410646884614461D461946FFF7DBFF65
:103430000746E8B932882244B38892FBF3F103FBD4
:10344000112189B2481990FBF3F203FB120292B2E8
:10345000914210D95B1A9CB2B36822461944404687
:10346000FCF766FF2A1BB16808EB0400FCF760FF5D
:103470003846BDE8F081B3682A4619444046FCF757
:1034800057FFF5E770B50646144613460022FFF7CE
:10349000C6FF054608B1284670BD21463046FFF7F5
:1034A00013FFF8E708B504F077FC08BD002859D0F1
:1034B00010B5044690F84130002B43D0242384F803
:1034C00041302268136823F00103136022686368A7
:1034D00023F0706313612268936823F400439360C0
:1034E000E368012B33D02268A36843F4044393605C
:1034F000E368022B31D02268536843F0007343F431
:10350000004353602268D36823F40043D3602268E9
:10351000236961690B43A16943EA0123D3602268EF
:10352000E369216A0B4313602268136843F00103C7
:10353000136000206064202384F84130206384F805
:10354000420010BD80F8403004F0F8FFB6E7226872
:10355000A36843F400439360CAE723684FF4006212
:103560005A60C8E70120704790F84130DBB2202B49
:1035700001D00220704790F84030012B20D0012369
:1035800080F84030242380F841300268136823F02B
:10359000010313600268136823F480531360026808
:1035A0001368194311600268136843F00103136044
:1035B000202380F84130002380F8403018467047BF
:1035C0000220704790F84130DBB2202B01D002205E
:1035D000704790F84030012B1ED0012380F8403016
:1035E000242380F841300268136823F0010313603C
:1035F0000268136823F4706343EA012111600268D2
:10360000136843F001031360202380F84130002346
:1036100080F840301846704702207047002853D089
:1036200010B504460023836290F85D30002B40D033
:10363000022384F85D302268136823F0400313608E
:10364000E368B3F5E06F39D90021B3F5706F04D0AA
:10365000B3F5E06F01D00022A262226B22B9B3F56C
:10366000E06F2ED90223236322686368A0680343B6
:103670002069034360690343A06900F400700343B9
:10368000E0690343206A0343A06A0343136022688E
:10369000638B03F00403606A0343606B0343E068D9
:1036A00003430B43536000202066012384F85D3000
:1036B00010BD80F85C3005F0CBF8B9E74FF48051CD
:1036C000C3E701232363CFE7012070477047000061
:1036D00010B584B0044602685168936803F0410055
:1036E000012867D013F0020F02D011F0800F68D1CB
:1036F00013F4B07F68D011F0200F65D013F0400FA5
:103700000FD094F85D00C0B203285FD0206E40F067
:103710000400206600200090D0680090906800901F
:10372000009813F0200F0CD0206E40F001002066AE
:103730000020029090680290106820F04000106015
:10374000029A13F4807F09D0236E43F008032366A6
:103750000023039323689B680393039B236E002B32
:1037600032D02268536823F0E0035360012384F8C9
:103770005D3011F0030F31D02268536823F003034A
:103780005360A36D4BB1174A9A63A06D02F021F804
:1037900018B1236E43F040032366636DA3B1114A51
:1037A0009A63606D02F015F870B1236E43F0400328
:1037B000236609E011F0400F94D0E36C204698474F
:1037C00002E0236D2046984704B010BD002301930A
:1037D000D368019393680193019BF5E72046FFF7B7
:1037E00075FFF1E7E937000808B5806A0023A0F803
:1037F0004630C387FFF76AFF08BD40B338B50446BB
:1038000003684CF6CC421A60036845F255521A60C0
:10381000036842685A60036882689A6000F0BAFEE2
:1038200005462368DA6832B100F0B4FE401B302848
:10383000F7D9032038BD1969E268914202D01A61B4
:10384000002038BD4AF6AA221A60002038BD0120A7
:1038500070470268136823F49073136002689368DA
:1038600023F001039360202380F872300023036665
:103870007047000090F87230DBB2202B01D002209C
:103880007047002956D0002A56D090F87030012B8E
:1038900054D0012380F870304165A0F85820A0F87A
:1038A0005A20002303668368B3F5805F06D0A3B96E
:1038B000036973B9FF23A0F85C3011E0036923B9F1
:1038C00040F2FF13A0F85C300AE0FF23A0F85C3060
:1038D00006E07F23A0F85C3002E0B3F1805F19D0EE
:1038E00000234367222380F872300268936843F014
:1038F000010393608368B3F5805F15D0104B0366B6
:10390000002380F8703001680A6842F490720A60FF
:103910001846704703691BB97F23A0F85C30DFE7C6
:103920003F23A0F85C30DBE70369002BE6D1054BB1
:103930000366E5E7012070470120704702207047C9
:1039400067390008CB390008704708B501680A6874
:1039500022F040020A60202280F871200022426694
:10396000FFF7F2FF08BDB0F85C2090F87230DBB2D0
:10397000222B06D00268138B9BB243F008031383FB
:10398000704710B50368998C436D5C1C4465D2B2D6
:103990000A401A70B0F85A309BB2013B9BB2A0F8B3
:1039A0005A3003B110BD0268136823F4907313609A
:1039B0000268936823F001039360202380F872303B
:1039C00000230366FEF71EFC10BD08B5B0F85C20AE
:1039D00090F87230DBB2222B06D00268138B9BB2B8
:1039E00043F00803138308BD0368998C436D0A40B4
:1039F0001A80436D02334365B0F85A309BB2013BE5
:103A00009BB2A0F85A30002BEDD10268136823F462
:103A1000907313600268936823F00103936020237E
:103A200080F8723000230366FEF7ECFB08BD704798
:103A300038B504460268D3691168906813F00F0521
:103A40000CD113F0200F09D011F0200F06D0236EF7
:103A5000002B00F093802046984738BD002D6FD092
:103A600010F0010502D111F4907F69D013F0010F1D
:103A700007D011F4807F04D001201062626F0243EE
:103A8000626713F0020F07D035B12268022010627E
:103A9000626F42F00402626713F0040F07D035B181
:103AA000226804201062626F42F00202626713F023
:103AB000080F09D011F0200F00D12DB12268082085
:103AC0001062626F02436267626F002A56D013F081
:103AD000200F06D011F0200F03D0236E0BB120462B
:103AE0009847636F13F0080F04D123689B6813F0A5
:103AF000400F1FD02046FFF7ACFE23689A6812F0F3
:103B0000400F13D09A6822F040029A60E36E4BB1E6
:103B10001D4A9A63E06E01F05CFE78B3E06E836B41
:103B2000984738BD2046FFF782FF38BD2046FFF793
:103B30007EFF38BD2046FFF77AFF0023636738BD5C
:103B400013F4801F02D010F4800F0AD113F0800FFD
:103B50000ED011F0800F0BD0636E7BB120469847DA
:103B600038BD4FF480131362204600F08CFB38BD43
:103B700013F0400F02D011F0400F00D138BD2046A5
:103B8000FFF7E3FEFAE700BF8D3B000808B5806A47
:103B90000023A0F85A30A0F85230FFF748FF08BDC4
:103BA0002DE9784B04460168836802691343426932
:103BB0001343C269134308689F4A024013430B60D2
:103BC0002268536823F44053E1680B435360A369B0
:103BD00022689A498A4201D0216A0B43916821F4F4
:103BE00030610B4393602368954A934227D0954AEE
:103BF000934238D0944A93424ED0944A934261D033
:103C0000934A934274D08D4A934200F08A801025E3
:103C10008A4A934200F0AA80E369B3F5004F00F0AE
:103C20002C81082D00F2B781DFE815F076018D01B7
:103C30009701B501A201B501B501B501AC0102F5CD
:103C40005842D2F8882002F00302032A09D8DFE89C
:103C500002F0020481060125DAE70425D8E70825E9
:103C6000D6E71025D4E702F5E632D2F8882002F034
:103C70000C020C2A0ED8DFE802F0070D0D0D090D1D
:103C80000D0D6F0D0D0D0B000025C1E70425BFE7DD
:103C90000825BDE71025BBE702F5E432D2F88820FD
:103CA00002F03002102A09D005D9202A56D0302A35
:103CB00006D10825ACE71AB90025A9E70425A7E72E
:103CC0001025A5E702F5E232D2F8882002F0C00202
:103CD000402A09D005D9802A42D0C02A06D1082519
:103CE00096E71AB9002593E7042591E710258FE799
:103CF00002F5E032D2F8882002F44072B2F5807FFB
:103D00000BD007D9B2F5007F2CD0B2F5407F06D199
:103D100008257DE71AB900257AE7042578E71025FC
:103D200076E702F5C832D2F8882002F44062B2F594
:103D3000806F0BD007D9B2F5006F15D0B2F5406F88
:103D400006D1082564E71AB9002561E704255FE775
:103D500010255DE702255BE7022559E7022557E7B5
:103D6000022555E7022553E7022551E7082D11D812
:103D7000DFE805F0081005100C101010130035488E
:103D800000260DE001F05AF8002609E000F060FC82
:103D9000002605E00020012602E04FF40040002646
:103DA000002800F0CA80626802EB42039842C0F02B
:103DB000F580B0EB023F00F2F380082D5AD8DFE81F
:103DC00005F005591F59295959594F0001F036F886
:103DD00000234FEA10694FEA00286268500818EB88
:103DE000000B49F1000C58466146FEF71DF8A0F59E
:103DF0004072194B9A4200F2D5802368D8609CE04B
:103E00005508002315480021401941F10001FEF733
:103E10000BF8ECE700F01CFC00234FEA10694FEAB6
:103E200000286268500818EB000B49F1000C584656
:103E30006146FDF7F9FFDAE7F369FFEF0080004024
:103E4000003801400044004000480040004C004061
:103E5000005000400024F400FFFC0F00000024F498
:103E600050080021002310F5000041F10001FDF78A
:103E7000DBFFBCE701260020B9E7082D49D8DFE8C1
:103E800005F0051E2948344848483F0000F0D6FF99
:103E90006268530803EB4003B3FBF2F39BB20026C6
:103EA000A3F110014FF6EF7291427DD89AB222F041
:103EB0000F02C3F3420313432268D3603DE000F0D6
:103EC000CFFF6268530803EB4003B3FBF2F39BB2EE
:103ED0000026E5E76268530803F1F47303F59043A5
:103EE000B3FBF2F39BB20026DAE700F0B1FB6268A5
:103EF000530803EB4003B3FBF2F39BB20026CFE77A
:103F00006268530803F58033B3FBF2F39BB20026DB
:103F1000C6E701260023C3E700F090FF636800EBCB
:103F20005300B0FBF3F080B20026A0F110024FF670
:103F3000EF739A423AD82368D860002323666366F9
:103F40003046BDE8788B00F08BFF636800EB5300D0
:103F5000B0FBF3F080B20026E7E76368580800F58D
:103F6000740000F51050B0FBF3F080B20026DCE7DF
:103F700000F06EFB636800EB5300B0FBF3F080B21F
:103F80000026D2E76368580800F50040B0FBF3F064
:103F900080B20026C9E701260020C6E70126CCE74B
:103FA0000126CAE70126C8E70126C6E70126C4E7BD
:103FB000436A13F0010F06D00268536823F40033FC
:103FC000816A0B435360436A13F0020F06D0026804
:103FD000536823F48033C16A0B435360436A13F080
:103FE000040F06D00268536823F48023016B0B434F
:103FF0005360436A13F0080F06D00268536823F435
:104000000043416B0B435360436A13F0100F06D01B
:104010000268936823F48053816B0B439360436A77
:1040200013F0200F06D00268936823F40053C16B8D
:104030000B439360436A13F0400F0AD00268536841
:1040400023F48013016C0B435360036CB3F5801FA2
:104050000BD0436A13F0800F06D00268536823F434
:104060000023816C0B43536070470268536823F44C
:10407000C003416C0B435360EBE72DE9F04105466B
:104080000F4616469846069C2B68DB6937EA030301
:104090000CBF01230023B3421ED1B4F1FF3FF3D084
:1040A0002CB100F077FAA0EB08008442ECD22A6829
:1040B000136823F4D07313602A68936823F0010314
:1040C0009360202385F8713085F87230002385F8DD
:1040D00070300320BDE8F0810020BDE8F0812DE9BB
:1040E000F04182B01E4690F87130DBB2202B04D034
:1040F0000223184602B0BDE8F08104460D46904602
:1041000000294ED0002A4ED090F87030012B01D1FA
:104110000223EEE7012380F8703000234367212358
:1041200080F8713000F036FA0746A4F85080A4F801
:1041300052800AE023682A781A850135B4F8523093
:104140009BB2013B9BB2A4F85230B4F852309BB200
:10415000ABB100963B46002280212046FFF78DFF41
:1041600018BBA368B3F5805FE4D12369002BE1D1CC
:10417000226835F8023BC3F308031385DEE7009697
:104180003B46002240212046FFF777FF034608B157
:104190000323AEE7202284F87120002284F87020E7
:1041A000A7E70123A5E70123A3E70323A1E730B590
:1041B00083B004460023436700F0ECF9054623680A
:1041C0001B6813F0080F0ED123681B6813F0040F4F
:1041D00017D1202384F8713084F87230002084F8DD
:1041E000700003B030BD6FF07E43009303460022A1
:1041F0004FF400112046FFF740FF0028E4D00320D1
:10420000EFE76FF07E4300932B4600224FF48001CE
:104210002046FFF732FF0028DBD00320E1E778B328
:1042200010B5044690F871300BB3242384F8713034
:104230002268136823F0010313602046FFF7B0FCE7
:1042400001281FD0636ABBB92268536823F49043E6
:1042500053602268936823F02A03936022681368EE
:1042600043F0010313602046FFF7A1FF10BD80F863
:10427000703004F029FAD8E72046FFF799FEE3E70B
:104280000120704710BD7047704700000268D36876
:1042900043F00103D36003689968084A0A40062A7C
:1042A00009D09968054A0A40B2F5803F03D01A68E0
:1042B00042F001021A600020704700BF07000100B1
:1042C000704770477047704710B5044603681A6915
:1042D00012F0020F11D0DA6812F0020F0DD06FF059
:1042E00002021A610123037703689B6913F0030F2D
:1042F00079D0FFF7E6FF0023237723681A6912F0CD
:10430000040F12D0DA6812F0040F0ED06FF004021E
:104310001A610223237723689B6913F4407F68D0D6
:104320002046FFF7CEFF0023237723681A6912F097
:10433000080F12D0DA6812F0080F0ED06FF00802E2
:104340001A61042323772368DB6913F0030F57D026
:104350002046FFF7B6FF0023237723681A6912F07F
:10436000100F12D0DA6812F0100F0ED06FF010029A
:104370001A61082323772368DB6913F4407F46D052
:104380002046FFF79EFF0023237723681A6912F067
:10439000010F03D0DA6812F0010F3FD123681A69C8
:1043A00012F0800F03D0DA6812F0800F3DD123683D
:1043B0001A6912F4807F03D0DA6812F0800F3BD1C3
:1043C00023681A6912F0400F03D0DA6812F0400F28
:1043D00039D123681A6912F0200F03D0DA6812F07D
:1043E000200F37D110BDFFF76BFF2046FFF76AFFA4
:1043F00081E72046FFF764FF2046FFF763FF92E75F
:104400002046FFF75DFF2046FFF75CFFA3E720464D
:10441000FFF756FF2046FFF755FFB4E76FF00102A4
:104420001A612046FDF7C0FFB8E76FF080021A61FD
:10443000204600F095F8BAE76FF480721A612046C2
:1044400000F08FF8BCE76FF040021A612046FFF7DA
:104450003AFFBEE76FF020021A61204600F07FF8B5
:10446000C0E700000368304A904212D0B0F1804F9C
:104470000FD0A2F5943290420BD002F580629042A8
:1044800007D002F58062904203D002F59432904248
:1044900003D123F070034A681343234A90421ED08D
:1044A000B0F1804F1BD0A2F59432904217D002F5A4
:1044B0008062904213D002F5806290420FD002F5E4
:1044C000943290420BD002F54062904207D002F540
:1044D0008062904203D002F58062904203D123F4BF
:1044E0004073CA68134323F080034A69134303608F
:1044F0008B68C3620B6883620B4B98420FD003F545
:10450000006398420BD003F54063984207D003F54F
:104510008063984203D003F58063984201D10B6910
:104520000363012343617047002C0140A8B110B51B
:10453000044690F83D305BB1022384F83D30211DE4
:104540002068FFF78FFF012384F83D30002010BD65
:1045500080F83C30FFF798FEEEE701207047704787
:104560007047704710B5032001F0B4F9002004F043
:104570001FFA10B10124204610BD044603F0BEFF0F
:10458000F9E70000024A136801331360704700BF67
:10459000644C0220014B1868704700BF644C022035
:1045A00038B50446FFF7F6FF0546B4F1FF3F00D0EB
:1045B0000134FFF7EFFF401B8442FAD838BD0000FA
:1045C00030B583B00546204B9B6D13F0805F0BD058
:1045D00001F028F9B0F5007F17D0802D1FD82DD01D
:1045E000702D2DD000211BE0174CA36D43F080539C
:1045F000A365A36D03F080530193019B01F012F9B1
:10460000A36D23F08053A365E4E7802D03D9A02D8B
:1046100003D9022104E0002102E0012100E003218E
:104620000A4A136823F007030B431360136803F06F
:104630000703994206D0012003B030BD0221EFE705
:104640000121EDE70020F7E70010024000200240C2
:10465000314A9368D26802F0030213F00C030AD0C7
:104660000C2B06D0042B1FD0082B20D00020014695
:1046700010E0012AF6D1284A126812F0080F0CD176
:10468000254AD2F89420C2F30322244951F822107B
:1046900043B100200C2B0DD070471F4A1268C2F3A3
:1046A0000312F2E70846F5E71D480021F2E71D482E
:1046B0000021EFE7184BDA6802F00302DB68C3F36E
:1046C00002130133022A0AD0032A1AD0B1FBF3F3F2
:1046D000114AD068C0F3062000FB03F008E0104840
:1046E000B0FBF3F30C4AD068C0F3062000FB03F0E4
:1046F000094BDB68C3F3416301335B00B0FBF3F0AC
:10470000CAE70848B0FBF3F3034AD068C0F30620B9
:1047100000FB03F0ECE700BF001002402499000802
:104720000024F40000127A00002800F0C082F0B5E6
:1047300083B00446AB4B9D6805F00C05DE6806F0BF
:104740000306036813F0100F7DD0E5B10C2D18D0CF
:10475000A369002B00F0B480A24A136843F0010360
:104760001360FFF717FF07469E4B1B6813F0020FFD
:1047700040F09380FFF70EFFC01B0228F4D90323FB
:10478000A3E2012EE4D1974B1B6813F0020F03D074
:10479000A369002B00F08E82206A924B1B6813F0F5
:1047A000080F1DD08F4B1B6803F0F00383421ED20D
:1047B000FFF706FF002840F07F828A4B1A6842F01C
:1047C00008021A601A6822F0F002216A0A431A608D
:1047D0005A6822F47F42E16942EA01225A601EE0EF
:1047E000804BD3F894301B0903F0F003DEE77D4BD8
:1047F0001A6842F008021A601A6822F0F002216A70
:104800000A431A605A6822F47F42E16942EA0122AF
:104810005A60206AFFF7D4FE002840F04F82FFF76D
:1048200017FF704B9B68C3F303136F4AD35C03F00D
:104830001F03D8406D4B1860002004F0B9F8034600
:10484000002840F04282236813F0010F57D0082D52
:104850004CD00C2D48D06368B3F5803F6ED0B3F5D3
:10486000A02F71D05F4B1A6822F480321A601A6848
:1048700022F480221A606368002B72D0FFF78AFE50
:104880000746584B1B6813F4003F38D1FFF782FEF0
:10489000C01B6428F5D9032317E2524B1A6842F073
:1048A00008021A601A6822F0F002216A0A431A60AC
:1048B0005A6822F47F42E16942EA01225A60C2E763
:1048C000484A136823F001031360FFF763FE0746AD
:1048D000444B1B6813F0020FB5D0FFF75BFEC01B03
:1048E0000228F5D90323F0E1032EB4D13D4B1B6818
:1048F00013F4003F03D06368002B00F0E1812368CC
:1049000013F0020F4FD0042D3CD00C2D38D0E368AB
:10491000002B76D0334A136843F480731360FFF79B
:1049200039FE06462F4B1B6813F4806F60D1FFF7EA
:1049300031FE801B0228F5D90323C6E1294A1368FA
:1049400043F48033136096E703F18043A3F53C33CF
:104950001A6842F480221A601A6842F480321A609F
:1049600089E7FFF717FE07461E4B1B6813F4003F4D
:10497000C5D0FFF70FFEC01B6428F5D90323A4E1BF
:10498000022EC4D1174B1B6813F4806F03D0E36869
:10499000002B00F09781134A536823F0FE432169EE
:1049A00043EA01635360236813F0080F54D063692E
:1049B000002B3AD00B4AD2F8943043F00103C2F8EE
:1049C0009430FFF7E7FD0646064BD3F8943013F01A
:1049D000020F41D1FFF7DEFD801B0228F4D903232B
:1049E00073E100BF001002400C990008AC000020E9
:1049F000B74A536823F0FE43216943EA01635360D9
:104A0000D1E7B34A136823F480731360FFF7C2FD44
:104A10000646AF4B1B6813F4806FC4D0FFF7BAFD96
:104A2000801B0228F5D903234FE1A94AD2F894301C
:104A300023F00103C2F89430FFF7ACFD0646A44B07
:104A4000D3F8943013F0020F06D0FFF7A3FD801BBC
:104A50000228F4D9032338E1236813F0040F7AD035
:104A60009B4B9B6D13F0805F36D1994B9A6D42F052
:104A700080529A659B6D03F080530193019B012640
:104A8000944B1B6813F4807F28D0A368012B39D086
:104A9000052B3FD08E4BD3F8902022F00102C3F8B3
:104AA0009020D3F8902022F00402C3F89020A3684D
:104AB000002B3DD0FFF76EFD0746854BD3F89030B5
:104AC00013F0020F46D1FFF765FDC01B41F288339A
:104AD0009842F2D90323F8E00026D1E77D4A136813
:104AE00043F480731360FFF755FD0746794B1B684D
:104AF00013F4807FC9D1FFF74DFDC01B0228F5D903
:104B00000323E2E0724AD2F8903043F00103C2F886
:104B10009030CCE76E4BD3F8902042F00402C3F8FB
:104B20009020D3F8902042F00102C3F89020BEE715
:104B3000FFF730FD0746664BD3F8903013F0020FB5
:104B400008D0FFF727FDC01B41F288339842F2D905
:104B50000323BAE0E6B9236813F0200F35D0636A67
:104B6000E3B15B4AD2F8983043F00103C2F89830C1
:104B7000FFF710FD0646564BD3F8983013F0020F9E
:104B800023D1FFF707FD801B0228F4D903239CE003
:104B90004F4A936D23F080539365DCE74C4AD2F87B
:104BA000983023F00103C2F89830FFF7F3FC064673
:104BB000474BD3F8983013F0020F06D0FFF7EAFC0A
:104BC000801B0228F4D903237FE0A36A002B7BD04B
:104BD0000C2D00F08180022B23D03D4B1A6822F06F
:104BE00080721A601B6813F0205F04D1384AD368C2
:104BF00023F00303D360364AD36823F0887323F489
:104C00008033D360FFF7C6FC0446314B1B6813F0BA
:104C1000007F4AD0FFF7BEFC001B0228F5D9032312
:104C200053E02B4A136823F080731360FFF7B2FC44
:104C30000546274B1B6813F0007F06D0FFF7AAFC40
:104C4000401B0228F5D903233FE0236B5A1E636BF8
:104C50001B0243EA0213E26A1343E26B5208013A71
:104C600043EA4253226C5208013A43EA4263A26B80
:104C700043EAC263164AD360136843F0807313603B
:104C8000D36843F08073D360FFF784FC0446104B75
:104C90001B6813F0007F06D1FFF77CFC001B022885
:104CA000F5D9032311E000230FE000230DE00123D9
:104CB00018467047012308E0012306E0012304E0C1
:104CC000012302E0012300E00023184603B0F0BDF9
:104CD00000100240007000400123F6E7002800F0B9
:104CE0009A8070B504464E4B1B6803F007038B4255
:104CF0000CD24B4A136823F007030B43136013686D
:104D000003F00703994201D0012070BD0D462368CE
:104D100013F0010F39D06368032B09D0022B26D082
:104D200063BB404A126812F0020F06D1012070BD29
:104D30003C4A126812F0007F6FD03A498A6822F02C
:104D4000030213438B60FFF725FC0646354B9B6837
:104D500003F00C036268B3EB820F16D0FFF71AFC66
:104D6000801B41F288339842F0D9032070BD2D4A50
:104D7000126812F4003FE0D1012070BD294A126888
:104D800012F4806FD9D1012070BD236813F0020F97
:104D900006D0244A936823F0F003A1680B43936084
:104DA0001F4B1B6803F007039D420CD21C4A13687B
:104DB00023F007032B431360136803F007039D429E
:104DC00001D0012070BD236813F0040F06D0154AEE
:104DD000936823F4E063E1680B439360236813F066
:104DE000080F07D00F4A936823F46053216943EA00
:104DF000C1039360FFF72CFC0A4B9B68C3F30313BA
:104E0000094AD35C03F01F03D840084B1860002008
:104E100003F0CEFD70BD01207047012070BD00BFC2
:104E200000200240001002400C990008AC00002055
:104E3000014B1868704700BFAC00002008B5FFF7B1
:104E4000F7FF054B9B68C3F30223044AD35C03F0CE
:104E50001F03D84008BD00BF001002401C99000885
:104E600008B5FFF7E5FF054B9B68C3F3C223044A6F
:104E7000D35C03F01F03D84008BD00BF0010024000
:104E80001C9900080F2303600B4B9A6802F0030281
:104E900042609A6802F0F00282609A6802F4E0626E
:104EA000C2609B68DB0803F4E0630361034B1B688B
:104EB00003F007030B60704700100240002002401F
:104EC000F8B55D4BDB6813F0030F19D05A4BDB6864
:104ED00003F003030268934204D00124002C48D05D
:104EE0002046F8BD002A42D0534BDB68C3F30213BF
:104EF00001334268934201D00124EFE70024EDE73B
:104F00000368022B18D0032B1DD0012B0DD00124D8
:104F1000002CE3D1484EF26822F073024568013D4F
:104F200043EA05131343F360D8E7434A126812F0CB
:104F3000020F14D00024EBE73F4A126812F4806F8E
:104F40000FD00024E4E73C4A126812F4003F0AD173
:104F5000394A126812F4802F07D00024D8E70124C0
:104F6000D6E70124D4E70024D2E70124D0E70124C6
:104F7000B4E70F460546304A136823F08063136098
:104F8000FFF708FB06462C4B1B6813F0006F05D09B
:104F9000FFF700FB801B0228F5D90324002C9FD1CA
:104FA00047BB25490B6923F0784323F4FE43A868E7
:104FB000EA68D20642EA002213430B611E4A1368D4
:104FC00043F080631360FFF7E5FA06461A4B1B684F
:104FD00013F0006F05D1FFF7DDFA801B0228F5D929
:104FE0000324002C7FF47CAF134A1369A9690B4397
:104FF000136175E7012F0FD00F48026922F0C062DC
:1050000022F4FE42A9686B695B08013B5B0643EA38
:10501000012313430361D1E70748026922F4C00268
:1050200022F4FE42A9682B695B08013B5B0543EA59
:10503000012313430361C1E700100240F8B5544B4C
:10504000DB6813F0030F19D0514BDB6803F0030347
:105050000268934204D00124002C48D02046F8BDB9
:10506000002A42D04A4BDB68C3F302130133426883
:10507000934201D00124EFE70024EDE70368022BFF
:1050800018D0032B1DD0012B0DD00124002CE3D10F
:105090003F4EF26822F073024568013D43EA051372
:1050A0001343F360D8E73A4A126812F0020F14D0A3
:1050B0000024EBE7364A126812F4806F0FD0002408
:1050C000E4E7334A126812F4003F0AD1304A12680A
:1050D00012F4802F07D00024D8E70124D6E701245A
:1050E000D4E70024D2E70124D0E70124B4E70F4637
:1050F0000546274A136823F080531360FFF74AFAE6
:105100000646234B1B6813F0005F05D0FFF742FAF9
:10511000801B0228F5D90324002C9FD147BB1C49D2
:105120004B6923F0784323F4FE43A868EA68D2066B
:1051300042EA002213434B61154A136843F080533F
:105140001360FFF727FA0646114B1B6813F0005F48
:1051500005D1FFF71FFA801B0228F5D90324002C84
:105160007FF47CAF0A4A536969690B43536175E761
:105170000748426922F0C06222F4FE42A9682B6906
:105180005B08013B5B0643EA012313434361D3E71A
:10519000001002402DE9F04182B00446036813F488
:1051A000006F2FD0836EB3F5800F23D014D9B3F5E1
:1051B000000F18D0B3F5400F22D10026002E40F08A
:1051C0009980654AD2F8883023F44003A16E0B43DE
:1051D000C2F88830374617E093B900210430FFF752
:1051E0006FFE0646EAE75C4AD36843F48033D36037
:1051F0000026E3E700212030FFF720FF0646DDE729
:105200000126DBE700273E46236813F4805F15D0B4
:10521000E36EB3F1807F7CD06ED9B3F1007F72D0A2
:10522000B3F1407F7CD1002E7CD14B4AD2F888303C
:1052300023F04073E16E0B43C2F88830236813F407
:10524000003F00F09280444B9B6D13F0805F6BD168
:105250000123002B6AD0404B9A6D42F080529A6530
:105260009B6D03F080530193019B4FF001083B4A73
:10527000136843F480731360FFF78CF90546374BCE
:105280001B6813F4807F05D1FFF784F9401B0228C7
:10529000F5D90326002E63D12F4BD3F8903013F4A9
:1052A000407316D0D4F88820934212D02A4AD2F8FC
:1052B000903023F44073D2F8901041F48031C2F85A
:1052C0009010D2F8901021F48031C2F89010C2F8FA
:1052D000903013F0010F2CD1002E40F052811E4A65
:1052E000D2F8903023F44073D4F888100B43C2F8FE
:1052F000903036E0374687E793B90021201DFFF74D
:10530000DFFD06468FE7144AD36843F48033D36049
:1053100089E7002104F12000FFF790FE064682E7AE
:10532000012680E7374689E7002392E74FF000081F
:105330009DE7FFF72FF90546074BD3F8903013F0A0
:10534000020FC9D1FFF726F9401B41F2883398427A
:10535000F2D90326C0E700BF0010024000700040F1
:105360003746B8F1000F40F00E81236813F0010FAB
:1053700008D0A44AD2F8883023F00303A16B0B4372
:10538000C2F88830236813F0020F08D09D4AD2F883
:10539000883023F00C03E16B0B43C2F8883023689C
:1053A00013F0040F08D0974AD2F8883023F0300366
:1053B000216C0B43C2F88830236813F0080F08D023
:1053C000904AD2F8883023F0C003616C0B43C2F8D6
:1053D0008830236813F0100F08D08A4AD2F888303A
:1053E00023F44073A16C0B43C2F88830236813F098
:1053F000200F08D0834AD2F8883023F44063E16C50
:105400000B43C2F88830236813F4007F08D07D4A2C
:10541000D2F8883023F44023216E0B43C2F8883041
:10542000236813F4806F08D0764AD2F8883023F4CA
:105430004013616E0B43C2F88830236813F0400FAD
:1054400008D0704AD2F8883023F44053216D0B43C2
:10545000C2F88830236813F0800F08D0694AD2F868
:10546000883023F44043616D0B43C2F888302368D1
:1054700013F4807F08D0634AD2F8883023F4403395
:10548000A16D0B43C2F88830236813F4801F08D045
:105490005C4AD2F89C3023F00303E16D0B43C2F861
:1054A0009C30236813F4005F0FD0564AD2F888303E
:1054B00023F04063216F0B43C2F88830236FB3F1B0
:1054C000006F66D0B3F1806F68D0236813F4002FAB
:1054D0000FD04C4AD2F8883023F04063616F0B4301
:1054E000C2F88830636FB3F1006F5FD0B3F1806FA3
:1054F00061D0236813F4802F0FD0424AD2F888304D
:1055000023F04063A16F0B43C2F88830A36FB3F15F
:10551000006F58D0B3F1806F5AD0236813F4804FD6
:105520000FD0384AD2F8883023F04053E16F0B4354
:10553000C2F88830E36FB3F1805F51D0B3F1005F00
:1055400056D0236813F4004F09D02E4AD2F8883081
:1055500023F08043D4F880100B43C2F888302368CE
:1055600013F4803F09D0274AD2F8883023F0004353
:10557000D4F884100B43C2F88830384602B0BDE836
:10558000F0813746EDE61F4A936D23F08053936513
:10559000EBE6D36843F48013D36096E70121201D26
:1055A000FFF78EFC002890D007468EE7D36843F4BF
:1055B0008013D3609DE70121201DFFF781FC0028A7
:1055C00097D0074695E7D36843F48013D360A4E7E8
:1055D0000121201DFFF774FC00289ED007469CE7A0
:1055E0000221201DFFF76CFC0028AAD00746A8E77F
:1055F000022104F12000FFF721FD0028A1D0074679
:105600009FE700BF00100240F0B583B000234AE0DE
:105610004FEAD30E0EF1080E50F82E4003F00706A5
:10562000B6000F27B74024EA07040F6907FA06F609
:10563000344340F82E4043E0072600E00026BE40F9
:10564000354302345A4E46F824505A4C2568D44308
:1056500005EA04064F6817F4803F01D042EA0506C8
:10566000544D2E606D6804EA05064F6817F4003F3C
:1056700001D042EA05064F4D6E60AD6804EA0506AA
:105680004F6817F4801F01D042EA0506494DAE600D
:10569000ED682C404E6816F4001F01D042EA050464
:1056A000444AD46001330A6832FA03F47ED00125FB
:1056B0009D402A40F6D04C68022CA9D0122CA7D0CD
:1056C00006684FEA430E032404FA0EF4E44326402E
:1056D0004F6807F0030707FA0EF73E4306604E686F
:1056E000771E012F03D9112E01D0122E0FD18668FB
:1056F0002640CF6807FA0EF73E438660466826EAE2
:1057000005054E68C6F300169E4035434560C568E2
:105710002C408D6805FA0EF52C43C4604C6814F0DB
:10572000805FBFD0244C256E45F001052566246EB0
:1057300004F001040194019C9C08A61C1C4D55F822
:10574000265003F00306B7000F26BE4025EA0605E3
:10575000B0F1904F3FF472AF184EB0421AD006F538
:105760008066B04218D006F58066B04216D006F5C5
:105770008066B04214D006F58066B04212D006F5BD
:105780008066B04210D006F58066B0423FF454AF58
:10579000082654E7012652E7022650E703264EE783
:1057A00004264CE705264AE7062648E703B0F0BD85
:1057B00000000140000401400010024000040048C5
:1057C0000AB98162704781617047436959404161FC
:1057D000704708B590F82530DBB2022B03D00423C4
:1057E000C363012008BD0268136823F00E03136031
:1057F0000268136823F001031360016C436C03F02B
:105800001C03012202FA03F34B6080F825200023D9
:1058100080F82430836B13B19847002008BD002026
:1058200008BD0000024B186800F4C060704700BF5C
:1058300000700040B0F5007F0FD01F4B1B6803F4D1
:10584000C063B3F5806F34D01B4A136823F4C06380
:1058500043F48063136000207047174B1B6803F408
:10586000C063B3F5007F20D0134A136823F4C063EC
:1058700043F400731360114B1A68322303FB02F3E5
:105880000F4AA2FB03239B0C013300E0013B0A4AB1
:10589000526912F4806F01D0002BF7D1064B5B697F
:1058A00013F4806F03D0032070470020704700205E
:1058B00070470020704700BF00700040AC0000201F
:1058C00083DE1B43024A536843F4007353607047FE
:1058D00000700040074AD36823F4E0631B041B0CEC
:1058E000000200F4E060184340F0BF6040F4003074
:1058F000D060704700ED00E030B4164BDB68C3F3B6
:105900000223C3F10704042C28BF04241D1D062D07
:1059100017D9033B012505FA04F4013C21409940C5
:1059200005FA03F3013B1340194300280BDB09017F
:10593000C9B200F1604000F5614080F8001330BC4E
:1059400070470023E6E700F00F000901C9B2024BDF
:105950001954F4E700ED00E014ED00E0420900F016
:105960001F00012303FA00F0014B43F822007047A7
:1059700000E100E0064B1A681368B3FA83F35B0991
:10598000036013B9D368186870470020704700BFE0
:105990002004002008B54160006191420CD8D21A61
:1059A00083699A4201D3012008BD011D094B186883
:1059B00000F009FF002008BD9A4201D2994206D2A8
:1059C000011D054B186800F0FEFE002008BD0120F7
:1059D00008BD00BF240400202004002038B501F0D9
:1059E000B1FF0F4B1B6813B101F0CEFF38BD0D4D59
:1059F000284600F0CEFE0C4C204600F0CAFE0B4BB1
:105A00001D600B4B1C6000220C210A2000F0DCFA08
:105A1000034B18600028E7D0064900F07DFEE3E75D
:105A200054040020280400203C040020200400200E
:105A300024040020F49800082DE9F041079C41B9A6
:105A40004FF0100383F31188BFF36F8FBFF34F8FB5
:105A5000FEE70F4674B11D4616468046FFF7BEFFAF
:105A6000C4F80080A761E6612562069B6362201D81
:105A700000F09AFEBDE8F08100B583B0FFF7AEFFFD
:105A80000E4B1B68A3B10E4B01930323009300231D
:105A90004FF480720B490C4801F036F850B94FF0C2
:105AA000100383F31188BFF36F8FBFF34F8FFEE7AF
:105AB0000020F3E703B05DF804FB00BF54040020AE
:105AC00058040020FC980008C55D00082DE9F0414D
:105AD00082B005460E4617469846282001F010FE73
