:020000040800F2
:1000000000000520A1510008D94E0008DB4E000871
:10001000DD4E0008DF4E0008E14E00080000000041
:10002000000000000000000000000000C1410008C6
:10003000E34E000800000000F141000855420008AE
:10004000F1510008F1510008F1510008F151000888
:10005000F1510008F1510008F1510008F151000878
:10006000F1510008F1510008F1510008F151000868
:10007000F1510008F1510008F1510008F151000858
:10008000F1510008F1510008F1510008F151000848
:10009000F1510008F1510008F1510008F151000838
:1000A000F1510008E54E0008F1510008F151000837
:1000B000F1510008F1510008F1510008F151000818
:1000C000F1510008F1510008F1510008254F0008D6
:1000D000354F0008F1510008F54E0008054F0008A3
:1000E000F1510008F1510008F1510008F1510008E8
:1000F000F1510008F1510008F1510008F1510008D8
:10010000F1510008F1510008F1510008454F000875
:10011000F1510008154F0008F1510008F151000895
:10012000F1510008F1510008F1510008F1510008A7
:10013000F1510008F1510008F1510008F151000897
:10014000F1510008F1510008F1510008F151000887
:10015000F1510008F1510008F1510008F151000877
:10016000F1510008F1510008F1510008F151000867
:10017000F1510008F1510008F151000800000000A1
:10018000F1510008F1510008F1510008F151000847
:10019000F1510008F1510008F1510008F151000837
:1001A000F1510008F15100080000000000000000BB
:1001B00010B5054C237833B9044B13B10448AFF3A1
:1001C00000800123237010BDE0000020000000002B
:1001D0007862000808B5034B1BB103490348AFF32D
:1001E000008008BD00000000E400002078620008E4
:1001F00001F0FF01102A2BDB10F0070F08D010F8D8
:10020000013B013A8B422DD010F0070F42B3F6D1DB
:10021000F0B441EA012141EA014122F007047FF0F4
:1002200000070023F0E80256083C85EA010586EA4B
:10023000010685FA47F5A3FA87F586FA47F6A5FA87
:1002400087F68EB9EED1F0BC01F0FF0102F0070293
:1002500032B110F8013B013A83EA010313B1F8D13E
:100260000020704701387047002D06BF354603381F
:10027000073815F0010F07D1013015F4807F02BF58
:10028000013015F4C03F0130F0BC0138704700BFA9
:1002900053B94AB9002908BF00281CBF4FF0FF31ED
:1002A0004FF0FF3000F072B9ADF1080C6DE904CEEB
:1002B00000F006F8DDF804E0DDE9022304B0704741
:1002C0002DE9F047089E04468846002B4BD18A4210
:1002D000154667D9B2FA82F24AB1C2F1200701FA93
:1002E00002F320FA07F7954047EA030894404FEAE3
:1002F000154E230CB8FBFEF71FFA85FC0EFB178882
:1003000043EA084307FB0CF1994209D9EB1807F1BE
:10031000FF3080F01B81994240F21881023F2B444C
:100320005B1AA4B2B3FBFEF00EFB103344EA0344A5
:1003300000FB0CFCA44509D92C1900F1FF3380F017
:100340000781A44540F2048102382C4440EA07406A
:10035000A4EB0C0400271EB1D4400023C6E90043DF
:100360003946BDE8F0878B4209D9002E00F0EB80BA
:100370000027C6E9000138463946BDE8F087B3FAE0
:1003800083F7002F47D18B4202D3824200F2FA80DA
:10039000841A61EB030301209846002EE0D0C6E9E1
:1003A0000048DDE702B9FFDEB2FA82F2002A40F02F
:1003B0008F80491B4FEA154E1FFA85F80127B1FBC4
:1003C000FEFC230C0EFB1C1143EA014308FB0CF15D
:1003D000994207D9EB180CF1FF3002D2994200F292
:1003E000CD808446591AA3B2B1FBFEF00EFB101467
:1003F00043EA044408FB00F8A04507D92C1900F192
:10040000FF3302D2A04500F2B6801846A4EB0804E0
:1004100040EA0C409FE7C7F1200CBB4022FA0CFEDB
:100420004EEA030E01FA07F420FA0CF521FA0CF358
:100430004FEA1E482543B3FBF8F92C0C08FB19338F
:100440001FFA8EFA44EA034309FB0AF49C4202FABB
:1004500007F200FA07F10BD91EEB030309F1FF3095
:1004600080F087809C4240F28480A9F102097344A5
:100470001B1BADB2B3FBF8F008FB103345EA034495
:1004800000FB0AFAA24508D91EEB040400F1FF3371
:100490006BD2A24569D90238744440EA0940A0FBF6
:1004A0000289A4EB0A044C45C2464B4654D351D0B2
:1004B000002E69D0B1EB0A0564EB030404FA0CFCCE
:1004C000FD40FC404CEA0505C6E90054002747E71B
:1004D000C2F1200320FA03F7954001FA02F021FA55
:1004E00003F34FEA154E3843010CB3FBFEF71FFA36
:1004F00085F80EFB173341EA034107FB08F38B42F3
:1005000004FA02F407D9691807F1FF3C2FD28B4295
:100510002DD9023F2944CB1A81B2B3FBFEF00EFB6A
:10052000103341EA034100FB08F38B4207D96918F5
:1005300000F1FF3C17D28B4215D902382944C91A61
:1005400040EA07473BE73746304609E70746E7E614
:100550001846FBE64145ABD2B8EB020A69EB0E0246
:1005600001381346A4E76046E9E7184695E7674671
:10057000D1E781467CE702382C4447E7ACF1020C16
:100580002B442FE7384608E73746E9E6704700BFB7
:1005900000B583B0124B1B78EBB114238DF80030FB
:1005A000104B1B888DF801301B0A8DF80230032197
:1005B000684601F0E7F950B9094A1378013313701E
:1005C000084A13880133138003B05DF804FB044B21
:1005D00001221A70F4E7044805F0AEF9F4E700BF11
:1005E00001010020FE0000209062000800B583B0E9
:1005F000124B1B78EBB114238DF80030104B1B8885
:100600008DF801301B0A8DF802300321684601F095
:10061000D1F950B9094A137801331370084A138885
:100620000133138003B05DF804FB044B01221A7000
:10063000F4E7044805F080F9F4E700BF0101002069
:10064000FC0000209062000808B5054B834200D0F2
:1006500008BD01F0CDF9034B01221A70F8E700BF85
:10066000F00700200001002030B583B01A4C20466E
:1006700005F062F9194D284605F05EF9184805F0B5
:100680005BF9284605F058F9204605F055F9154B59
:100690006C4693E8030084E80300134805F0D8F89B
:1006A00003E0124805F0D4F8013421780029F8D18C
:1006B0000F4805F041F90F4C4FF40041204603F07C
:1006C0002CFB4FF4FA6002F027FA4FF40041204669
:1006D00003F023FB03B030BDD86F0008F4620008BC
:1006E00020630008400B0020506300085C63000892
:1006F00064630008000C004810B502F0EFF904F044
:1007000029FC01F085F904F08FF82A4CC4E90001B6
:10071000FFF7AAFF0022D4E9000101F0B1F8264B4F
:10072000187020B9002003F0CBFF002421E02348FB
:1007300005F002F9F6E7224805F0FEF801F052F95B
:10074000B0FA80F040091F4B187019E01E4B1B884F
:100750000BB31D4B1B88022B01D83C2C1ED01A4B0F
:100760001B88032B1FD00134E4B24FF47A7002F0DF
:10077000D3F9002003F0A4FF124B1B78002BDAD131
:10078000124B1B88042BE1D8142CECD10020FFF76E
:100790002DFF0024E7E701F0DFF8DAE70020FFF79C
:1007A000F7FE0024DBE70023084A1380064A138083
:1007B000D9E700BF400B002001010020B86200080B
:1007C000DC62000800010020FE000020FC00002088
:1007D00008B50268034B9A4200D008BD02F08EF9BA
:1007E000FBE700BF002C01407047000008B50B710B
:1007F0004A710122063100F0BFFC00B908BD034B6D
:10080000034AE321034804F0F5FC00BF146D00081F
:1008100018640008546D000870B582B0A2B1054696
:100820000C468BB901220DF1070100F0A5FC88B937
:100830009DF8073084F80431D72B11D0023BDBB28E
:10084000012B75D902B070BD454B464AE821464898
:1008500004F0D0FC454B434AEA21434804F0CAFC6B
:10086000261D01223146284600F086FC0222A11DE9
:10087000284600F081FCE3885BBAE380012204F1A2
:100880000801284600F078FC012204F109012846FD
:1008900000F072FC012204F10B01284600F06CFC10
:1008A000012204F10C01284600F066FC012204F14B
:1008B0000D01284600F060FC012204F10E012846DB
:1008C00000F05AFC012204F10F01284600F054FC0C
:1008D000012204F11101284600F04EFC012204F12E
:1008E0001201284600F048FC637CC3F30113032B7C
:1008F00007D8DFE803F01B0D0204082209E00222FA
:1009000007E01B4B1B4A4FF497711B4804F072FC25
:10091000002204F11301284600F02EFC002891D09B
:10092000164B104AFF21104804F064FC0122F0E746
:100930000121284600F0DFFB0122211D284600F09E
:100940001BFC0122611D284600F016FC0222A11D9D
:10095000284600F011FCE3885BBAE38072E700BF31
:10096000506C00082C640008546D00085C6C000892
:10097000886C000868630008906C0008BC6C000874
:1009800010B582B0044602A9002301F8013D0122FE
:1009900000F0F2FB9DF80700820901D102B010BD02
:1009A00000F03F00D300984002A941F8080D20460E
:1009B00000F0E2FB0098F1E730B585B00546019103
:1009C0003F2925D9B1F5804F2ED20124B1F5800FF2
:1009D00000D30324A301DBB28DF80F3004AA224414
:1009E00012F80C2C134404A901F8013D01222846F9
:1009F00000F017FBD0B9013CE4B2012201AB191998
:100A0000284600F00EFBB8B9002CF4D105B030BD7B
:100A1000012201A900F005FB0028F7D0094B0A4A82
:100A20003F210A4804F0E6FB0224CFE7084B064AC0
:100A30004C21064804F0DEFB064B034A4F210348D5
:100A400004F0D8FBC06A000884630008546D0008F5
:100A5000F46A00081C6B000830B583B004460D46EC
:100A600001226946284600F087FB58B92846FFF75F
:100A700087FF019002AB13E9030084E803002046DE
:100A800003B030BD024B034A5521034804F0B2FBCA
:100A90003C6C0008A0630008546D000870B582B07B
:100AA00005460E466C4601462046FFF7D5FF331D2E
:100AB00094E8030083E803002846FFF761FFF06035
:100AC000FF2807D882B206F11001284600F054FB37
:100AD00002B070BD024B034AD121034804F08AFBE7
:100AE000806D000800640008546D000808B5FFF729
:100AF000D5FF08BD08B5FFF7D1FF08BDF0B583B03D
:100B0000EAB104460E461F461546322100F0CCFAE3
:100B1000D8B93146204600F0C7FAE0B9D72E20D028
:100B2000022E6ED0032E00F0D9803A462946204688
:100B300000F077FA002840F0248103B0F0BD944B18
:100B4000944A7621944804F055FB944B914A7721BE
:100B5000914804F04FFB924B8E4A78218E4804F066
:100B600049FB2978204600F09FFA90B96978204621
:100B700000F09AFA98B9A978204600F095FAA0B941
:100B8000AB78C3F30113032B2AD8DFE803F032302C
:100B90001427844B7F4A7C217F4804F02BFB824B37
:100BA0007C4A7D217C4804F025FB804B794A7E21DC
:100BB000794804F01FFB0826E978204600F074FA13
:100BC000C8B93246291D204600F02BFA0028B4D0BF
:100BD000774B704A8121704804F00CFB0226EBE74A
:100BE000744B754A4FF49771744804F003FB002668
:100BF000E2E70126E0E7724B664A8021664804F08E
:100C0000F9FA95F828104900CBB295F82A10890016
:100C1000C9B2194401F0FE01204600F045FA00284F
:100C200038D195F82910204600F03EFA002837D137
:100C300095F82B10204600F037FA002836D1102204
:100C40002946204600F0EDF9002835D11022A918D8
:100C5000204600F0E6F9002834D12B6A1BBA02A91D
:100C600041F8083D0422204600F0DBF900282FD18E
:100C70006B6A1BBA02A941F8043D0422204600F029
:100C8000D0F900283FF459AF4E4B424A90214248D8
:100C900004F0B0FA4C4B3F4A87213F4804F0AAFACF
:100CA0004A4B3C4A88213C4804F0A4FA484B394A54
:100CB0008921394804F09EFA464B364A8A21364843
:100CC00004F098FA444B334A8B21334804F092FAEB
:100CD000424B304A8D21304804F08CFA95F82010B0
:100CE0004900CBB295F822108900C9B2194401F02D
:100CF000FE01204600F0D8F928BB95F821102046C7
:100D000000F0D2F928BB95F82310204600F0CCF96A
:100D100028BB08222946204600F083F928BB082278
:100D2000A918204600F07DF928BB1022A9182046FA
:100D300000F077F900283FF400AF294B154A9B21BA
:100D4000154804F057FA204B124A9621124804F035
:100D500051FA244B0F4A97210F4804F04BFA224BCB
:100D60000C4A98210C4804F045FA204B094A992175
:100D7000094804F03FFA1E4B064A9A21064804F03F
:100D800039FA1C4B034A9F21034804F033FA00BF91
:100D9000A4640008C0630008546D0008B46400082F
:100DA000E86400081465000864650008BC65000874
:100DB00078660008886C000868630008906C00087A
:100DC00018660008A0680008D466000808670008D4
:100DD00068670008C06700081468000868680008B1
:100DE000386A0008D8680008386900089069000867
:100DF000E46900088C6A0008F8B504460F461646F8
:100E00001D46202100F050F998B93946204600F0DF
:100E10004BF9A0B931462046FFF7CEFD29462046C2
:100E2000FFF7CAFDAAB20699204600F0FAF860B9A9
:100E3000F8BD094B094AA621094804F0DBF9094B22
:100E4000064AA721064804F0D5F9074B034AAA2110
:100E5000034804F0CFF900BF586B0008DC630008BA
:100E6000546D000878640008946B000830B583B0B6
:100E700005460C4601220DF1070100F07DF9F0B99D
:100E80009DF80710C1F38012CB0901F03F018DF8E6
:100E90000710217004391F292DD8DFE801F0172C25
:100EA0002C2C2C2C2C2C2C2C2C2C2C2C2C2C2C2C82
:100EB0002C2C2C2C2C2C2C2C2C2C1D2C2722114B8C
:100EC000114A4FF48871114804F094F921462846DC
:100ED000FFF70CFE03B030BD21462846FFF70AFE9F
:100EE000F8E721462846FFF781FCF3E7214628462C
:100EF000FFF792FCEEE7064B034A4FF4927103486A
:100F000004F078F9146C000844640008546D00087B
:100F1000886C000838B504460D46D20142F0340111
:100F200001F0B40100F0C0F828B92946204600F0CD
:100F3000BBF838B938BD074B074A40F26111074882
:100F400004F058F9064B044A4FF4B171034804F019
:100F500051F900BFC06B000858640008546D0008C8
:100F6000E86B0008094A11880B0243EA11239BB27F
:100F70005840C0F30313584080EA003000B283B2F7
:100F80005B0103F4FF5358401080704702010020BA
:100F900070B506460D46084B4FF6FF721A800024C6
:100FA00004E0305DFFF7DEFF0134E4B2AC42F8D379
:100FB000014B188870BD00BF02010020038819444E
:100FC00089B201808388994204D9B1FBF3F203FB13
:100FD000121101807047816000210180013B8380F4
:100FE00042800173704708B513460022FFF7F3FFF4
:100FF00008BD10B48C6884600C88144404800C888C
:10100000224413FA82F39BB243808A88934201D927
:101010009B1A43808B888380012303735DF8044B04
:101020007047F8B5037B002B36D115460E460446B3
:101030004388008883420CD21A4482422EDAA06888
:101040002A46184404F02AF962882A446280002063
:1010500023E0D118A288914213DDD21A97B2EA1B7D
:1010600095B2A8421DD9A0683A463146184404F00A
:1010700015F92A46F119A06804F010F965800020DE
:101080000BE0A0682A463146184404F007F962884C
:101090002A446280002000E01620F8BD41F28A3028
:1010A000FBE741F28A30F8E700B583B002AB03F802
:1010B000011D01221946FFF7B4FF03B05DF804FBE0
:1010C000028843889A4205D98088801A13FA80F0F2
:1010D00080B27047981A80B2704751B110B50C4673
:1010E000FFF7EEFFA04201D3002010BD41F28A308D
:1010F000FBE70020704770B505460E46FFF7EDFF91
:10110000044608B1204670BD31462846FFF756FF19
:10111000F8E72DE9F0410646884614461D46194673
:10112000FFF7DBFF0746E8B932882244B38892FB19
:10113000F3F103FB112189B2681890FBF3F203FB72
:10114000120292B2914210D95B1A9CB2B368224645
:101150001944404604F0A2F82A1BB16808EB0400C9
:1011600004F09CF83846BDE8F081B3682A4619447B
:10117000404604F093F8F5E770B50646144613466A
:101180000022FFF7C6FF054608B1284670BD21467C
:101190003046FFF713FFF8E7F0B5CBB00446002662
:1011A000374645E09DF81E10514B1A78914204D104
:1011B0009DF81C709DF81D603AE04E4804F048FB15
:1011C00036E04D4B1B68DD68002D31D00AAB099A23
:1011D00008999DF81C00A8472AE0474B1B689D68AA
:1011E00035B30AAB099A08999DF81C00A8471FE07F
:1011F0009DF81C51D72D07D03F4B1B685B68BBB1D6
:1012000007A92846984713E0EC460DF11C0EBEE8EE
:101210000F00ACE80F009EE803004CF8040B2CF81C
:10122000021B090C8CF80010E6E7344804F084FB3C
:101230002046FFF745FF00284CD006A92046FFF7BF
:1012400015FE9DF81830043B1F2BEED801A252F872
:1012500023F000BFC31100082B1200082B12000856
:101260002B1200082B1200082B1200082B1200086A
:101270002B1200082B1200082B1200082B1200085A
:101280002B1200082B1200082B1200082B1200084A
:101290002B1200082B1200082B1200082B1200083A
:1012A0002B1200082B1200082B1200082B1200082A
:1012B0002B1200082B1200082B1200082B1200081A
:1012C0002B120008DB1100082B120008F111000896
:1012D000A511000857B1084B1B681B681BB1044AD5
:1012E000117830469847024B00225A704BB0F0BD3F
:1012F00008010020F86D000804010020286E000895
:1013000010B50446064B00225A700121054800F032
:1013100027FA054B1C60206908B100F037FA10BDB0
:1013200008010020991100080401002038B50025AB
:101330002C4608E0002000F01FF9C5B2322001F071
:10134000EBFB0134E4B20448FFF7BAFE08B1312CDC
:10135000F0D9284638BD00BF980C0020014B002270
:101360005A7070470801002070B50F4B5B78ABB91D
:101370000D4D01246C702E1D4FF4807205F1140187
:101380003046FFF730FE094B197829700A191A7098
:1013900022463046FFF7BEFD204670BD044804F0EB
:1013A00057FA0020F9E700BF080100201C020020C6
:1013B000DC6D00082DE9F04782B00746884691466B
:1013C0009A46FFF7D1FF0446C8B10A9B1B78D3B1F8
:1013D000012B20D0022B26D0174D2E1DCDF800A0BA
:1013E0004B46424639463046FFF706FD3046FFF78A
:1013F00067FE0122C1B205F1140000F08BF820460F
:1014000002B0BDE8F0870C230A9A0432D7210B48BA
:10141000FFF774FBE0E724230A9A0432032107480C
:10142000FFF76CFBD8E72C230A9A04320221034809
:10143000FFF764FBD0E700BF080100200C0100208B
:1014400010B50C460B7900220F49FFF762FE0F4AD8
:1014500013780133DBB21370A278934201D00B4BA7
:101460001A7021790848FFF793FD6279C0F30F23C2
:101470009A4201D0002010BDA379C0B2834201D0AE
:101480000020F8E70120F6E73C03002038030020A5
:1014900010B584B01348FFF713FEC3B20A2B0FD860
:1014A0001C461A4601A90F48FFF766FE4FF47A73EF
:1014B000224601A90C48006801F0D0F804B010BD24
:1014C0000A2201A90748FFF757FE4FF47A730A2250
:1014D00001A90548006801F0C1F80020FFF7D8FF16
:1014E000ECE700BF28030020B00C002010B5064C2C
:1014F00001222146054B186800F076FC01222146A6
:101500000348FFF78EFD10BD940C0020B00C0020A6
:10151000980C0020F0B583B007460E461546FFF73D
:1015200037FD134A13780133DBB21370C0228DF8F4
:10153000002000248DF801408DF802308DF8035012
:101540008DF80460030A8DF805308DF80600094D0A
:10155000072269462846FFF764FD32463946284689
:10156000FFF75FFD2046FFF793FF03B0F0BD00BF1C
:10157000390300202803002030B587B0554B1C7874
:1015800084BB5548FFF79CFD072802D8204607B0CA
:1015900030BD524D0723002229464F48FFF7B9FDC1
:1015A0002B78C02B01D16B786BB14B4D01212846B4
:1015B000FFF7A1FD0023474A1370494A13702846DC
:1015C000FFF77EFDE2E7434B01221A7007214248F4
:1015D000FFF791FD414B1979414B1970414804F0D7
:1015E00037F9D3E73C48FFF76BFD3D4B1B7898423A
:1015F00004D23D4804F0A0F90024C7E70022364990
:1016000002A8FFF7F6FC354902A8FFF719FF0028EA
:101610005CD0324BDB78012B10D0032B2AD0042B6B
:101620002FD0022B34D0052B3ED02D4B197802A899
:10163000FFF761FD2D4804F07FF905E02C4A1268A0
:10164000002AEAD002A89047254B1D7802A8FFF790
:1016500037FD291A89B22048FFF74DFD0023204AA3
:1016600013701C4A13701C48FFF72AFD07288DD9F8
:1016700000248BE71F4A1268002AD0D002A89047A6
:10168000E2E71D4A1268002ACBD002A89047DBE7A8
:101690008DF80430012102A8FFF72DFD032201215E
:1016A00001A8FFF737FFCFE7012201A902A8FFF742
:1016B00063FD9DF80410114804F0CAF8104B1B6834
:1016C000002BC1D09DF804009847BDE70D4804F0F9
:1016D00033F9C3E73A030020980C0020A80C00203F
:1016E00035040020406E0008606E0008986E000807
:1016F000200200203804002024020020786E000818
:101700003C050020B86E000810B50F4C2060FF2289
:101710000E490F48FFF767FC0020FFF7B9FE0020D5
:10172000FFF72AFF4FF480720A490B48FFF75BFC72
:1017300001220A49206800F057FB052201210846D2
:10174000FFF7E8FE10BD00BFB00C0020280200200B
:10175000280300203C040020980C0020940C00205A
:10176000012904D0032905D0042906D07047044B71
:1017700018607047034B18607047034B1860F5E71B
:10178000200200203804002024020020014B1860B1
:10179000704700BF3C05002008B580F001020248F8
:1017A00004F056F808BD00BF2C70000800B583B0E7
:1017B000009313460A460146024804F049F803B074
:1017C0005DF804FBCC71000800B583B000931346AC
:1017D0000A460146024804F03BF803B05DF804FBFA
:1017E00014720008F0B58FB00C46831EDBB2012BDB
:1017F00003D9D7280AD00FB0F0BD0868030CC0F396
:101800000722C1B2174804F023F8F4E708AD0868CE
:101810004968A268E3680FC5A28AA37DAA80AB715C
:101820009DF82010BDF822209DF824309DF8250059
:101830009DF826409DF827509DF829609DF82A7054
:101840009DF82BC09DF82CE0CDF818E0CDF814C021
:1018500004970396029501940090034803F0F8FF63
:10186000C9E700BF68700008C070000808B50348E9
:1018700004F062F8FFF772FD08BD00BFA471000814
:10188000F0B597B0CDE914011746274804F054F895
:10189000264E012108A802F0F5FF354608AC0FCC12
:1018A0000FC50FCC0FC594E8070085E8070096F830
:1018B0002840002C33D001211D4803F0C9FF1D49E9
:1018C0001D4803F0C5FF1D4B16AA12E9030083E86B
:1018D0000300164E4FF4E13307936C4606F11005F2
:1018E0000FCD0FC495E8070084E8070096E80F00C5
:1018F00002F0AAFF3269124B1A60726A114B1A6029
:101900007068FFF701FF1048FFF7FAFC0F4B1F70DC
:101910000F4804F011F80124204617B0F0BD0D481F
:1019200004F00AF8F8E700BF046F0008B40C0020C8
:10193000686F00088C6F0008986F0008480000204E
:10194000F80A00206C0A002000000020400500205A
:10195000C06F0008386F000810B582B0074B0093C5
:1019600000231A4619464020FFF724FD0446044888
:1019700003F0E2FF204602B010BD00BF440000208B
:10198000DC6F000830B583B00C46084B009303466B
:101990000A4600214020FFF70DFD05462146044878
:1019A00003F056FF284603B030BD00BF44000020BE
:1019B000FC6F000830B583B00C46084B009303461B
:1019C0000A4600214020FFF7F5FC05462146044861
:1019D00003F03EFF284603B030BD00BF14000020D6
:1019E000D46E000808B5FFF7A1FCC0B208BD000026
:1019F00008B5FFF77BFD044B1B7803B908BD034B0B
:101A0000186802F08DFFF9E740050020FC0A00206D
:101A100008B502F0FDFE08BD002859D010B50446F7
:101A200090F84130002B43D0242384F841302268C1
:101A3000136823F0010313606368226823F0706366
:101A400013612268936823F400439360E368012BD9
:101A500033D0A368226843F404439360E368022B05
:101A600031D02268536843F0007343F4004353605D
:101A70002268D36823F40043D36023696269134367
:101A8000A169226843EA0123D360E369216A2268DD
:101A90000B4313602268136843F0010313600020B6
:101AA0006064202384F84130206384F8420010BD34
:101AB00080F8403002F09AFFB6E7A368226843F44A
:101AC00000439360CAE723684FF400625A60C8E796
:101AD0000120704790F84130DBB2202B24D190F8E0
:101AE0004030012B22D0012380F84030242380F89D
:101AF00041300268136823F0010313600268136821
:101B000023F480531360026813681943116002685C
:101B1000136843F001031360202380F84130002351
:101B200080F8403018467047022070470220704706
:101B300090F84130DBB2202B22D190F84030012BBD
:101B400020D0012380F84030242380F841300268FF
:101B5000136823F0010313600268136823F47063B1
:101B600043EA012111600268136843F00103136026
:101B7000202380F84130002380F840301846704719
:101B80000220704702207047002853D010B5044649
:101B90000023836290F85D30002B40D0022384F84C
:101BA0005D302268136823F040031360E368B3F5E7
:101BB000E06F39D90022B3F5706F04D0B3F5E06F50
:101BC00001D00021A162216B21B9B3F5E06F2ED9BC
:101BD000022323636368A1680B4321690B43616996
:101BE0000B43A16901F400710B43E1690B43216AC6
:101BF0000B43A06A216803430B60638B03F004036B
:101C0000616A0B43616B0B43E1680B43216813432B
:101C10004B6000202066012384F85D3010BD80F801
:101C20005C3003F06DF8B9E74FF48052C3E701234D
:101C30002363CFE7012070477047000030B585B0BF
:101C40000446026850689368C3F3801149B913F0E1
:101C5000010F06D010F0400F03D0E36C20469847E8
:101C600008E013F0020F07D010F0800F04D0236DAE
:101C70002046984705B030BDC3F340151DB911B9D2
:101C800013F4807FF6D010F0200FF3D079B194F8E0
:101C90005D10C9B2032953D0216E41F004012166C1
:101CA00000210091D168009191680091009965B17F
:101CB000216E41F00101216600210291916802919B
:101CC000116821F040011160029A13F4807F09D05D
:101CD000236E43F0080323660023039323689B6865
:101CE0000393039B236E002BC4D02268536823F018
:101CF000E0035360012384F85D3010F0030F27D018
:101D00002268536823F003035360A36D4BB1124A5A
:101D10009A63A06D02F005F818B1236E43F04003FA
:101D20002366636D002BA5D00B4A9A63606D01F0AA
:101D3000F8FF00289ED0236E43F04003236699E706
:101D400000230193D368019393680193019B91E76A
:101D50002046FFF771FF8DE75D1D000808B5806A1A
:101D60000023A0F84630C387FFF766FF08BD40B3E5
:101D700038B5044603684CF6CC421A60036845F255
:101D800055521A60036842685A60036882689A6014
:101D900000F0BCFE05462368DA6832B100F0B6FEFA
:101DA000401B3028F7D9032038BD1969E2689142F9
:101DB00002D01A610020F7E74AF6AA221A60002032
:101DC000F2E7012070470268136823F490731360F0
:101DD0000268936823F001039360202380F8723037
:101DE000002303667047000090F87230DBB2202BAE
:101DF00058D1002958D0002A58D090F87030012BC3
:101E000056D0012380F870304165A0F85820A0F822
:101E10005A20002303668368B3F5805F06D0A3B918
:101E2000036973B9FF23A0F85C3011E0036923B99B
:101E300040F2FF13A0F85C300AE0FF23A0F85C300A
:101E400006E07F23A0F85C3002E0B3F1805F19D098
:101E500000234367222380F872300268936843F0BE
:101E6000010393608368B3F5805F15D0114B03665F
:101E7000002380F8703001680A6842F490720A60AA
:101E80001846704703691BB97F23A0F85C30DFE771
:101E90003F23A0F85C30DBE70369002BE6D1064B5B
:101EA0000366E5E702207047012070470120704774
:101EB00002207047DB1E00083B1F0008704708B572
:101EC00001680A6822F040020A60202280F871202E
:101ED00000224266FFF7F2FF08BDB0F85C2090F8E0
:101EE0007230DBB2222B05D00268138B43F008035B
:101EF0001383704710B50368998CD2B2436D5C1C94
:101F000044650A401A70B0F85A30013B9BB2A0F801
:101F10005A3003B110BD0268136823F49073136044
:101F20000268936823F001039360202380F87230E5
:101F300000230366FEF788FBECE708B5B0F85C20E9
:101F400090F87230DBB2222B05D00268138B43F07D
:101F50000803138308BD0368998C436D0A401A80F7
:101F6000436D02334365B0F85A30013B9BB2A0F891
:101F70005A30002BEED10268136823F4907313607B
:101F80000268936823F001039360202380F8723085
:101F900000230366FEF758FBDCE7704738B50446BC
:101FA0000268D3691168906813F00F050CD113F023
:101FB000200F09D011F0200F06D0236E002B00F067
:101FC0009380204698478FE0002D6FD010F00105D8
:101FD00002D111F4907F69D013F0010F07D011F4F2
:101FE000807F04D001201062626F0243626713F0A9
:101FF000020F07D035B1226802201062626F42F0F2
:102000000402626713F0040F07D035B12268042080
:102010001062626F42F00202626713F0080F09D08B
:1020200011F0200F00D12DB1226808201062626FDC
:1020300002436267626F002A56D013F0200F06D069
:1020400011F0200F03D0236E0BB120469847636F29
:1020500013F0080F04D123689B6813F0400F1FD0C2
:102060002046FFF7B0FE23689A6812F0400F13D0A5
:102070009A6822F040029A60E36E4BB11D4A9A635F
:10208000E06E01F04EFE78B3E06E836B98472BE074
:102090002046FFF782FF27E02046FFF77EFF23E080
:1020A0002046FFF77AFF002363671DE013F4801FCB
:1020B00002D010F4800F0AD113F0800F0ED011F06F
:1020C000800F0BD0636E7BB1204698470CE04FF435
:1020D00080131362204600F093FB05E013F0400FDD
:1020E00002D011F0400F00D138BD2046FFF7E7FEC7
:1020F000FAE700BFF920000808B5806A0023A0F8BD
:102100005A30A0F85230FFF748FF08BD2DE9F048DB
:102110000446016883680269134342691343C26934
:1021200013430868A24A024013430B6022685368B5
:1021300023F44053E1680B435360A16922689D4B2F
:102140009A4201D0236A1943936823F430630B4306
:1021500093602368984A934227D0984A934238D094
:10216000974A93424ED0974A934261D0964A9342FF
:1021700074D0904A934200F08A8010258D4A934291
:1021800000F0AA80E369B3F5004F00F03581082D17
:1021900000F2BF81DFE815F07F0195019F01BD01CD
:1021A000AA01BD01BD01BD01B40102F55842D2F83A
:1021B000882002F00302032A09D8DFE802F00204B3
:1021C00081060125DAE70425D8E70825D6E710259A
:1021D000D4E702F5E632D2F8882002F00C020C2A8D
:1021E0000ED8DFE802F0070D0D0D090D0D0D6F0D76
:1021F0000D0D0B000025C1E70425BFE70825BDE74D
:102200001025BBE702F5E432D2F8882002F0300254
:10221000102A09D005D9202A56D0302A06D10825FF
:10222000ACE71AB90025A9E70425A7E71025A5E71B
:1022300002F5E232D2F8882002F0C002402A09D02A
:1022400005D9802A42D0C02A06D1082596E71AB9B6
:10225000002593E7042591E710258FE702F5E0328A
:10226000D2F8882002F44072B2F5807F0BD007D9F3
:10227000B2F5007F2CD0B2F5407F06D108257DE76E
:102280001AB900257AE7042578E7102576E702F5E4
:10229000C832D2F8882002F44062B2F5806F0BD0C9
:1022A00007D9B2F5006F15D0B2F5406F06D10825F9
:1022B00064E71AB9002561E704255FE710255DE7AB
:1022C00002255BE7022559E7022557E7022555E776
:1022D000022553E7022551E7082D00F21D81DFE8B2
:1022E00015F00C001B0114001B0111001B011B0148
:1022F0001B0109004FF4004008E001F05BF828B929
:102300000020D9E000F060FCF9E73048626802EB99
:102310004203834200F20281B0EB023F00F20081EF
:10232000082D66D8DFE805F0056520653065656530
:10233000580001F03FF80025070E060262685008B9
:102340002B4616EB000B47F1000C58466146FDF793
:102350009FFF03462846A3F540711D4A914200F2B3
:10236000E1802268D360A7E0560800252B46DFF8FD
:1023700064B04FF0000C1BEB06004CF10001FDF7C0
:1023800087FF03462846E6E700F01EFC0025070EFF
:102390000602626850082B4616EB000B47F1000C52
:1023A00058466146FDF774FF03462846D3E700BF51
:1023B000F369FFEF00800040003801400044004016
:1023C00000480040004C0040005000400024F40051
:1023D000FFFC0F00000024F45008002700252B46C6
:1023E00010F5000047F10001FDF752FF03462846B3
:1023F000B1E701200023AEE7082D49D8DFE805F05A
:10240000051E2948344848483F0000F0D3FF626861
:10241000530803EB4003B3FBF2F39BB20020A3F19C
:1024200010014FF6EF7291427ED89AB222F00F025D
:10243000C3F3420313432268D3603DE000F0CCFFB6
:102440006268530803EB4003B3FBF2F39BB2002036
:10245000E5E76268530803F1F47303F59043B3FBB7
:10246000F2F39BB20020DAE700F0AEFB626853089B
:1024700003EB4003B3FBF2F39BB20020CFE76268AB
:10248000530803F58033B3FBF2F39BB20020C6E799
:1024900001200023C3E700F08DFF636800EB5302C7
:1024A000B2FBF3F292B20020A2F110014FF6EF73EB
:1024B00099423BD82368DA60002222666266BDE852
:1024C000F08800F089FF636800EB5302B2FBF3F27F
:1024D00092B20020E8E763685A0802F5740202F538
:1024E0001052B2FBF3F292B20020DDE700F06CFB79
:1024F000636800EB5302B2FBF3F292B20020D3E721
:1025000063685A0802F50042B2FBF3F292B200206F
:10251000CAE701200022C7E70120CDE70120CBE771
:102520000120C9E70120C7E70120C5E70120C3E773
:10253000436A13F0010F06D00268536823F4003396
:10254000816A0B435360436A13F0020F06D002689E
:10255000536823F48033C16A0B435360436A13F01A
:10256000040F06D00268536823F48023016B0B43E9
:102570005360436A13F0080F06D00268536823F4CF
:102580000043416B0B435360436A13F0100F06D0B6
:102590000268936823F48053816B0B439360436A12
:1025A00013F0200F06D00268936823F40053C16B28
:1025B0000B439360436A13F0400F0AD002685368DC
:1025C00023F48013016C0B435360036CB3F5801F3D
:1025D0000BD0436A13F0800F06D00268536823F4CF
:1025E0000023816C0B43536070470268536823F4E7
:1025F000C003416C0B435360EBE72DE9F041054606
:102600000F4616469846069C2B68DB6937EA03039B
:102610000CBF01230023B3421DD1B4F1FF3FF3D01F
:102620002CB100F073FAA0EB0800A042ECD92A68A4
:10263000136823F4D07313602A68936823F00103AE
:102640009360202385F8713085F87230002385F877
:102650007030032000E00020BDE8F0812DE9F0415A
:1026600082B01E4690F87130DBB2202B4ED104466A
:102670000D46904600294ED0002A4ED090F870307A
:10268000012B4CD0012380F87030002343672123B5
:1026900080F8713000F03AFA0746A4F85080A4F8A8
:1026A000528009E023682A781A850135B4F852303F
:1026B000013B9BB2A4F85230B4F852309BB2ABB19C
:1026C00000963B46002280212046FFF796FF40BB44
:1026D000A368B3F5805FE5D12369002BE2D12268BE
:1026E00035F8023BC3F308031385DFE700963B464A
:1026F000002240212046FFF780FF034698B92022A0
:1027000084F87120002284F8702000E0022318462B
:1027100002B0BDE8F0810123F9E70123F7E70223C6
:10272000F5E70323F3E70323F1E730B583B004466D
:102730000023436700F0EAF9054623681B6813F09D
:10274000080F0ED123681B6813F0040F17D1202344
:1027500084F8713084F87230002084F8700003B07F
:1027600030BD6FF07E430093034600224FF400110A
:102770002046FFF742FF0028E4D00320EFE76FF088
:102780007E4300932B4600224FF480012046FFF742
:1027900034FF0028DBD00320E1E778B310B504460E
:1027A00090F871300BB3242384F8713022681368D9
:1027B00023F0010313602046FFF7A8FC012813D083
:1027C000636ABBB92268536823F49043536022685C
:1027D000936823F02A0393602268136843F001038F
:1027E00013602046FFF7A1FF10BD80F8703002F0A3
:1027F000C3F9D8E72046FFF79BFEE3E701207047C7
:10280000704770470268D36843F00103D3600268E1
:102810009168084B0B40062B09D09168054B0B4083
:10282000B3F5803F03D0136843F001031360002029
:10283000704700BF0700010070477047704770473E
:1028400010B5044603681A6912F0020F11D0DA6855
:1028500012F0020F0DD06FF002021A61012303770C
:1028600003689B6913F0030F79D0FFF7E6FF00239D
:10287000237723681A6912F0040F12D0DA6812F075
:10288000040F0ED06FF004021A610223237723682D
:102890009B6913F4407F68D02046FFF7CEFF0023EA
:1028A000237723681A6912F0080F12D0DA6812F041
:1028B000080F0ED06FF008021A61042323772368F3
:1028C000DB6913F0030F57D02046FFF7B6FF002354
:1028D000237723681A6912F0100F12D0DA6812F009
:1028E000100F0ED06FF010021A61082323772368AF
:1028F000DB6913F4407F46D02046FFF79EFF00239C
:10290000237723681A6912F0010F03D0DA6812F0F6
:10291000010F3FD123681A6912F0800F03D0DA68E3
:1029200012F0800F3DD123681A6912F4807F03D022
:10293000DA6812F0800F3BD123681A6912F0400F59
:1029400003D0DA6812F0400F39D123681A6912F007
:10295000200F03D0DA6812F0200F37D110BDFFF737
:102960006BFF2046FFF76AFF81E72046FFF764FF11
:102970002046FFF763FF92E72046FFF75DFF204602
:10298000FFF75CFFA3E72046FFF756FF2046FFF75F
:1029900055FFB4E76FF001021A612046FDF718FFFA
:1029A000B8E76FF080021A61204600F095F8BAE7A8
:1029B0006FF480721A61204600F08FF8BCE76FF068
:1029C00040021A612046FFF73AFFBEE76FF020028F
:1029D0001A61204600F07FF8C0E700000368304A23
:1029E000904212D0B0F1804F0FD0A2F594329042B5
:1029F0000BD002F58062904207D002F580629042CF
:102A000003D002F59432904203D123F070034A6858
:102A10001343234A90421ED0B0F1804F1BD0A2F541
:102A20009432904217D002F58062904213D002F5A2
:102A3000806290420FD002F5943290420BD002F5A2
:102A40004062904207D002F58062904203D002F5C6
:102A50008062904203D123F44073CA68134323F089
:102A600080034A69134303608B68C3620B68836207
:102A70000B4B98420FD003F5006398420BD003F53F
:102A80004063984207D003F58063984203D003F572
:102A90008063984201D10B6903630123436170474E
:102AA000002C0140A8B110B5044690F83D305BB150
:102AB000022384F83D30211D2068FFF78FFF01239A
:102AC00084F83D30002010BD80F83C30FFF799FEBF
:102AD000EEE70120704770477047704710B503203C
:102AE00001F0A0F9002002F0BBF910B1012420464A
:102AF00010BD044601F05AFFF9E70000024A1368CE
:102B000001331360704700BFE00C0020014B1868D0
:102B1000704700BFE00C002038B50446FFF7F6FF11
:102B20000546B4F1FF3F00D00134FFF7EFFF401B33
:102B3000A042FAD338BD000030B583B00546204B23
:102B40009B6D13F0805F0BD001F014F9B0F5007F9E
:102B500017D0802D1FD82DD0702D2DD000211BE037
:102B6000174CA36D43F08053A365A36D03F080530E
:102B70000193019B01F0FEF8A36D23F08053A36540
:102B8000E4E7802D03D9A02D03D9022104E0002120
:102B900002E0012100E003210A4A136823F0070341
:102BA0000B431360136803F007038B4206D0012028
:102BB00003B030BD0221EFE70121EDE70020F7E788
:102BC0000010024000200240314A9368D26802F0AF
:102BD000030213F00C030AD00C2B06D0042B1FD0D9
:102BE000082B20D00020014610E0012AF6D1284A07
:102BF000126812F0080F0CD1254AD2F89420C2F3C3
:102C00000322244951F8221043B100200C2B0DD08F
:102C100070471F4A1268C2F30312F2E70846F5E74D
:102C20001D480021F2E71D480021EFE7184BDA6844
:102C300002F00302DB68C3F302130133022A0AD055
:102C4000032A1AD0B1FBF3F3114AD068C0F306206F
:102C500000FB03F008E01048B0FBF3F30C4AD06827
:102C6000C0F3062000FB03F0094BDB68C3F34163AC
:102C700001335B00B0FBF3F0CAE70848B0FBF3F3A5
:102C8000034AD068C0F3062000FB03F0ECE700BF66
:102C900000100240887200080024F40000127A003C
:102CA000002800F0C182F0B583B00446AC4B9D68AB
:102CB00005F00C05DE6806F00306036813F0100F3C
:102CC0005DD0E5B10C2D18D0A369002B00F0B780C2
:102CD000A34A136843F001031360FFF717FF074689
:102CE0009F4B1B6813F0020F40F09680FFF70EFF1A
:102CF000C01B0228F4D90323A2E2012EE4D1984B91
:102D00001B6813F0020F03D0A369002B00F08F8221
:102D1000206A934B1B6813F0080F5DD0904B1B6823
:102D200003F0F00398425ED9FFF706FF002840F059
:102D300080828B4B1A6842F008021A601A6822F0EF
:102D4000F002216A0A431A605A6822F47F42E1695C
:102D500042EA01225A60FFF737FF814B9B68C3F3B9
:102D60000313804AD35C03F01F03D8407E4B1860E6
:102D7000002002F075F80346002840F061822368C5
:102D800013F0010F7AD0082D6FD00C2D6BD0636833
:102D9000B3F5803F00F09180B3F5A02F00F0938051
:102DA0006F4B1A6822F480321A601A6822F480226B
:102DB0001A606368002B00F09380FFF7A7FE0746B8
:102DC000674B1B6813F4003F58D1FFF79FFEC01BF1
:102DD0006428F5D9032333E2614BD3F894301B09FF
:102DE00003F0F0039EE75E4B1A6842F008021A6097
:102DF0001A6822F0F002216A0A431A605A6822F423
:102E00007F42E16942EA01225A60206AFFF794FE9C
:102E10000028A0D0012313E2514B1A6842F00802A7
:102E20001A601A6822F0F002216A0A431A605A688E
:102E300022F47F42E16942EA01225A609FE7484A50
:102E4000136823F001031360FFF760FE0746444B4D
:102E50001B6813F0020F92D0FFF758FEC01B022828
:102E6000F5D90323ECE1032E91D13D4B1B6813F4FC
:102E7000003F03D06368002B00F0DD81236813F06E
:102E8000020F4FD0042D3CD00C2D38D0E368002B1E
:102E900075D0334A136843F480731360FFF736FE2E
:102EA00006462F4B1B6813F4806F5FD1FFF72EFE91
:102EB000801B0228F5D90323C2E1294A136843F491
:102EC0008033136075E703F18043A3F53C331A6840
:102ED00042F480221A601A6842F480321A6068E76D
:102EE000FFF714FE07461E4B1B6813F4003FC5D0C6
:102EF000FFF70CFEC01B6428F5D90323A0E1022EC6
:102F0000C4D1174B1B6813F4806F03D0E368002B08
:102F100000F09381124A536823F0FE43216943EA8B
:102F200001635360236813F0080F53D06369002BCB
:102F300039D00B4AD2F8943043F00103C2F89430F0
:102F4000FFF7E4FD0646064BD3F8943013F0020F6A
:102F500040D1FFF7DBFD801B0228F4D903236FE18A
:102F6000001002407072000874000020B74A5368D5
:102F700023F0FE43216943EA01635360D2E7B34A79
:102F8000136823F480731360FFF7C0FD0646AF4B50
:102F90001B6813F4806FC5D0FFF7B8FD801B0228B3
:102FA000F5D903234CE1A94AD2F8943023F0010368
:102FB000C2F89430FFF7AAFD0646A44BD3F894302C
:102FC00013F0020F06D0FFF7A1FD801B0228F4D9F1
:102FD000032335E1236813F0040F7AD09B4B9B6DDC
:102FE00013F0805F0BD1994B9A6D42F080529A6535
:102FF0009B6D03F080530193019B012600E00026A6
:10300000934B1B6813F4807F26D0A368012B37D025
:10301000052B3DD08D4BD3F8902022F00102C3F850
:103020009020D3F8902022F00402C3F89020A368E7
:10303000002B3BD0FFF76AFD0746844BD3F8903056
:1030400013F0020F44D1FFF761FDC01B41F288333A
:103050009842F2D90323F3E07D4A136843F4807366
:103060001360FFF753FD0746794B1B6813F4807F0D
:10307000CBD1FFF74BFDC01B0228F5D90323DFE0BE
:10308000724AD2F8903043F00103C2F89030CEE794
:103090006E4BD3F8902042F00402C3F89020D3F88E
:1030A000902042F00102C3F89020C0E7FFF72EFD08
:1030B0000746664BD3F8903013F0020F08D0FFF7A5
:1030C00025FDC01B41F288339842F2D90323B7E0B3
:1030D000E6B9236813F0200F35D0636AE3B15B4A89
:1030E000D2F8983043F00103C2F89830FFF70EFD94
:1030F0000646564BD3F8983013F0020F23D1FFF752
:1031000005FD801B0228F4D9032399E04F4A936DF3
:1031100023F080539365DCE74C4AD2F8983023F0D3
:103120000103C2F89830FFF7F1FC0646474BD3F88D
:10313000983013F0020F06D0FFF7E8FC801B02283E
:10314000F4D903237CE0A36A002B78D00C2D7AD02D
:10315000022B23D03D4B1A6822F080721A601B6844
:1031600013F0205F04D1394AD36823F00303D360FE
:10317000364AD36823F0887323F48033D360FFF793
:10318000C5FC0446314B1B6813F0007F4AD0FFF7A3
:10319000BDFC001B0228F5D9032351E02B4A13681C
:1031A00023F080731360FFF7B1FC0546274B1B68C3
:1031B00013F0007F06D0FFF7A9FC401B0228F5D9C9
:1031C00003233DE0236B5A1E636B1B0243EA021389
:1031D000E26A1343E26B5208013A43EA4253226C1B
:1031E0005208013A43EA4263A26B43EAC263174AB8
:1031F000D360136843F080731360D36843F0807327
:10320000D360FFF783FC0446104B1B6813F0007F6C
:1032100006D1FFF77BFC001B0228F5D903230FE042
:1032200000230DE000230BE0012318467047012323
:1032300006E0012304E0012302E0012300E0002373
:10324000184603B0F0BD0123FAE700BF00100240AA
:1032500000700040002800F09A8070B504464E4B84
:103260001B6803F007038B420CD24B4A136823F010
:1032700007030B431360136803F007038B4201D06D
:10328000012070BD0D46236813F0010F39D063682B
:10329000032B09D0022B26D063BB404A126812F0E0
:1032A000020F06D10120ECE73C4A126812F0007FC1
:1032B0006FD03A498A6822F0030213438B60FFF70C
:1032C00025FC0646354B9B6803F00C036268B3EBA4
:1032D000820F16D0FFF71AFC801B41F28833984208
:1032E000F0D90320CDE72D4A126812F4003FE0D157
:1032F0000120C6E7294A126812F4806FD9D1012053
:10330000BFE7236813F0020F06D0244A936823F026
:10331000F003A1680B4393601F4B1B6803F0070386
:10332000AB420CD91C4A136823F007032B431360EC
:10333000136803F00703AB4201D00120A1E7236823
:1033400013F0040F06D0154A936823F4E063E16894
:103350000B439360236813F0080F07D00F4A93685C
:1033600023F46053216943EAC1039360FFF72CFC07
:103370000A4B9B68C3F30313094AD35C03F01F0392
:10338000D840084B1860002001F06AFD79E7012061
:103390007047012075E700BF002002400010024086
:1033A0007072000874000020014B1868704700BF5D
:1033B0007400002008B5FFF7F7FF054B9B68C3F3C7
:1033C0000223044AD35C03F01F03D84008BD00BFAA
:1033D000001002408072000808B5FFF7E5FF054BBA
:1033E0009B68C3F3C223044AD35C03F01F03D84095
:1033F00008BD00BF00100240807200080F23036068
:103400000B4B9A6802F0030242609A6802F0F002E5
:1034100082609A6802F4E062C2609B68DB0803F491
:10342000E0630361034B1B6803F007030B60704705
:103430000010024000200240F8B5594BDB6813F041
:10344000030F18D0564BDB6803F003030268934266
:1034500002D001252846F8BD002A00F09F80504B7D
:10346000DB68C3F3021301334268934201D00125A4
:10347000F0E700251AE00368022B58D0032B5DD03B
:10348000012B01D001250FE0454A126812F0020F0E
:1034900060D0434DEA6822F073024468013C43EA7D
:1034A00004131343EB600025002DD3D10F460446CF
:1034B0003B4A136823F080631360FFF727FB06463F
:1034C000374B1B6813F0006F05D0FFF71FFB801B05
:1034D0000228F5D90325002DBCD1002F3CD130495D
:1034E0000B6923F0784323F4FE43A068E268D20618
:1034F00042EA002213430B61294A136843F08063B8
:103500001360FFF703FB0646254B1B6813F0006FA3
:1035100005D1FFF7FBFA801B0228F5D90325002D02
:1035200098D11F4A1369A1690B43136192E71C4AA2
:10353000126812F4806FACD10125B5E7184A126801
:1035400012F4003FA5D1164A126812F4802FA0D1C0
:103550000125A9E70125A7E7012F0FD0104802692F
:1035600022F0C06222F4FE42A16863695B08013B5D
:103570005B0643EA012313430361BDE70848026980
:1035800022F4C00222F4FE42A16823695B08013BD9
:103590005B0543EA012313430361ADE7012559E7C6
:1035A00000100240F8B5504BDB6813F0030F18D041
:1035B0004D4BDB6803F003030268934202D0012500
:1035C0002846F8BD002A00F08D80474BDB68C3F326
:1035D000021301334268934201D00125F0E7002530
:1035E0001AE00368022B58D0032B5DD0012B01D0C9
:1035F00001250FE03C4A126812F0020F60D03A4DEC
:10360000EA6822F073024468013C43EA041313435E
:10361000EB600025002DD3D10F460446324A1368D3
:1036200023F080531360FFF771FA06462E4B1B6898
:1036300013F0005F05D0FFF769FA801B0228F5D967
:103640000325002DBCD1002F3CD127494B6923F025
:10365000784323F4FE43A068E268D20642EA0022DF
:1036600013434B61204A136843F080531360FFF704
:103670004DFA06461C4B1B6813F0005F05D1FFF79F
:1036800045FA801B0228F5D90325002D98D1164A4A
:10369000536961690B43536192E7134A126812F44C
:1036A000806FACD10125B5E70F4A126812F4003FD4
:1036B000A5D10D4A126812F4802FA0D10125A9E7E7
:1036C0000125A7E70848426922F0C06222F4FE42C1
:1036D000A16823695B08013B5B0643EA01231343AE
:1036E0004361BFE701256BE7001002402DE9F0417F
:1036F00082B00446036813F4006F2FD0836EB3F5D5
:10370000800F25D008D9B3F5000F10D0B3F5400FC6
:1037100040F09980002610E0002B40F094800021BA
:103720000430FFF789FE06463EB1374618E05E4A90
:10373000D36843F48033D36000265B4AD2F88830E4
:1037400023F44003A16E0B43C2F88830002707E042
:1037500000212030FFF726FF0646E5E700273E461A
:10376000236813F4805F15D0E36EB3F1807F7AD0C5
:103770006CD9B3F1007F70D0B3F1407F7AD1002EC5
:103780007BD1494AD2F8883023F04073E16E0B4375
:10379000C2F88830236813F4003F00F08E80424B5B
:1037A0009B6D13F0805F6AD13F4B9A6D42F080525F
:1037B0009A659B6D03F080530193019B4FF00108C4
:1037C0003A4A136843F480731360FFF79FF9054684
:1037D000364B1B6813F4807F05D1FFF797F9401B28
:1037E0000228F5D90326002E62D12F4BD3F8903052
:1037F00013F4407316D0D4F888209A4212D02A4A83
:10380000D2F8903023F44073D2F8901041F4803114
:10381000C2F89010D2F8901021F48031C2F89010C4
:10382000C2F8903013F0010F2CD1002E40F05181DE
:103830001D4AD2F8903023F44073D4F888100B431B
:10384000C2F8903035E001273E4689E793B9002160
:10385000201DFFF7F1FD064691E7134AD36843F4B4
:103860008033D3608BE7002104F12000FFF79AFE3C
:10387000064684E701273E468CE737468AE74FF045
:1038800000089DE7FFF742F90546074BD3F8903053
:1038900013F0020FC9D1FFF739F9401B41F2883309
:1038A0009842F2D90326C0E70010024000700040A1
:1038B0003746B8F1000F40F00E81236813F0010F76
:1038C00008D0A44AD2F8883023F00303A16B0B433D
:1038D000C2F88830236813F0020F08D09D4AD2F84E
:1038E000883023F00C03E16B0B43C2F88830236867
:1038F00013F0040F08D0974AD2F8883023F0300331
:10390000216C0B43C2F88830236813F0080F08D0ED
:10391000904AD2F8883023F0C003616C0B43C2F8A0
:103920008830236813F0100F08D08A4AD2F8883004
:1039300023F44073A16C0B43C2F88830236813F062
:10394000200F08D0834AD2F8883023F44063E16C1A
:103950000B43C2F88830236813F4007F08D07D4AF7
:10396000D2F8883023F44023216E0B43C2F888300C
:10397000236813F4806F08D0764AD2F8883023F495
:103980004013616E0B43C2F88830236813F0400F78
:1039900008D0704AD2F8883023F44053216D0B438D
:1039A000C2F88830236813F0800F08D0694AD2F833
:1039B000883023F44043616D0B43C2F8883023689C
:1039C00013F4807F08D0634AD2F8883023F4403360
:1039D000A16D0B43C2F88830236813F4801F08D010
:1039E0005C4AD2F89C3023F00303E16D0B43C2F82C
:1039F0009C30236813F4005F0FD0564AD2F8883009
:103A000023F04063216F0B43C2F88830236FB3F17A
:103A1000006F66D0B3F1806F68D0236813F4002F75
:103A20000FD04C4AD2F8883023F04063616F0B43CB
:103A3000C2F88830636FB3F1006F5FD0B3F1806F6D
:103A400061D0236813F4802F0FD0424AD2F8883017
:103A500023F04063A16F0B43C2F88830A36FB3F12A
:103A6000006F58D0B3F1806F5AD0236813F4804FA1
:103A70000FD0384AD2F8883023F04053E16F0B431F
:103A8000C2F88830E36FB3F1805F51D0B3F1005FCB
:103A900056D0236813F4004F09D02E4AD2F888304C
:103AA00023F08043D4F880100B43C2F88830236899
:103AB00013F4803F09D0274AD2F8883023F000431E
:103AC000D4F884100B43C2F88830384602B0BDE801
:103AD000F0813746EDE61F4A936D23F080539365DE
:103AE000EBE6D36843F48013D36096E70121201DF1
:103AF000FFF7A2FC002890D007468EE7D36843F476
:103B00008013D3609DE70121201DFFF795FC00285D
:103B100097D0074695E7D36843F48013D360A4E7B2
:103B20000121201DFFF788FC00289ED007469CE756
:103B30000221201DFFF780FC0028AAD00746A8E735
:103B4000022104F12000FFF72DFD0028A1D0074637
:103B50009FE700BF00100240F0B482B0002336E0BF
:103B6000072400E00024B4403C430235644E46F88C
:103B70002540644C2568D44304EA05064F6817F4D1
:103B8000803F01D042EA05065E4D2E606D6804EA72
:103B900005064F6817F4003F01D042EA0506594D6B
:103BA0006E60AD6804EA05064F6817F4801F01D007
:103BB00042EA0506534DAE60ED682C404E6816F49F
:103BC000001F01D042EA05044E4AD46001330A685E
:103BD00032FA03F400F0918001249C402240F5D099
:103BE0004D68022D01D0122D10D1DE08083650F894
:103BF00026C003F00705AF000F25BD402CEA050CD9
:103C00000D69BD4045EA0C0540F8265006685F0086
:103C10000325BD40ED4305EA060C4E6806F0030699
:103C2000BE4046EA0C0606604E6806F1FF3CBCF159
:103C3000010F03D9112E01D0122E10D1866805EA8A
:103C4000060CCE68BE4046EA0C068660466826EA48
:103C500004044E68C6F300169E4026434660C468BE
:103C600025408C68BC402C43C4604C6814F0805FD5
:103C7000ACD0254C256E45F001052566246E04F078
:103C800001040194019C9D08AE1C1D4C54F8267043
:103C900003F00304A6000F24B44027EA0407B0F1A0
:103CA000904F3FF45FAF194CA0421AD004F58064E6
:103CB000A04218D004F58064A04216D004F58064B8
:103CC000A04214D004F58064A04212D004F58064B0
:103CD000A04210D004F58064A0423FF441AF082414
:103CE00041E701243FE702243DE703243BE70424A6
:103CF00039E7052437E7062435E702B0F0BC704702
:103D0000000001400004014000100240000400488F
:103D10000AB98162704781617047436959404161C6
:103D2000704708B590F82530DBB2022B03D004238E
:103D3000C363012008BD0268136823F00E031360FB
:103D40000268136823F001031360436C03F01C0343
:103D5000016C012202FA03F34B6080F82520002356
:103D600080F82430836B13B198470020E2E70020ED
:103D7000E0E70000024B186800F4C060704700BF25
:103D800000700040B0F5007F0FD01F4B1B6803F49C
:103D9000C063B3F5806F34D01B4A136823F4C0634B
:103DA00043F48063136000207047174B1B6803F4D3
:103DB000C063B3F5007F22D0134A136823F4C063B5
:103DC00043F400731360114B1A68322303FB02F3B0
:103DD0000F4AA2FB03239B0C013300E0013B0A4A7C
:103DE000526912F4806F01D0002BF7D1064B5B694A
:103DF00013F4806F01D1002070470320704700202A
:103E000070470020704700BF007000407400002021
:103E100083DE1B43024A536843F4007353607047C8
:103E200000700040074AD36823F4E0631B041B0CB6
:103E3000000200F4E060184340F0BF6040F400303E
:103E4000D060704700ED00E030B4174BDB68C3F37F
:103E50000223C3F10704042C28BF04241D1D062DD2
:103E600018D9033B4FF0FF3505FA04F421EA0401A9
:103E7000994005FA03F322EA0303194300280BDBF8
:103E80000901C9B200F1604000F5614080F80013FB
:103E900030BC70470023E5E700F00F000901C9B20C
:103EA000024B1954F4E700BF00ED00E014ED00E010
:103EB00000F01F02400901239340024A42F82030DB
:103EC000704700BF00E100E043684B609A688A6079
:103ED0009A68516099600861036801330360704714
:103EE00003694268816891608268416851605A68DC
:103EF000824206D0002202611A68013A1A601868EC
:103F0000704782685A60F5E7084B1B681B683BB135
:103F1000064B1B68DB68DB685A68054B1A60704704
:103F2000034B4FF0FF321A60704700BF4805002076
:103F3000E8050020F8B53A4B1B68002B64D1394BDB
:103F40001D6801351D60C5B9374B1B681B6843B13F
:103F50004FF0100383F31188BFF36F8FBFF34F8FC0
:103F6000FEE7314A1168314B186810601960304A19
:103F7000136801331360FFF7C7FF2E4B1B68AB427A
:103F800038D900242C4B1B68DB6A03EB83039A00AF
:103F90002A4B9B58012B3CD901243AE00124224BA7
:103FA0001B681B6843B3204B1B68DB68DE687368C3
:103FB0009D4226D3371D3846FFF792FFB36A1BB1E7
:103FC00006F11800FFF78CFFF36A01229A401C49A2
:103FD000086802430A6003EB83039A0039461748D6
:103FE0001044FFF771FFF26A134B1B68DB6A9A42B9
:103FF000D4D2D4E70024D2E70E4B4FF0FF321A6040
:10400000C0E70C4A1360BDE70E4A13680133136022
:1040100000240D4B1B6803B101242046F8BD00BFEE
:10402000E005002004060020480500204C05002083
:10403000EC050020E8050020440500205005002084
:10404000E4050020DC05002008060020204B1B684A
:104050001BB1204B01221A6070471E4B00221A60D0
:104060001D4B1B68B3FA83F3DBB2C3F11F0303EBF1
:1040700083018A0019498A5842B94FF0100383F32B
:104080001188BFF36F8FBFF34F8FFEE710B4134853
:104090009A00D418A10001444C6864684C601A442A
:1040A00091000831084484420BD003EB83039A004B
:1040B0000A4B13445B68DA68094B1A605DF8044BDD
:1040C000704761680548142202FB03025160ECE767
:1040D000E005002008060020E4050020500500202F
:1040E00044050020F8B540B94FF0100383F3118860
:1040F000BFF36F8FBFF34F8FFEE704460D4600F00E
:10410000BFF8EFF311864FF0100383F31188BFF36C
:104110006F8FBFF34F8F94F85030DBB2022284F8D8
:104120005020E26C0132E264012B02D086F3118848
:10413000F8BDA36A43B14FF0100383F31188BFF3B6
:104140006F8FBFF34F8FFEE7144B1B68DBB9271D42
:104150003846FFF7C5FEE26A01239340104908681C
:1041600003430B6039460F4B142000FB0230FFF76E
:10417000ABFEE26A0C4B1B68DB6A9A42D6D945B1AA
:1041800001232B60D2E704F118010848FFF79CFED9
:10419000EFE7074B01221A60C8E700BFE0050020E7
:1041A000E40500205005002044050020F005002013
:1041B00008060020000000000000000000000000D1
:1041C000074B19680868B0E8F04F80F30988BFF31F
:1041D0006F8F4FF0000080F311887047AFF30080BD
:1041E0004405002000000000000000000000000066
:1041F000EFF30980BFF36F8F154B1A681EF0100F95
:1042000008BF20ED108A20E9F04F10602DE9090069
:104210004FF0100080F31188BFF34F8FBFF36F8F03
:10422000FFF714FF4FF0000080F3118809BC1968F4
:104230000868B0E8F04F1EF0100F08BFB0EC108A0D
:1042400080F30988BFF36F8F704700BFAFF3008022
:104250004405002008B54FF0100383F31188BFF325
:104260006F8FBFF34F8FFFF765FE18B1034B4FF011
:1042700080521A60002383F3118808BD04ED00E02A
:10428000EFF305830F2B0FD9104A9B5CDBB2104A6A
:1042900012789A4208D94FF0100383F31188BFF3C4
:1042A0006F8FBFF34F8FFEE70A4B1B6803F4E06389
:1042B000094A1268934208D94FF0100383F311881A
:1042C000BFF36F8FBFF34F8FFEE77047F0E300E05F
:1042D0000C0600200CED00E0100600202DE9F04F48
:1042E0008DB000240794089409940A940B94A34B6E
:1042F000DA6C42F01002DA64DA6C02F0100200921A
:10430000009ADA6C42F00402DA64DA6C02F0040219
:104310000192019ADA6C42F02002DA64DA6C02F05F
:1043200020020292029ADA6C42F00102DA64DA6C3C
:1043300002F001020392039ADA6C42F00202DA649C
:10434000DA6C02F002020492049ADA6C42F0400243
:10435000DA64DA6C02F040020592059ADA6C42F0F7
:104360000802DA64DB6C03F008030693069BFFF790
:1043700051FD834D012240F2FC712846FFF7C8FC35
:10438000804F012244F228113846FFF7C1FC224633
:104390004FF400713846FFF7BBFCDFF83C82012286
:1043A0004FF442714046FFF7B3FC012202214FF067
:1043B0009040FFF7ADFC012280214FF09040FFF7C5
:1043C000A7FC012203217048FFF7A2FC22464FF40C
:1043D00081416D48FFF79CFC01224FF440416B483E
:1043E000FFF796FC40F2FC730793012608960994A8
:1043F0000A9407A92846FFF7AFFB0796DFF8DCA170
:10440000CDF820A00994DFF8D8B107A95846FFF7E6
:10441000A3FB4FF02009CDF81C90CDF820A0099403
:1044200007A94FF09040FFF797FB44F2A83307939A
:10443000089609940A9407A93846FFF78DFB4FF4B4
:1044400042730793089609940A9407A94046FFF718
:1044500083FB82230793089609940A9407A94FF0D7
:104460009040FFF779FB44F2830307930896099481
:104470000A9407A94448FFF76FFB032307930894A6
:10448000099407A95846FFF767FB4FF44043079389
:10449000089609940A9407A93C48FFF75DFB4FF47E
:1044A000005BCDF81CB0089609940A9407A9384619
:1044B000FFF752FB40F6010ACDF81CA008960994BC
:1044C0000A9407A92846FFF747FB32465946384663
:1044D000FFF71EFC224651462846FFF719FC2C4BDD
:1044E000C3F800804FF4007199802A4AC2F8008016
:1044F0004FF4807393802848076008228280274CFD
:104500004FF0904020608020A080254C2760A4F8C8
:104510000490244CC4F80080A280234C256004261B
:10452000A680224C25601026A680214C25604026BE
:10453000A680204C2560A4F804901F4C2760A3801F
:104540001E4C2560A2801E4A156090801D4A156091
:104550004FF4806090801C4A17604FF48040908038
:104560001A4A156093801A4B1D609980194B064AB0
:104570001A6002229A800DB0BDE8F08F0010024050
:10458000001000480014004800040048000C0048D7
:10459000C00B0020840C0020080B002068080020BD
:1045A000C80B0020F00A002068070020A00B0020A4
:1045B000000B00202C060020FC060020640A0020CE
:1045C000E807002080080020700A00208C0C0020E2
:1045D000B80B002020060020000800480000111041
:1045E0000018004808B51248124B0360124B436094
:1045F000002383600122C260036143618361C36160
:104600000362FDF709FA50B900210948FDF762FA83
:1046100040B900210648FDF78BFA30B908BDFCF718
:10462000E3F8F1E7FCF7E0F8F3E7FCF7DDF8F5E78E
:10463000180A002000540040261A100008B512483D
:10464000124B0360124B4360002383600122C2605F
:10465000036143618361C3610362FDF7DDF950B912
:1046600000210948FDF736FA40B900210648FDF758
:104670005FFA30B908BDFCF7B7F8F1E7FCF7B4F81A
:10468000F3E7FCF7B1F8F5E788080020005C00408C
:10469000261A100008B50848084B0360062343603B
:1046A00040F6FF73C3608360FDF761FB00B908BD8E
:1046B000FCF79AF8FBE700BF7008002000300040CC
:1046C000024B4AF6AA221A60704700BF0030004031
:1046D00008B5002202211720FFF7B6FB1720FFF7CD
:1046E000E7FB002211460620FFF7AEFB0620FFF78E
:1046F000DFFB08BD08B5FFF7F1FDFFF7CBFF00F0CA
:104700002FF9FFF76FFFFFF799FF4FF4E13000F04B
:10471000A1FC08BD0A4B01221A700A4A5A600A4AD3
:104720009A600A4ADA600A4A1A610A4A5A610A4ACF
:104730009A610A4ADA610A4A1A620A4A5A62704758
:10474000740B0020F00700208808002038090020A2
:10475000C00B0020840C0020080B002068080020FB
:10476000C80B0020F00A00200A4B02221A700A4AE5
:104770005A600A4A9A600A4ADA600A4A1A610A4A80
:104780005A610A4A9A610A4ADA610A4A1A620A4A6C
:104790005A627047100B002084060020380C00205D
:1047A000D00B002068070020A00B0020000B002089
:1047B0002C060020FC060020640A00200A4B03227D
:1047C0001A700A4A5A600A4A9A600A4ADA600A4A21
:1047D0001A610A4A5A610A4A9A610A4ADA610A4A1D
:1047E0001A620A4A5A627047480B0020700700207C
:1047F00038060020D4080020E807002080080020A8
:10480000700A00208C0C0020B80B0020200600202D
:1048100008B5FFF76FFFFFF77DFFFFF7A5FFFFF775
:10482000CDFFFFF755FF08BD70B40025044B1E688F
:10483000044C22686368A81846EB030170BC7047FB
:104840009075FF1F9475FF1F84B008B50DF1080C1B
:104850008CE80F009DF80830022B0BD0032B0DD0F5
:10486000012B03D0BDE8084004B070470D9800F05C
:104870000BFCF7E70D9800F02BFCF3E70D9800F028
:104880004BFCEFE770B58CB00546022924D0032914
:1048900030D0012910D01E4801F04EF800238DF8C9
:1048A0002C302C4601AE0FCE0FC40FCE0FC496E8AD
:1048B000070084E807000CE0164C012384F8283038
:1048C00006460FCC0FC60FCC0FC694E8070086E84B
:1048D000070028460CB070BD0F4C012384F8283027
:1048E00006460FCC0FC60FCC0FC694E8070086E82B
:1048F0000700EEE7094C012384F8283006460FCC68
:104900000FC60FCC0FC694E8070086E80700E0E763
:104910005C720008740B0020100B0020480B002074
:1049200000B583B00023019340B94FF0100383F327
:104930001188BFF36F8FBFF34F8FFEE701A9FFF719
:10494000D1FB019B3BB1054B4FF080521A60BFF386
:104950004F8FBFF36F8F03B05DF804FB04ED00E0F1
:1049600008B51048104B03604FF482734360002376
:1049700083604FF4E062C260036143614FF40072F0
:104980008261C3610362436283620722C2620122C1
:1049900002634363FDF7F8F800B908BDFBF724FF95
:1049A000FBE700BF040700200030014000B583B0E2
:1049B0000D4B1A6E42F001021A661A6E02F00102E5
:1049C0000092009A9A6D42F080529A659B6D03F0B6
:1049D00080530193019B00220F216FF00100FFF72C
:1049E00033FA03B05DF804FB00100240F0B58FB05D
:1049F0000446002309930A930B930C930D930268CA
:104A0000554B9A420BD02368544A93422AD0544AB9
:104A1000934248D0534A934266D00FB0F0BD524DF6
:104A2000EB6C43F00203EB64EB6C03F002030093C6
:104A3000009B4FF44073099312230A9301230B93B5
:104A400003230C9304230D9309A94848FFF784F826
:104A5000AB6D43F40013AB65AB6D03F4001301932E
:104A6000019BD0E7404CE36C43F02003E364E36C2C
:104A700003F020030293029B0323099312220A925C
:104A800001220B920C9304230D9309A93848FFF7D8
:104A900063F8A36D43F48003A365A36D03F480035F
:104AA0000393039BB9E7304CE36C43F00403E364E6
:104AB000E36C03F004030493049B03230993122281
:104AC0000A9201220B920C9304230D9309A9294801
:104AD000FFF742F8A36D43F40003A365A36D03F44D
:104AE00000030593059B98E71F4CE36C43F02003FC
:104AF000E364E36C03F020030693069BE36C43F04E
:104B00000203E364E36C03F002030793079B4FF493
:104B10000043099312270A9701260B9603250C954B
:104B200004230D9309A91248FFF716F84FF4806388
:104B300009930A970B960C950D9509A90B48FFF759
:104B40000BF8E36D43F00203E365E36D03F002034A
:104B50000893089B61E700BF0054004000580040E4
:104B6000005C004000840040001002400004004847
:104B7000001400480008004870B58EB00023099367
:104B80000A930B930C930D930368554A93420AD0F2
:104B9000544A93422CD0544A93425ED0534A934293
:104BA0007CD00EB070BD524BDA6D42F00102DA6576
:104BB000DA6D02F001020092009ADA6C42F04002D3
:104BC000DA64DB6C03F040030193019BFFF722F9E9
:104BD0004FF4C073099302230A9300230B9303231A
:104BE0000C9308230D9309A94248FEF7B5FFD8E7B7
:104BF0003F4B9A6D42F480129A659A6D02F48012CE
:104C00000292029ADA6C42F00402DA64DA6C02F080
:104C100004020392039ADA6C42F00802DA64DB6C55
:104C200003F008030493049B4FF480530993022676
:104C30000A9603250C9508240D9409A92E48FEF721
:104C40008BFF042309930A9600230B930C950D9474
:104C500009A92A48FEF780FFA3E7254B9A6D42F485
:104C600000329A659A6D02F400320592059ADA6C68
:104C700042F00102DA64DB6C03F001030693069B49
:104C80000C23099302230A9303230C9307230D9308
:104C900009A94FF09040FEF75FFF82E7144B9A6D31
:104CA00042F480229A659A6D02F480220792079A54
:104CB000DA6C42F00802DA64DB6C03F00803089354
:104CC000089B4FF44073099302230A9303230C9328
:104CD00007230D9309A90948FEF73EFF61E700BFCE
:104CE0000080004000500040004400400048004068
:104CF000001002400018004800080048000C00485E
:104D000070B58CB000230793089309930A930B9313
:104D100003684C4A934207D04B4A93422DD04B4AEA
:104D2000934252D00CB070BD494B1A6E42F480527F
:104D30001A661A6E02F480520092009ADA6C42F0FF
:104D40001002DA64DB6C03F010030193019B4FF453
:104D5000704307930223089303230A9305230B93BD
:104D600007A93C48FEF7F8FE002211462320FFF772
:104D70006BF82320FFF79CF8D4E7354B9A6D42F48B
:104D800080429A659A6D02F480420292029ADA6C2D
:104D900042F00802DA64DB6C03F008030393039B20
:104DA0001B2307930223089303230A9305230B93E2
:104DB00007A92948FEF7D0FE002211462420FFF75C
:104DC00043F82420FFF774F8ACE7214B9A6D42F4C6
:104DD00000429A659A6D02F400420492049ADA6CD9
:104DE00042F00102DA64DA6C02F001020592059ADF
:104DF000DA6C42F00202DA64DB6C03F00203069321
:104E0000069B102307930224089403260A9606257E
:104E10000B9507A94FF09040FEF79EFE38230793AD
:104E20000894002409940A960B9507A90B48FEF7ED
:104E300093FE224621463320FFF706F83320FFF782
:104E400037F86FE70030014000380040003C004078
:104E50000010024000100048000C00480004004808
:104E600000B589B0002201461920FEF7EDFF192098
:104E7000FFF71EF8144B1A6E42F400621A661B6E9E
:104E800003F400630193019B02A903A8FEF7B6FA9D
:104E9000FEF7A2FA0D4BA3FB00239B0C013B0C4831
:104EA0000C4A026040F2E732C260436000230361B3
:104EB0008360FDF7F7FD18B1012009B05DF804FB30
:104EC0000348FDF79FFCF8E70010024083DE1B4318
:104ED000E40C0020002C01407047FEE7FEE7FEE7EF
:104EE000FEE7704708B50248FDF7AAFC08BD00BF01
:104EF000E40C002008B50248FDF750F808BD00BFDB
:104F00008406002008B50248FDF748F808BD00BF38
:104F10007007002008B50248FDF740F808BD00BF43
:104F2000F007002008B50248FCF788FE08BD00BF66
:104F3000D408002008B50248FCF780FE08BD00BF79
:104F4000D00B002008B50248FCF778FE08BD00BF72
:104F50003809002000B5BBB0242200212AA800F0A7
:104F6000A8F90021249125912691279128918C223E
:104F700001A800F09EF91823299301222E922F9266
:104F800090233193022333933492052235924722A2
:104F90003692379338930623399329A8FDF780FE7C
:104FA00028BB0F23249303232593902326934FF4A8
:104FB000806327930021289124A8FEF74BF9C8B9F4
:104FC000114B019300231093119313931493159392
:104FD00016931793189301A8FEF788FB68B94FF44E
:104FE0000070FEF7CFFE58B93BB05DF804FBFBF74D
:104FF000FBFBD6E7FBF7F8FBE2E7FBF7F5FBEEE799
:10500000FBF7F2FBF0E700BFF60110000F49D1F803
:10501000883043F47003C1F888300D4B1A6842F0B1
:1050200001021A60002098601A6822F0A85222F447
:1050300010221A604FF48052DA601A6822F480223B
:105040001A6098614FF000638B60704700ED00E0DC
:105050000010024008B50A4B0A4A1A605860002244
:105060009A60DA601A610C2159619A611A625A6277
:105070001846FDF792FB00B908BDFBF7B5FBFBE74F
:10508000A00900200080004008B50F4B0F4A1A60AD
:10509000586000229A60DA601A610C2159619A61A5
:1050A000DA611A625A621846FDF777FB40B90022AE
:1050B00007213520FEF7C8FE3520FEF7F9FE08BDB2
:1050C000FBF792FBF3E700BFF00700200050004021
:1050D00008B50F4B0F4A1A60586000229A60DA60D8
:1050E0001A610C2159619A61DA611A625A62184692
:1050F000FDF753FB40B9002207212620FEF7A4FE4E
:105100002620FEF7D5FE08BDFBF76EFBF3E700BFD8
:10511000840600200044004008B50F4B0F4A1A6077
:10512000586000229A60DA601A610C2159619A6114
:10513000DA611A625A621846FDF72FFB40B9002265
:1051400007212720FEF780FE2720FEF7B1FE08BDCD
:10515000FBF74AFBF3E700BF700700200048004060
:1051600000B583B002A941F8040D4FF6FF73012288
:105170000348FDF773FA019803B05DF804FB00BF24
:10518000A009002070B51646002405E04D1C0878E3
:10519000FFF7E6FF01342946B442F7DB304670BD25
:1051A000DFF834D0002103E00C4B5B58435004314E
:1051B0000B480C4B42189A42F6D30B4A02E00023EC
:1051C00042F8043B094B9A42F9D3FFF71FFF00F066
:1051D00041F8FBF791FAFEE700000520A8730008EC
:1051E00000000020E0000020E0000020280D00204A
:1051F000FEE700001FB51C46094B1B680546D86832
:1052000052B1084B0091CDE9013207492B462246A5
:1052100000F00EF800F058FC044B1A46F2E700BF0D
:1052200078000020B8720008C5720008F372000808
:105230000EB403B5014603AB054853F8042B0068D0
:10524000019300F067F802B05DF804EB03B070471B
:105250007800002070B50D4E0D4CA41BA410002545
:10526000A54209D10B4E0C4C01F006F8A41BA4106A
:105270000025A54205D170BD56F825309847013567
:10528000EEE756F8253098470135F2E798730008A5
:1052900098730008987300089C73000810B5431EAB
:1052A0000A44914200D110BD11F8014B03F8014F9F
:1052B000F7E702440346934200D1704703F8011B0D
:1052C000F9E79368013B002B10B4936008DA946906
:1052D000A34201DB0A2903D15DF8044B00F034BB83
:1052E0001368581C1060197008465DF8044B70472D
:1052F000F8B506460F461446D518AC4201D1002039
:1053000007E03A4614F8011B3046FFF7DAFF431C6A
:10531000F3D1F8BD2DE9F04F0C469DB017461D4660
:10532000064618B183690BB900F0C6FC7C4B9C4261
:1053300058D17468A38918075ED52369002B5BD008
:105340000023099320238DF8293030238DF82A304B
:1053500003954FF0010BB846454615F8013B0BB1DC
:10536000252B54D1B8EB070A0BD053463A462146B9
:105370003046FFF7BDFF013000F0C280099B534467
:10538000099398F80030002B00F0BA8000234FF00A
:10539000FF32CDE90523049307938DF853301A9318
:1053A000A846052218F8011B5E48FAF721FF049B66
:1053B00078BBD90644BF20228DF853201A0744BF7A
:1053C0002B228DF853202A782A2A2AD0079AA84619
:1053D00000200A25414611F8013B303B092B69D9D1
:1053E00060B324E0504B9C4201D1B468A2E74F4B1C
:1053F0009C4208BFF4689DE72146304600F0F6FA6B
:1054000000289DD04FF0FF301DB0BDE8F08FA846BA
:10541000A2E7444A801A0BFA00F01843049045466C
:10542000BEE7039A111D12680391002A01DB07925F
:1054300004E0524243F002030792049398F80030CC
:105440002E2B0ED198F801302A2B38D1039B1A1D30
:105450001B680392002BB8BF4FF0FF3308F102081E
:105460000593334D98F8001003222846FAF7C0FE42
:1054700040B14023401B03FA00F0049B034308F1B2
:105480000108049398F800102A488DF82810062285
:1054900008F10107FAF7ACFE002837D0264B1BBBFA
:1054A000039B073323F0070308330393099B4B4403
:1054B000099350E705FB0232012088468AE7002362
:1054C00008F10108059319460A25404610F8012BFA
:1054D000303A092A03D9002BC3D00591C1E705FB57
:1054E000012101238046F0E703AB00932246134BD2
:1054F00004A93046AFF30080B0F1FF3F8146D5D11B
:10550000A3895B063FF57EAF09987DE703AB009367
:1055100022460A4B04A9304600F088F8ECE700BFA9
:105520004C730008F87200086C7300082C730008B4
:10553000FE7200080273000800000000F15200082B
:105540002DE9F04791461F468A680B69DDF82080F7
:105550009342B8BF1346C9F8003091F8432006467D
:105560000C4612B10133C9F800302368990642BFD6
:10557000D9F800300233C9F80030256815F0060567
:1055800007D104F1190AE368D9F800209B1AAB424D
:1055900028DC94F843302268003318BF01239206B8
:1055A0002DD404F1430239463046C047013020D0A3
:1055B0002368E568D9F8002003F00603042B08BF30
:1055C000AD1AA36822690CBF25EAE5750025934250
:1055D000C4BF9B1AED184FF000091A344D451AD17B
:1055E000002008E00123524639463046C0470130CA
:1055F00003D14FF0FF30BDE8F0870135C3E7E11874
:105600005A1C302081F84300224494F8451082F857
:1056100043100233C5E70123224639463046C047CE
:105620000130E6D009F10109D8E700002DE9F04387
:1056300001F1430C0C46097E85B06E2917460646DB
:1056400098460C9A00F0B38022D8632936D00AD845
:10565000002900F0B980582900F0838004F1420548
:1056600084F8421032E0642901D06929F6D120681B
:105670001368050603F104012AD51B681160002B8D
:1056800003DA2D225B4284F843206F480A2239E076
:10569000732900F09D8008D86F2920D07029DDD1B2
:1056A000236843F02003236003E0752917D078298D
:1056B000D4D1782384F84530644855E01368191D27
:1056C0001B68116004F1420584F8423001238CE02C
:1056D0001B68116010F0400F18BF1BB2CFE71368B2
:1056E0002568181D1060280601D51B6802E06806B1
:1056F000FBD51B8854486F2914BF0A2208220021B9
:1057000084F843106568A560002DC0F2958021687B
:1057100021F004012160002B3DD1002D40F08E804E
:105720006546082A0BD12368DB0708D52369626820
:105730009A42DEBF302305F8013C05F1FF35ACEBA2
:1057400005032361CDF800803B4603AA214630467D
:10575000FFF7F6FE01304DD14FF0FF3005B0BDE848
:10576000F083394884F84510136821681D1D1B68B3
:1057700015600A060BD5CA0744BF41F0200121601D
:105780001BB9226822F0200222601022B7E74D06E2
:1057900048BF9BB2EFE76546B3FBF2F102FB113362
:1057A000C35C05F8013D0B460029F5D1B9E7136844
:1057B00025686169181D106028061B6801D51960ED
:1057C00002E06A06FBD51980002323616546B9E72C
:1057D0001368191D11601D68626800212846FAF7D8
:1057E00007FD08B1401B606063682361002384F8F3
:1057F0004330A7E723692A4639463046C04701307F
:10580000AAD023689B0713D4E068039B9842B8BFD3
:105810001846A3E701234A4639463046C0470130BF
:105820009AD00135E368039A9B1AAB42F2DCEBE7AE
:10583000002504F11909F5E7002BACD1037884F8B1
:10584000423004F142056CE7097300081A7300083E
:105850000FB40A4B13B51C6824B1A36913B92046D1
:1058600000F02AFA05AB049AA16801932046FFF7DD
:1058700051FD02B0BDE8104004B070477800002030
:1058800070B50E46054618B183690BB900F014FADD
:10589000AB69AC6813B9284600F00EFA234B9C4262
:1058A00017D16C68A3891B071DD52369DBB1013EA5
:1058B000A36816F8011F013BA360E9B9002B2EDA9B
:1058C00022460A21284600F03FF8013011D00A2074
:1058D00011E0174B9C4201D1AC68E3E7154B9C42A9
:1058E00008BFEC68DEE72146284600F07FF8002874
:1058F000DDD04FF0FF3070BD002B04DAA2699A4270
:1059000006DC0A2904D023685A1C22601970CFE7EC
:105910002246284600F018F80130C9D1E9E723688B
:105920000A205A1C22601870E5E700BF4C7300087B
:105930006C7300082C730008024B01461868FFF7CF
:105940009FBF00BF78000020F8B50E4614460546FC
:1059500018B183690BB900F0AFF9214B9C422AD1F1
:105960006C68A369A360A3891A072ED5236963B362
:1059700023692068C01A6369F6B28342374604DCA3
:105980002146284600F02EF928BBA368013BA360FE
:1059900023685A1C22601E7063690130834204D060
:1059A000A389DB0719D50A2E17D12146284600F016
:1059B00019F990B10FE00B4B9C4201D1AC68D0E7D4
:1059C000094B9C4208BFEC68CBE72146284600F013
:1059D0000DF80028CCD04FF0FF373846F8BD00BF97
:1059E0004C7300086C7300082C730008324B70B5C0
:1059F0001D6806460C4625B1AB6913B9284600F070
:105A00005BF92E4B9C420FD16C68B4F90C309AB202
:105A100015072CD4D00611D40922326043F040037C
:105A2000A3814FF0FF303EE0254B9C4201D1AC6892
:105A3000EBE7244B9C4208BFEC68E6E7510712D520
:105A4000616B41B104F14403994202D0304600F049
:105A500021FA00236363A38923F02403A381002395
:105A6000636023692360A38943F00803A38123694A
:105A70004BB9A38903F42073B3F5007F03D021460B
:105A8000304600F0C7F9A28912F001030CD00023C0
:105A9000A36063695B42A361236953B9B4F90C3015
:105AA00013F08000BAD170BD920758BF6369A3603C
:105AB000F2E70020F7E700BF780000204C730008F1
:105AC0006C7300082C73000808B5062000F0C2FAB9
:105AD000012000F0CFFB00008A892DE9F041054646
